{
  "transactions": [
    {
      "hash": "0x2957d5a413783cc838422608d7784a996bd68b2de9756f639c8e8eb7726c6add",
      "transactionType": "CALL",
      "contractName": null,
      "contractAddress": "0x8506934ed8c1154da93610012524b07a972bacca",
      "function": "deployVault(address,string,string,string,string,address,address)",
      "arguments": [
        "0xaf88d065e77c8cC2239327C5EDb3A432268e5831",
        "Brave Levva Vault USDC",
        "LEVVA-ARB-USDC",
        "Brave Levva Vault Arb USDC Withdrawal Queue",
        "LEVVA-ARB-USDC-WITHDRAWAL-QUEUE",
        "0xAD70a0ab951780fF3397882fc5372db83dEb0606",
        "0x9931D4850a10Cc9BcCF44A16CFdaF657CCBbc5a1"
      ],
      "transaction": {
        "from": "0xad70a0ab951780ff3397882fc5372db83deb0606",
        "to": "0x8506934ed8c1154da93610012524b07a972bacca",
        "gas": "0x1035b3",
        "value": "0x0",
        "input": "0x7d2a3e7b000000000000000000000000af88d065e77c8cc2239327c5edb3a432268e583100000000000000000000000000000000000000000000000000000000000000e00000000000000000000000000000000000000000000000000000000000000120000000000000000000000000000000000000000000000000000000000000016000000000000000000000000000000000000000000000000000000000000001c0000000000000000000000000ad70a0ab951780ff3397882fc5372db83deb06060000000000000000000000009931d4850a10cc9bccf44a16cfdaf657ccbbc5a100000000000000000000000000000000000000000000000000000000000000164272617665204c65767661205661756c74205553444300000000000000000000000000000000000000000000000000000000000000000000000000000000000e4c455656412d4152422d55534443000000000000000000000000000000000000000000000000000000000000000000000000000000000000000000000000002b4272617665204c65767661205661756c74204172622055534443205769746864726177616c205175657565000000000000000000000000000000000000000000000000000000000000000000000000000000000000000000000000000000001f4c455656412d4152422d555344432d5749544844524157414c2d515545554500",
        "nonce": "0x145",
        "chainId": "0xa4b1"
      },
      "additionalContracts": [
        {
          "transactionType": "CREATE",
          "address": "0xae9119aba39399011109819c1a2f9436deae2c4b",
          "initCode": "0x60a08060405261050d80380380916100178285610292565b833981016040828203126101eb5761002e826102c9565b602083015190926001600160401b0382116101eb57019080601f830112156101eb57815161005b816102dd565b926100696040519485610292565b8184526020840192602083830101116101eb57815f926020809301855e84010152823b15610274577fa3f0ad74e5423aebfd80d3ef4346578335a9a72aeaee59ff6cb3582b35133d5080546001600160a01b0319166001600160a01b038516908117909155604051635c60da1b60e01b8152909190602081600481865afa9081156101f7575f9161023a575b50803b1561021a5750817f1cf3b03a6cf19fa2baba4df148e9dcabedea7f8a5c07840e207e5c089be95d3e5f80a282511561020257602060049260405193848092635c60da1b60e01b82525afa9182156101f7575f926101ae575b505f809161018a945190845af43d156101a6573d9161016e836102dd565b9261017c6040519485610292565b83523d5f602085013e6102f8565b505b6080526040516101b6908161035782396080518160460152f35b6060916102f8565b9291506020833d6020116101ef575b816101ca60209383610292565b810103126101eb575f80916101e161018a956102c9565b9394509150610150565b5f80fd5b3d91506101bd565b6040513d5f823e3d90fd5b505050341561018c5763b398979f60e01b5f5260045ffd5b634c9c8ce360e01b5f9081526001600160a01b0391909116600452602490fd5b90506020813d60201161026c575b8161025560209383610292565b810103126101eb57610266906102c9565b5f6100f5565b3d9150610248565b631933b43b60e21b5f9081526001600160a01b038416600452602490fd5b601f909101601f19168101906001600160401b038211908210176102b557604052565b634e487b7160e01b5f52604160045260245ffd5b51906001600160a01b03821682036101eb57565b6001600160401b0381116102b557601f01601f191660200190565b9061031c575080511561030d57602081519101fd5b63d6bda27560e01b5f5260045ffd5b8151158061034d575b61032d575090565b639996b31560e01b5f9081526001600160a01b0391909116600452602490fd5b50803b1561032556fe60806040527f5c60da1b000000000000000000000000000000000000000000000000000000006080526020608060048173ffffffffffffffffffffffffffffffffffffffff7f0000000000000000000000000000000000000000000000000000000000000000165afa8015610107575f9015610163575060203d602011610100575b7fffffffffffffffffffffffffffffffffffffffffffffffffffffffffffffffe0601f820116608001906080821067ffffffffffffffff8311176100d3576100ce91604052608001610112565b610163565b7f4e487b71000000000000000000000000000000000000000000000000000000005f52604160045260245ffd5b503d610081565b6040513d5f823e3d90fd5b7fffffffffffffffffffffffffffffffffffffffffffffffffffffffffffffff80602091011261015f5760805173ffffffffffffffffffffffffffffffffffffffff8116810361015f5790565b5f80fd5b5f8091368280378136915af43d5f803e1561017c573d5ff35b3d5ffdfea26469706673582212209f25140d40d87fdc1683bb681952a61925d296a39cc4d260a504db9a00fb4acf64736f6c634300081c0033000000000000000000000000a6e361538c7bf31e152ed6eedf1c0b628d140c2b00000000000000000000000000000000000000000000000000000000000000400000000000000000000000000000000000000000000000000000000000000000"
        },
        {
          "transactionType": "CREATE",
          "address": "0x855af8dcd5f38ff9baf47125f8c262d3f96bd1cb",
          "initCode": "0x60a08060405261050d80380380916100178285610292565b833981016040828203126101eb5761002e826102c9565b602083015190926001600160401b0382116101eb57019080601f830112156101eb57815161005b816102dd565b926100696040519485610292565b8184526020840192602083830101116101eb57815f926020809301855e84010152823b15610274577fa3f0ad74e5423aebfd80d3ef4346578335a9a72aeaee59ff6cb3582b35133d5080546001600160a01b0319166001600160a01b038516908117909155604051635c60da1b60e01b8152909190602081600481865afa9081156101f7575f9161023a575b50803b1561021a5750817f1cf3b03a6cf19fa2baba4df148e9dcabedea7f8a5c07840e207e5c089be95d3e5f80a282511561020257602060049260405193848092635c60da1b60e01b82525afa9182156101f7575f926101ae575b505f809161018a945190845af43d156101a6573d9161016e836102dd565b9261017c6040519485610292565b83523d5f602085013e6102f8565b505b6080526040516101b6908161035782396080518160460152f35b6060916102f8565b9291506020833d6020116101ef575b816101ca60209383610292565b810103126101eb575f80916101e161018a956102c9565b9394509150610150565b5f80fd5b3d91506101bd565b6040513d5f823e3d90fd5b505050341561018c5763b398979f60e01b5f5260045ffd5b634c9c8ce360e01b5f9081526001600160a01b0391909116600452602490fd5b90506020813d60201161026c575b8161025560209383610292565b810103126101eb57610266906102c9565b5f6100f5565b3d9150610248565b631933b43b60e21b5f9081526001600160a01b038416600452602490fd5b601f909101601f19168101906001600160401b038211908210176102b557604052565b634e487b7160e01b5f52604160045260245ffd5b51906001600160a01b03821682036101eb57565b6001600160401b0381116102b557601f01601f191660200190565b9061031c575080511561030d57602081519101fd5b63d6bda27560e01b5f5260045ffd5b8151158061034d575b61032d575090565b639996b31560e01b5f9081526001600160a01b0391909116600452602490fd5b50803b1561032556fe60806040527f5c60da1b000000000000000000000000000000000000000000000000000000006080526020608060048173ffffffffffffffffffffffffffffffffffffffff7f0000000000000000000000000000000000000000000000000000000000000000165afa8015610107575f9015610163575060203d602011610100575b7fffffffffffffffffffffffffffffffffffffffffffffffffffffffffffffffe0601f820116608001906080821067ffffffffffffffff8311176100d3576100ce91604052608001610112565b610163565b7f4e487b71000000000000000000000000000000000000000000000000000000005f52604160045260245ffd5b503d610081565b6040513d5f823e3d90fd5b7fffffffffffffffffffffffffffffffffffffffffffffffffffffffffffffff80602091011261015f5760805173ffffffffffffffffffffffffffffffffffffffff8116810361015f5790565b5f80fd5b5f8091368280378136915af43d5f803e1561017c573d5ff35b3d5ffdfea26469706673582212209f25140d40d87fdc1683bb681952a61925d296a39cc4d260a504db9a00fb4acf64736f6c634300081c003300000000000000000000000076eed0fdc77d62c7a8118678437eeea4091dae5d000000000000000000000000000000000000000000000000000000000000004000000000000000000000000000000000000000000000000000000000000001242016a0d2000000000000000000000000ad70a0ab951780ff3397882fc5372db83deb0606000000000000000000000000ae9119aba39399011109819c1a2f9436deae2c4b000000000000000000000000000000000000000000000000000000000000008000000000000000000000000000000000000000000000000000000000000000e0000000000000000000000000000000000000000000000000000000000000002b4272617665204c65767661205661756c74204172622055534443205769746864726177616c205175657565000000000000000000000000000000000000000000000000000000000000000000000000000000000000000000000000000000001f4c455656412d4152422d555344432d5749544844524157414c2d51554555450000000000000000000000000000000000000000000000000000000000"
        }
      ],
      "isFixedGasLimit": false
    },
    {
      "hash": "0x76a957aa5edcb82310508db9f9d65cbe4d2d8de341f1751723c2d00ae625b0fd",
      "transactionType": "CALL",
      "contractName": "BeaconProxy",
      "contractAddress": "0xae9119aba39399011109819c1a2f9436deae2c4b",
      "function": null,
      "arguments": null,
      "transaction": {
        "from": "0xad70a0ab951780ff3397882fc5372db83deb0606",
        "to": "0xae9119aba39399011109819c1a2f9436deae2c4b",
        "gas": "0xa64f",
        "value": "0x0",
        "input": "0x04f5d1e2000000000000000000000000ad70a0ab951780ff3397882fc5372db83deb06060000000000000000000000000000000000000000000000000000000000000001",
        "nonce": "0x146",
        "chainId": "0xa4b1"
      },
      "additionalContracts": [],
      "isFixedGasLimit": false
    },
    {
      "hash": "0x7f7196df4469a434a45127bd486ea2f1d3553727b682c0b3b4e8a556e0c69016",
      "transactionType": "CALL",
      "contractName": "BeaconProxy",
      "contractAddress": "0xae9119aba39399011109819c1a2f9436deae2c4b",
      "function": null,
      "arguments": null,
      "transaction": {
        "from": "0xad70a0ab951780ff3397882fc5372db83deb0606",
        "to": "0xae9119aba39399011109819c1a2f9436deae2c4b",
        "gas": "0x9b78",
        "value": "0x0",
        "input": "0x4e380ab40000000000000000000000000000000000000000000000000000000000000000",
        "nonce": "0x147",
        "chainId": "0xa4b1"
      },
      "additionalContracts": [],
      "isFixedGasLimit": false
    },
    {
      "hash": "0x559e68e6340312ad14a0ff03d6d455865fed4068bc4a07d15e0fbb348beee42d",
      "transactionType": "CALL",
      "contractName": "BeaconProxy",
      "contractAddress": "0xae9119aba39399011109819c1a2f9436deae2c4b",
      "function": null,
      "arguments": null,
      "transaction": {
        "from": "0xad70a0ab951780ff3397882fc5372db83deb0606",
        "to": "0xae9119aba39399011109819c1a2f9436deae2c4b",
        "gas": "0x9b88",
        "value": "0x0",
        "input": "0x0f650923000000000000000000000000000000000000000000000000000000000000000f",
        "nonce": "0x148",
        "chainId": "0xa4b1"
      },
      "additionalContracts": [],
      "isFixedGasLimit": false
    },
    {
      "hash": "0x97bdeaa747db3b89e6d126f81697937e56efc277cf0acdaffefe53056f3ee95c",
      "transactionType": "CALL",
      "contractName": "BeaconProxy",
      "contractAddress": "0xae9119aba39399011109819c1a2f9436deae2c4b",
      "function": null,
      "arguments": null,
      "transaction": {
        "from": "0xad70a0ab951780ff3397882fc5372db83deb0606",
        "to": "0xae9119aba39399011109819c1a2f9436deae2c4b",
        "gas": "0x9bdf",
        "value": "0x0",
        "input": "0x33e75d48000000000000000000000000000000000000000000000000000000000000000f",
        "nonce": "0x149",
        "chainId": "0xa4b1"
      },
      "additionalContracts": [],
      "isFixedGasLimit": false
    },
    {
      "hash": "0x181c802870dd3f8debfeed018aba0104a441eecb3aef65c14af265e4a0e18e50",
      "transactionType": "CALL",
      "contractName": "BeaconProxy",
      "contractAddress": "0xae9119aba39399011109819c1a2f9436deae2c4b",
      "function": null,
      "arguments": null,
      "transaction": {
        "from": "0xad70a0ab951780ff3397882fc5372db83deb0606",
        "to": "0xae9119aba39399011109819c1a2f9436deae2c4b",
        "gas": "0x9bb4",
        "value": "0x0",
        "input": "0x85a192f60000000000000000000000000000000000000000000000000000000000002710",
        "nonce": "0x14a",
        "chainId": "0xa4b1"
      },
      "additionalContracts": [],
      "isFixedGasLimit": false
    },
    {
      "hash": "0x2c66bf5d1db439ee9ead92aa5a9494ac29d2e4f3e20f93ea7ae5bb76f1bc2d5b",
      "transactionType": "CALL",
      "contractName": "BeaconProxy",
      "contractAddress": "0xae9119aba39399011109819c1a2f9436deae2c4b",
      "function": null,
      "arguments": null,
      "transaction": {
        "from": "0xad70a0ab951780ff3397882fc5372db83deb0606",
        "to": "0xae9119aba39399011109819c1a2f9436deae2c4b",
        "gas": "0x9bb4",
        "value": "0x0",
        "input": "0x89c126f30000000000000000000000000000000000000000000000000000000000002710",
        "nonce": "0x14b",
        "chainId": "0xa4b1"
      },
      "additionalContracts": [],
      "isFixedGasLimit": false
    },
    {
      "hash": "0x60c50d39b96283d1e51326e5e11f73e91b4e109d6a80af45eb8f49e19e4eadc3",
      "transactionType": "CALL",
      "contractName": "BeaconProxy",
      "contractAddress": "0x855af8dcd5f38ff9baf47125f8c262d3f96bd1cb",
      "function": null,
      "arguments": null,
      "transaction": {
        "from": "0xad70a0ab951780ff3397882fc5372db83deb0606",
        "to": "0x855af8dcd5f38ff9baf47125f8c262d3f96bd1cb",
        "gas": "0xa65a",
        "value": "0x0",
        "input": "0x514d7761000000000000000000000000ad70a0ab951780ff3397882fc5372db83deb06060000000000000000000000000000000000000000000000000000000000000001",
        "nonce": "0x14c",
        "chainId": "0xa4b1"
      },
      "additionalContracts": [],
      "isFixedGasLimit": false
    },
    {
      "hash": "0x35e723af0d908e46003023b09dc2820c9a6c128e9eb0403ea7944572346a0568",
      "transactionType": "CALL",
      "contractName": "BeaconProxy",
      "contractAddress": "0xae9119aba39399011109819c1a2f9436deae2c4b",
      "function": null,
      "arguments": null,
      "transaction": {
        "from": "0xad70a0ab951780ff3397882fc5372db83deb0606",
        "to": "0xae9119aba39399011109819c1a2f9436deae2c4b",
        "gas": "0x9d30",
        "value": "0x0",
        "input": "0x4ef0762e00000000000000000000000082af49447d8a07e3bd95bd0d56f35241523fbab1",
        "nonce": "0x14d",
        "chainId": "0xa4b1"
      },
      "additionalContracts": [],
      "isFixedGasLimit": false
    },
    {
      "hash": "0xafc327e5e776dbf5cbc4fbed860f718ca190aa0fa4c94173c90e8c22511572ae",
      "transactionType": "CALL",
      "contractName": "BeaconProxy",
      "contractAddress": "0xae9119aba39399011109819c1a2f9436deae2c4b",
      "function": null,
      "arguments": null,
      "transaction": {
        "from": "0xad70a0ab951780ff3397882fc5372db83deb0606",
        "to": "0xae9119aba39399011109819c1a2f9436deae2c4b",
        "gas": "0x9d30",
        "value": "0x0",
        "input": "0x4ef0762e0000000000000000000000002f2a2543b76a4166549f7aab2e75bef0aefc5b0f",
        "nonce": "0x14e",
        "chainId": "0xa4b1"
      },
      "additionalContracts": [],
      "isFixedGasLimit": false
    },
    {
      "hash": "0xa9f3502ba8ed86a5274863b6568b8dbe92b2a00cee79edd346c07003c12632e9",
      "transactionType": "CALL",
      "contractName": "BeaconProxy",
      "contractAddress": "0xae9119aba39399011109819c1a2f9436deae2c4b",
      "function": null,
      "arguments": null,
      "transaction": {
        "from": "0xad70a0ab951780ff3397882fc5372db83deb0606",
        "to": "0xae9119aba39399011109819c1a2f9436deae2c4b",
        "gas": "0x9d1e",
        "value": "0x0",
        "input": "0x60d54d4100000000000000000000000055991bf0bc93811c51fdcd4a62ad9125fa96f3a2",
        "nonce": "0x14f",
        "chainId": "0xa4b1"
      },
      "additionalContracts": [],
      "isFixedGasLimit": false
    },
    {
      "hash": "0x60a6f910bae5a19bf4c4de911a4730f4490273cf2d43033bee21e2aee2dfddbf",
      "transactionType": "CALL",
      "contractName": "BeaconProxy",
      "contractAddress": "0xae9119aba39399011109819c1a2f9436deae2c4b",
      "function": null,
      "arguments": null,
      "transaction": {
        "from": "0xad70a0ab951780ff3397882fc5372db83deb0606",
        "to": "0xae9119aba39399011109819c1a2f9436deae2c4b",
        "gas": "0x9d1e",
        "value": "0x0",
        "input": "0x60d54d41000000000000000000000000b528a3d9abe7d775fc21091f0e3e3d11b47852e3",
        "nonce": "0x150",
        "chainId": "0xa4b1"
      },
      "additionalContracts": [],
      "isFixedGasLimit": false
    },
    {
      "hash": "0x5c75ad7ec36013febd9235ca47d559358878ce0eaad6a3a9cf9d121838c884a1",
      "transactionType": "CALL",
      "contractName": "BeaconProxy",
      "contractAddress": "0xae9119aba39399011109819c1a2f9436deae2c4b",
      "function": null,
      "arguments": null,
      "transaction": {
        "from": "0xad70a0ab951780ff3397882fc5372db83deb0606",
        "to": "0xae9119aba39399011109819c1a2f9436deae2c4b",
        "gas": "0x9d1a",
        "value": "0x0",
        "input": "0x60d54d410000000000000000000000006aedb1fcbef33885c1ac6149c3464854f7aa1f01",
        "nonce": "0x151",
        "chainId": "0xa4b1"
      },
      "additionalContracts": [],
      "isFixedGasLimit": false
    },
    {
      "hash": "0x62e0c1cfa018446dca4977eaad4089b40880fe039a2131dbe01c227c98fdd3c9",
      "transactionType": "CALL",
      "contractName": "BeaconProxy",
      "contractAddress": "0xae9119aba39399011109819c1a2f9436deae2c4b",
      "function": null,
      "arguments": null,
      "transaction": {
        "from": "0xad70a0ab951780ff3397882fc5372db83deb0606",
        "to": "0xae9119aba39399011109819c1a2f9436deae2c4b",
        "gas": "0x9d1a",
        "value": "0x0",
        "input": "0x60d54d410000000000000000000000003905f3fa1c85a92eb599e121417072d50aa14d1b",
        "nonce": "0x152",
        "chainId": "0xa4b1"
      },
      "additionalContracts": [],
      "isFixedGasLimit": false
    },
    {
      "hash": "0x9a70aa8f6659993345fd2bb3d8ad5e6f02ee80c94cde6c9dda5ec6a8dea3818e",
      "transactionType": "CALL",
      "contractName": "BeaconProxy",
      "contractAddress": "0xae9119aba39399011109819c1a2f9436deae2c4b",
      "function": null,
      "arguments": null,
      "transaction": {
        "from": "0xad70a0ab951780ff3397882fc5372db83deb0606",
        "to": "0xae9119aba39399011109819c1a2f9436deae2c4b",
        "gas": "0x9d1a",
        "value": "0x0",
        "input": "0x60d54d410000000000000000000000003d8074fddc5bad58dd953408ef3e8c7933811c5c",
        "nonce": "0x153",
        "chainId": "0xa4b1"
      },
      "additionalContracts": [],
      "isFixedGasLimit": false
    }
  ],
  "receipts": [
    {
      "status": "0x1",
      "cumulativeGasUsed": "0xc2616",
      "logs": [
        {
          "address": "0xae9119aba39399011109819c1a2f9436deae2c4b",
          "topics": [
            "0x1cf3b03a6cf19fa2baba4df148e9dcabedea7f8a5c07840e207e5c089be95d3e",
            "0x000000000000000000000000a6e361538c7bf31e152ed6eedf1c0b628d140c2b"
          ],
          "data": "0x",
          "blockHash": "0x98103e5b911a70f92263bd3c38de1c9d3f92ef4678f82d9571f3f6c2a0ee3b32",
          "blockNumber": "0x157b5d6b",
          "transactionHash": "0x2957d5a413783cc838422608d7784a996bd68b2de9756f639c8e8eb7726c6add",
          "transactionIndex": "0x1",
          "logIndex": "0x0",
          "removed": false
        },
        {
          "address": "0x855af8dcd5f38ff9baf47125f8c262d3f96bd1cb",
          "topics": [
            "0x1cf3b03a6cf19fa2baba4df148e9dcabedea7f8a5c07840e207e5c089be95d3e",
            "0x00000000000000000000000076eed0fdc77d62c7a8118678437eeea4091dae5d"
          ],
          "data": "0x",
          "blockHash": "0x98103e5b911a70f92263bd3c38de1c9d3f92ef4678f82d9571f3f6c2a0ee3b32",
          "blockNumber": "0x157b5d6b",
          "transactionHash": "0x2957d5a413783cc838422608d7784a996bd68b2de9756f639c8e8eb7726c6add",
          "transactionIndex": "0x1",
          "logIndex": "0x1",
          "removed": false
        },
        {
          "address": "0x855af8dcd5f38ff9baf47125f8c262d3f96bd1cb",
          "topics": [
            "0x8be0079c531659141344cd1fd0a4f28419497f9722a3daafe3b4186f6b6457e0",
            "0x0000000000000000000000000000000000000000000000000000000000000000",
            "0x000000000000000000000000ad70a0ab951780ff3397882fc5372db83deb0606"
          ],
          "data": "0x",
          "blockHash": "0x98103e5b911a70f92263bd3c38de1c9d3f92ef4678f82d9571f3f6c2a0ee3b32",
          "blockNumber": "0x157b5d6b",
          "transactionHash": "0x2957d5a413783cc838422608d7784a996bd68b2de9756f639c8e8eb7726c6add",
          "transactionIndex": "0x1",
          "logIndex": "0x2",
          "removed": false
        },
        {
          "address": "0x855af8dcd5f38ff9baf47125f8c262d3f96bd1cb",
          "topics": [
            "0xc7f505b2f371ae2175ee4913f4499e1f2633a7b5936321eed1cdaeb6115181d2"
          ],
          "data": "0x0000000000000000000000000000000000000000000000000000000000000001",
          "blockHash": "0x98103e5b911a70f92263bd3c38de1c9d3f92ef4678f82d9571f3f6c2a0ee3b32",
          "blockNumber": "0x157b5d6b",
          "transactionHash": "0x2957d5a413783cc838422608d7784a996bd68b2de9756f639c8e8eb7726c6add",
          "transactionIndex": "0x1",
          "logIndex": "0x3",
          "removed": false
        },
        {
          "address": "0xae9119aba39399011109819c1a2f9436deae2c4b",
          "topics": [
            "0x8be0079c531659141344cd1fd0a4f28419497f9722a3daafe3b4186f6b6457e0",
            "0x0000000000000000000000000000000000000000000000000000000000000000",
            "0x000000000000000000000000ad70a0ab951780ff3397882fc5372db83deb0606"
          ],
          "data": "0x",
          "blockHash": "0x98103e5b911a70f92263bd3c38de1c9d3f92ef4678f82d9571f3f6c2a0ee3b32",
          "blockNumber": "0x157b5d6b",
          "transactionHash": "0x2957d5a413783cc838422608d7784a996bd68b2de9756f639c8e8eb7726c6add",
          "transactionIndex": "0x1",
          "logIndex": "0x4",
          "removed": false
        },
        {
          "address": "0xae9119aba39399011109819c1a2f9436deae2c4b",
          "topics": [
            "0x3f32684a32a11dabdbb8c0177de80aa3ae36a004d75210335b49e544e48cd0aa",
            "0x0000000000000000000000009931d4850a10cc9bccf44a16cfdaf657ccbbc5a1"
          ],
          "data": "0x",
          "blockHash": "0x98103e5b911a70f92263bd3c38de1c9d3f92ef4678f82d9571f3f6c2a0ee3b32",
          "blockNumber": "0x157b5d6b",
          "transactionHash": "0x2957d5a413783cc838422608d7784a996bd68b2de9756f639c8e8eb7726c6add",
          "transactionIndex": "0x1",
          "logIndex": "0x5",
          "removed": false
        },
        {
          "address": "0xae9119aba39399011109819c1a2f9436deae2c4b",
          "topics": [
            "0xc7f505b2f371ae2175ee4913f4499e1f2633a7b5936321eed1cdaeb6115181d2"
          ],
          "data": "0x0000000000000000000000000000000000000000000000000000000000000001",
          "blockHash": "0x98103e5b911a70f92263bd3c38de1c9d3f92ef4678f82d9571f3f6c2a0ee3b32",
          "blockNumber": "0x157b5d6b",
          "transactionHash": "0x2957d5a413783cc838422608d7784a996bd68b2de9756f639c8e8eb7726c6add",
          "transactionIndex": "0x1",
          "logIndex": "0x6",
          "removed": false
        },
        {
          "address": "0x8506934ed8c1154da93610012524b07a972bacca",
          "topics": [
            "0x4488076962388d304d43074c5fd17937d482d4af629cf108b76d54c51c537f27",
            "0x000000000000000000000000ae9119aba39399011109819c1a2f9436deae2c4b",
            "0x000000000000000000000000855af8dcd5f38ff9baf47125f8c262d3f96bd1cb"
          ],
          "data": "0x000000000000000000000000af88d065e77c8cc2239327c5edb3a432268e5831000000000000000000000000000000000000000000000000000000000000004000000000000000000000000000000000000000000000000000000000000000164272617665204c65767661205661756c74205553444300000000000000000000",
          "blockHash": "0x98103e5b911a70f92263bd3c38de1c9d3f92ef4678f82d9571f3f6c2a0ee3b32",
          "blockNumber": "0x157b5d6b",
          "transactionHash": "0x2957d5a413783cc838422608d7784a996bd68b2de9756f639c8e8eb7726c6add",
          "transactionIndex": "0x1",
          "logIndex": "0x7",
          "removed": false
        }
      ],
      "logsBloom": "0x00000000000000000000000000000000000000002000000000800100000000000000000000000000000000000000100000000000000000000100000000002000000200000000000000000000001000000081000000000000000000000000002000000000020000000000000000000800008000000000000004000000100000402000000000004000000800000000080000800000100080000000000000000000000000800000000100000000000800200000080000000000000002000000000000000000001000000000000000440000002100000006000000800004000020000000480000000000000004000000000000000100000000400000000000000000",
      "type": "0x2",
      "transactionHash": "0x2957d5a413783cc838422608d7784a996bd68b2de9756f639c8e8eb7726c6add",
      "transactionIndex": "0x1",
      "blockHash": "0x98103e5b911a70f92263bd3c38de1c9d3f92ef4678f82d9571f3f6c2a0ee3b32",
      "blockNumber": "0x157b5d6b",
      "gasUsed": "0xc2616",
      "effectiveGasPrice": "0x12e75b0",
      "from": "0xad70a0ab951780ff3397882fc5372db83deb0606",
      "to": "0x8506934ed8c1154da93610012524b07a972bacca",
      "contractAddress": null,
      "gasUsedForL1": "0x44e4",
      "l1BlockNumber": "0x15e9353",
      "timeboosted": false
    },
    {
      "status": "0x1",
      "cumulativeGasUsed": "0x1c74a2",
      "logs": [
        {
          "address": "0xae9119aba39399011109819c1a2f9436deae2c4b",
          "topics": [
            "0x409f6c907ebb200fe684297d20d647dad13c254f95ed78ad8178bd4b122bda96",
            "0x000000000000000000000000ad70a0ab951780ff3397882fc5372db83deb0606"
          ],
          "data": "0x0000000000000000000000000000000000000000000000000000000000000001",
          "blockHash": "0x686b40184158e7366b02915e3a7f55ae14d4f95873d5523c021c959ff61ec4b1",
          "blockNumber": "0x157b5d71",
          "transactionHash": "0x76a957aa5edcb82310508db9f9d65cbe4d2d8de341f1751723c2d00ae625b0fd",
          "transactionIndex": "0x3",
          "logIndex": "0x0",
          "removed": false
        }
      ],
      "logsBloom": "0x00000000000000000000000000008000000000000000000000000000000000000000000000000028000000000000000000000000000000000000000000000000000000000000000000000000000000000080000000000000000000000000000000000000000000000000000000000000000000000000000000000000100000000000000000004000000000000000000000000000000000000000000000000000000000000000000000000000000000000000000000000000000002000000000000000000000000000000000000000000000000000000000000000000000000000000080000000000000000000000000000000000000000400000000000000000",
      "type": "0x2",
      "transactionHash": "0x76a957aa5edcb82310508db9f9d65cbe4d2d8de341f1751723c2d00ae625b0fd",
      "transactionIndex": "0x3",
      "blockHash": "0x686b40184158e7366b02915e3a7f55ae14d4f95873d5523c021c959ff61ec4b1",
      "blockNumber": "0x157b5d71",
      "gasUsed": "0xf759",
      "effectiveGasPrice": "0x12cc030",
      "from": "0xad70a0ab951780ff3397882fc5372db83deb0606",
      "to": "0xae9119aba39399011109819c1a2f9436deae2c4b",
      "contractAddress": null,
      "gasUsedForL1": "0x1ea0",
      "l1BlockNumber": "0x15e9353",
      "timeboosted": false
    },
    {
      "status": "0x1",
      "cumulativeGasUsed": "0x2ce9d0",
      "logs": [
        {
          "address": "0xae9119aba39399011109819c1a2f9436deae2c4b",
          "topics": [
            "0xdd57d8d1fbee36c2d6d46d5cdcc7b90ad51be63639fe4142d11c12a0170241a8"
          ],
          "data": "0x0000000000000000000000000000000000000000000000000000000000000000",
          "blockHash": "0x934bf8a526c38985b6dddf99ba018b075c3d0c53be6ddf20fa95b3bff30854f7",
          "blockNumber": "0x157b5d77",
          "transactionHash": "0x7f7196df4469a434a45127bd486ea2f1d3553727b682c0b3b4e8a556e0c69016",
          "transactionIndex": "0x10",
          "logIndex": "0x3d",
          "removed": false
        }
      ],
      "logsBloom": "0x00000000000000000000000000000000000001000000000000000000000000000000000000000000000000000000000000000000000000000000000000000800000000000000000000000000000000000000000000000000000000000000000000000000000000000000000000000000000000000000000000000000100000000000000000004000000000000000000000000000000000000000000000000000000000000000000000000000000000000000000000000000000002000000000000000000000000000000000000000000000000000000000000000000000000000000000000000000000000000000000000000000000000080000000000000000",
      "type": "0x2",
      "transactionHash": "0x7f7196df4469a434a45127bd486ea2f1d3553727b682c0b3b4e8a556e0c69016",
      "transactionIndex": "0x10",
      "blockHash": "0x934bf8a526c38985b6dddf99ba018b075c3d0c53be6ddf20fa95b3bff30854f7",
      "blockNumber": "0x157b5d77",
      "gasUsed": "0xa20a",
      "effectiveGasPrice": "0x12a9d50",
      "from": "0xad70a0ab951780ff3397882fc5372db83deb0606",
      "to": "0xae9119aba39399011109819c1a2f9436deae2c4b",
      "contractAddress": null,
      "gasUsedForL1": "0x191d",
      "l1BlockNumber": "0x15e9353",
      "timeboosted": false
    },
    {
      "status": "0x1",
      "cumulativeGasUsed": "0x116173",
      "logs": [
        {
          "address": "0xae9119aba39399011109819c1a2f9436deae2c4b",
          "topics": [
            "0xea634c1888ae5fc72ebb3ce6846187a750d44cb4be5fa2fca07ae941bc051ca4"
          ],
          "data": "0x000000000000000000000000000000000000000000000000000000000000000f",
          "blockHash": "0xdfd0a75afb657127affd6a52fe60fbcd9c01998d24b49c927f753bbcd66ec81c",
          "blockNumber": "0x157b5d7c",
          "transactionHash": "0x559e68e6340312ad14a0ff03d6d455865fed4068bc4a07d15e0fbb348beee42d",
          "transactionIndex": "0xa",
          "logIndex": "0x11",
          "removed": false
        }
      ],
      "logsBloom": "0x00000000000000000000000000000000000000000000000000000000000000000000000000000000000000000000000000000000000000000000000000000000000000000000000000000000000000000000000000000000000000000000000000000000000000000000000000000000000000000000000000000000100000000000000000004000000000000000000000000000000000000000000000000000000000000000000000000000000000000000000000000000000002000000000000000000000000020000000000000000000000000000000000002000000000000000000000000000000000000000000000000000000000000000000000000800",
      "type": "0x2",
      "transactionHash": "0x559e68e6340312ad14a0ff03d6d455865fed4068bc4a07d15e0fbb348beee42d",
      "transactionIndex": "0xa",
      "blockHash": "0xdfd0a75afb657127affd6a52fe60fbcd9c01998d24b49c927f753bbcd66ec81c",
      "blockNumber": "0x157b5d7c",
      "gasUsed": "0xf6d4",
      "effectiveGasPrice": "0x12d5c70",
      "from": "0xad70a0ab951780ff3397882fc5372db83deb0606",
      "to": "0xae9119aba39399011109819c1a2f9436deae2c4b",
      "contractAddress": null,
      "gasUsedForL1": "0x190d",
      "l1BlockNumber": "0x15e9353",
      "timeboosted": false
    },
    {
      "status": "0x1",
      "cumulativeGasUsed": "0x86643",
      "logs": [
        {
          "address": "0xae9119aba39399011109819c1a2f9436deae2c4b",
          "topics": [
            "0x4d4bb3f72d59781210091ea60a18a0701d933b8eb618f1665620326ee8638018"
          ],
          "data": "0x000000000000000000000000000000000000000000000000000000000000000f",
          "blockHash": "0x9f63f002b2689f0aa46667159c79e173f5a41b5c6f9633bf9c05347febc8f7d8",
          "blockNumber": "0x157b5d82",
          "transactionHash": "0x97bdeaa747db3b89e6d126f81697937e56efc277cf0acdaffefe53056f3ee95c",
          "transactionIndex": "0x3",
          "logIndex": "0x5",
          "removed": false
        }
      ],
      "logsBloom": "0x00000000000000000000000000000000000000000000000000000000000000000000000000000000000000000000000000000000000000000000000000000000000000000000000000000000000000000000000000000800000000000000000000000000000000000000000000000000000000000000000000000000100000000000000000004000000000000000000000000000000000000000000000000000000000000000000000000000000000000000000000000000002002000000000000000000000000000000000000000000000000000000000000000000000000008000000000000000000000000000000000000000000000000000000000000000",
      "type": "0x2",
      "transactionHash": "0x97bdeaa747db3b89e6d126f81697937e56efc277cf0acdaffefe53056f3ee95c",
      "transactionIndex": "0x3",
      "blockHash": "0x9f63f002b2689f0aa46667159c79e173f5a41b5c6f9633bf9c05347febc8f7d8",
      "blockNumber": "0x157b5d82",
      "gasUsed": "0xf78b",
      "effectiveGasPrice": "0x12c1068",
      "from": "0xad70a0ab951780ff3397882fc5372db83deb0606",
      "to": "0xae9119aba39399011109819c1a2f9436deae2c4b",
      "contractAddress": null,
      "gasUsedForL1": "0x1929",
      "l1BlockNumber": "0x15e9353",
      "timeboosted": false
    },
    {
      "status": "0x1",
      "cumulativeGasUsed": "0xae23",
      "logs": [
        {
          "address": "0xae9119aba39399011109819c1a2f9436deae2c4b",
          "topics": [
            "0x68de06997c052c95ccca214435923150597a969801ccc58914eeecae80ebc12d"
          ],
          "data": "0x0000000000000000000000000000000000000000000000000000000000002710",
          "blockHash": "0x4d8c11aee44ad7da29ae63649ae2d97e4cc9d74612d2b51b3209c9d455ba5423",
          "blockNumber": "0x157b5d88",
          "transactionHash": "0x181c802870dd3f8debfeed018aba0104a441eecb3aef65c14af265e4a0e18e50",
          "transactionIndex": "0x1",
          "logIndex": "0x0",
          "removed": false
        }
      ],
      "logsBloom": "0x00000000000000000000000000000000000000001000000000000000000000000000000000000000000000000000000000000000000000000000000000000000000000000000000000000000080000000000000000000000000000000000000000000000000000000000000000000000000000000000000000000000100000000000000000004000000000000000000000000000000000000000000000000000000000000000000000000000000000000000000000000000000002000000000000000000000000000000000080000000000000000000000000000000000000000000000000000000000000000000000000000000000000000000000000000000",
      "type": "0x2",
      "transactionHash": "0x181c802870dd3f8debfeed018aba0104a441eecb3aef65c14af265e4a0e18e50",
      "transactionIndex": "0x1",
      "blockHash": "0x4d8c11aee44ad7da29ae63649ae2d97e4cc9d74612d2b51b3209c9d455ba5423",
      "blockNumber": "0x157b5d88",
      "gasUsed": "0xae23",
      "effectiveGasPrice": "0x12eb430",
      "from": "0xad70a0ab951780ff3397882fc5372db83deb0606",
      "to": "0xae9119aba39399011109819c1a2f9436deae2c4b",
      "contractAddress": null,
      "gasUsedForL1": "0x18c6",
      "l1BlockNumber": "0x15e9353",
      "timeboosted": false
    },
    {
      "status": "0x1",
      "cumulativeGasUsed": "0x14d4bf",
      "logs": [
        {
          "address": "0xae9119aba39399011109819c1a2f9436deae2c4b",
          "topics": [
            "0x8a36e6dcd5d1e60971629c7d720514641a81e1f8931541d03f44fd6f82291492"
          ],
          "data": "0x0000000000000000000000000000000000000000000000000000000000002710",
          "blockHash": "0xdc335d8fa3741653b3880f6189d1ae1e8e53bb114ef9ffa77c22b6e78b610b4f",
          "blockNumber": "0x157b5d8f",
          "transactionHash": "0x2c66bf5d1db439ee9ead92aa5a9494ac29d2e4f3e20f93ea7ae5bb76f1bc2d5b",
          "transactionIndex": "0x7",
          "logIndex": "0xa",
          "removed": false
        }
      ],
      "logsBloom": "0x00000000000000000000000000000000000000000000000000000000200000000000000000000000000000000000000000000000000000000000000000000000000000000000000000000000000000000000000000000000000000000000000000000000000000000000000000000000000000000000000000000000100000000000000000004000000000000000000000000000000000000000000000000000000000000000000000000000000000000000000000000200000002000000000000000000100000000000000000000000000000000000000000000000000000000000000000000000000000000000000000000000000000000000000000000000",
      "type": "0x2",
      "transactionHash": "0x2c66bf5d1db439ee9ead92aa5a9494ac29d2e4f3e20f93ea7ae5bb76f1bc2d5b",
      "transactionIndex": "0x7",
      "blockHash": "0xdc335d8fa3741653b3880f6189d1ae1e8e53bb114ef9ffa77c22b6e78b610b4f",
      "blockNumber": "0x157b5d8f",
      "gasUsed": "0xae71",
      "effectiveGasPrice": "0x12bca18",
      "from": "0xad70a0ab951780ff3397882fc5372db83deb0606",
      "to": "0xae9119aba39399011109819c1a2f9436deae2c4b",
      "contractAddress": null,
      "gasUsedForL1": "0x1904",
      "l1BlockNumber": "0x15e9355",
      "timeboosted": false
    },
    {
      "status": "0x1",
      "cumulativeGasUsed": "0x579be",
      "logs": [
        {
          "address": "0x855af8dcd5f38ff9baf47125f8c262d3f96bd1cb",
          "topics": [
            "0xa9559b884080a9e19fd09db8dc653833caa2fd9557ab70057ef64a51fef7d878",
            "0x000000000000000000000000ad70a0ab951780ff3397882fc5372db83deb0606"
          ],
          "data": "0x0000000000000000000000000000000000000000000000000000000000000001",
          "blockHash": "0xa25ab478d7427b4674daf71643cee3c9d85f83f181975b7c61f252b873f4b8e4",
          "blockNumber": "0x157b5d96",
          "transactionHash": "0x60c50d39b96283d1e51326e5e11f73e91b4e109d6a80af45eb8f49e19e4eadc3",
          "transactionIndex": "0x5",
          "logIndex": "0x6",
          "removed": false
        }
      ],
      "logsBloom": "0x00000000000000000000000000000000000000000000000000000100000000000000002000000000000000000000000000000000000000000000000000000000000000000000000000000000000000000080000000000000000000000000000000000002000000000000000000000000000000000000000004000000000000000000000000000000000000000000000000000000000000000000000000000000000000000000000000000000000800000000000000000000000000000000000000000000000000000000000000000000000000000000000000000000000000000000080000000000008000000000000000000000000000400000000000000000",
      "type": "0x2",
      "transactionHash": "0x60c50d39b96283d1e51326e5e11f73e91b4e109d6a80af45eb8f49e19e4eadc3",
      "transactionIndex": "0x5",
      "blockHash": "0xa25ab478d7427b4674daf71643cee3c9d85f83f181975b7c61f252b873f4b8e4",
      "blockNumber": "0x157b5d96",
      "gasUsed": "0xf868",
      "effectiveGasPrice": "0x12bb690",
      "from": "0xad70a0ab951780ff3397882fc5372db83deb0606",
      "to": "0x855af8dcd5f38ff9baf47125f8c262d3f96bd1cb",
      "contractAddress": null,
      "gasUsedForL1": "0x1ebb",
      "l1BlockNumber": "0x15e9355",
      "timeboosted": false
    },
    {
      "status": "0x1",
      "cumulativeGasUsed": "0x38ab68",
      "logs": [
        {
          "address": "0xae9119aba39399011109819c1a2f9436deae2c4b",
          "topics": [
            "0x5bf90512032b31face99172fdd0ff713670f739af77c985910b93039bf3839fb",
            "0x00000000000000000000000082af49447d8a07e3bd95bd0d56f35241523fbab1",
            "0x0000000000000000000000000000000000000000000000000000000000000001"
          ],
          "data": "0x",
          "blockHash": "0x42028f0c1e08de764d812e56015a619edee276397a64ce6a56e9b141e812d255",
          "blockNumber": "0x157b5d9c",
          "transactionHash": "0x35e723af0d908e46003023b09dc2820c9a6c128e9eb0403ea7944572346a0568",
          "transactionIndex": "0x4",
          "logIndex": "0x2a",
          "removed": false
        }
      ],
      "logsBloom": "0x00000000000000000000000000000000000000000000000000000000000000000000000800000000000000000000000000000000000000000000000000040000000000000000000000000000000000010000000000040000000000000000000000000000000000000000000000000000000000000000000000000000100000200000000000004000000000000000000000000000000000000000000000000000000000000000000000000000000000000000100000000000000002000000000000000000000000000000000000000000000000000000000000000000000040000000000000000000020000000000000000000000000000800000000000000000",
      "type": "0x2",
      "transactionHash": "0x35e723af0d908e46003023b09dc2820c9a6c128e9eb0403ea7944572346a0568",
      "transactionIndex": "0x4",
      "blockHash": "0x42028f0c1e08de764d812e56015a619edee276397a64ce6a56e9b141e812d255",
      "blockNumber": "0x157b5d9c",
      "gasUsed": "0x2c185",
      "effectiveGasPrice": "0x12cc800",
      "from": "0xad70a0ab951780ff3397882fc5372db83deb0606",
      "to": "0xae9119aba39399011109819c1a2f9436deae2c4b",
      "contractAddress": null,
      "gasUsedForL1": "0x1919",
      "l1BlockNumber": "0x15e9355",
      "timeboosted": false
    },
    {
      "status": "0x1",
      "cumulativeGasUsed": "0x2927f",
      "logs": [
        {
          "address": "0xae9119aba39399011109819c1a2f9436deae2c4b",
          "topics": [
            "0x5bf90512032b31face99172fdd0ff713670f739af77c985910b93039bf3839fb",
            "0x0000000000000000000000002f2a2543b76a4166549f7aab2e75bef0aefc5b0f",
            "0x0000000000000000000000000000000000000000000000000000000000000002"
          ],
          "data": "0x",
          "blockHash": "0x565e3273c8d5986a84e4dc433d449325e64881d38c175dbf753b458809d6a53e",
          "blockNumber": "0x157b5da2",
          "transactionHash": "0xafc327e5e776dbf5cbc4fbed860f718ca190aa0fa4c94173c90e8c22511572ae",
          "transactionIndex": "0x1",
          "logIndex": "0x0",
          "removed": false
        }
      ],
      "logsBloom": "0x04000000000000000000000000000000000000000100000000000000000000000000000800000001000000000000000000000000000000000000000000000000000000000000000000000000000000000000000000000000000008000000000000000000000000000000000000000000000000000000000000000000100000200000000000004000000000000000000000000000000000000000000000000000000000000000000000000100000000000000100000000000000002000000000000000000000000000000000000000000000000000000000000000000000000000000000000000000000000000000000000000000008000000000000000000000",
      "type": "0x2",
      "transactionHash": "0xafc327e5e776dbf5cbc4fbed860f718ca190aa0fa4c94173c90e8c22511572ae",
      "transactionIndex": "0x1",
      "blockHash": "0x565e3273c8d5986a84e4dc433d449325e64881d38c175dbf753b458809d6a53e",
      "blockNumber": "0x157b5da2",
      "gasUsed": "0x2927f",
      "effectiveGasPrice": "0x12ca8c0",
      "from": "0xad70a0ab951780ff3397882fc5372db83deb0606",
      "to": "0xae9119aba39399011109819c1a2f9436deae2c4b",
      "contractAddress": null,
      "gasUsedForL1": "0x191c",
      "l1BlockNumber": "0x15e9355",
      "timeboosted": false
    },
    {
      "status": "0x1",
      "cumulativeGasUsed": "0x4d979",
      "logs": [
        {
          "address": "0xae9119aba39399011109819c1a2f9436deae2c4b",
          "topics": [
            "0xe010d4607c87be74896018a7c6ba230e02532b986ba2ee27c1c2174653d68bf0",
            "0xb8d79aff00000000000000000000000000000000000000000000000000000000",
            "0x00000000000000000000000055991bf0bc93811c51fdcd4a62ad9125fa96f3a2"
          ],
          "data": "0x",
          "blockHash": "0xf1a785650360e89d5e387450afef31b874b109cf40ac608bef460b7ab8a1c44a",
          "blockNumber": "0x157b5da8",
          "transactionHash": "0xa9f3502ba8ed86a5274863b6568b8dbe92b2a00cee79edd346c07003c12632e9",
          "transactionIndex": "0x4",
          "logIndex": "0x4",
          "removed": false
        }
      ],
      "logsBloom": "0x00000000000000000000000000000000000000000000000000000000000000000000000000000000000000000000000000000040000000000000000000000000000001000000000000000000000000000000000000000000000000000000000000000000000000000000000000000000000000000000080000000000100000000000000000004000000000000000000000100000000000000000000000000000000000000000000000000000000000000000000000000010000002000000000000000000000000008000001000000000000000000000000000000000000000000040000000000000000000000000000000000000000000008000000000000000",
      "type": "0x2",
      "transactionHash": "0xa9f3502ba8ed86a5274863b6568b8dbe92b2a00cee79edd346c07003c12632e9",
      "transactionIndex": "0x4",
      "blockHash": "0xf1a785650360e89d5e387450afef31b874b109cf40ac608bef460b7ab8a1c44a",
      "blockNumber": "0x157b5da8",
      "gasUsed": "0x105ad",
      "effectiveGasPrice": "0x12cef10",
      "from": "0xad70a0ab951780ff3397882fc5372db83deb0606",
      "to": "0xae9119aba39399011109819c1a2f9436deae2c4b",
      "contractAddress": null,
      "gasUsedForL1": "0x1916",
      "l1BlockNumber": "0x15e9355",
      "timeboosted": false
    },
    {
      "status": "0x1",
      "cumulativeGasUsed": "0x105f3",
      "logs": [
        {
          "address": "0xae9119aba39399011109819c1a2f9436deae2c4b",
          "topics": [
            "0xe010d4607c87be74896018a7c6ba230e02532b986ba2ee27c1c2174653d68bf0",
            "0xdff36b2700000000000000000000000000000000000000000000000000000000",
            "0x000000000000000000000000b528a3d9abe7d775fc21091f0e3e3d11b47852e3"
          ],
          "data": "0x",
          "blockHash": "0x289ece0dd99e6b7f760d7fe853bd142f2af333f1db89c6d7ef329a8f3ee35ea3",
          "blockNumber": "0x157b5dae",
          "transactionHash": "0x60a6f910bae5a19bf4c4de911a4730f4490273cf2d43033bee21e2aee2dfddbf",
          "transactionIndex": "0x1",
          "logIndex": "0x0",
          "removed": false
        }
      ],
      "logsBloom": "0x00000000000000000000000000000000000000000000000000000000000000000000000000000000000000000020000000000800000000000000000000000000000001000000000000000000000000000000000000000020000000000000000000000000000000000000000000000000000000000000080000000000100000000000000000004000000000000000000000000000000000000000000000000000400000000000000000000000000000000000000000000000000002000000000000000000000000000000000000000000000000002000000000000000000000000040000000000000000000000000000000000000000000000008000000000000",
      "type": "0x2",
      "transactionHash": "0x60a6f910bae5a19bf4c4de911a4730f4490273cf2d43033bee21e2aee2dfddbf",
      "transactionIndex": "0x1",
      "blockHash": "0x289ece0dd99e6b7f760d7fe853bd142f2af333f1db89c6d7ef329a8f3ee35ea3",
      "blockNumber": "0x157b5dae",
      "gasUsed": "0x105f3",
      "effectiveGasPrice": "0x128ad38",
      "from": "0xad70a0ab951780ff3397882fc5372db83deb0606",
      "to": "0xae9119aba39399011109819c1a2f9436deae2c4b",
      "contractAddress": null,
      "gasUsedForL1": "0x1972",
      "l1BlockNumber": "0x15e9355",
      "timeboosted": false
    },
    {
      "status": "0x1",
      "cumulativeGasUsed": "0x57f676",
      "logs": [
        {
          "address": "0xae9119aba39399011109819c1a2f9436deae2c4b",
          "topics": [
            "0xe010d4607c87be74896018a7c6ba230e02532b986ba2ee27c1c2174653d68bf0",
            "0x3dc5b39a00000000000000000000000000000000000000000000000000000000",
            "0x0000000000000000000000006aedb1fcbef33885c1ac6149c3464854f7aa1f01"
          ],
          "data": "0x",
          "blockHash": "0xf7fa67ddc6f6762f44dac4de2a7094f7acca060f5c806f70cbbb2e81d3914e73",
          "blockNumber": "0x157b5db3",
          "transactionHash": "0x5c75ad7ec36013febd9235ca47d559358878ce0eaad6a3a9cf9d121838c884a1",
          "transactionIndex": "0x1b",
          "logIndex": "0x43",
          "removed": false
        }
      ],
      "logsBloom": "0x00000000000000000000000000000000000000000000000000000000000000000000000000000000000000000000000000000000000000000000800000000000000001000000000000000100000000000000400000000000000000000000000000000000000000000000000000000000000000000000080000004000100000000000000000004000000010000000000000000000000000000000000000000000000000000000000000000000000000000000000000000004000002000000000000000000000000000000000000000000000000000000000000000000000000000040000000000000000000000000000000000000000000000000000000000000",
      "type": "0x2",
      "transactionHash": "0x5c75ad7ec36013febd9235ca47d559358878ce0eaad6a3a9cf9d121838c884a1",
      "transactionIndex": "0x1b",
      "blockHash": "0xf7fa67ddc6f6762f44dac4de2a7094f7acca060f5c806f70cbbb2e81d3914e73",
      "blockNumber": "0x157b5db3",
      "gasUsed": "0x10620",
      "effectiveGasPrice": "0x128a180",
      "from": "0xad70a0ab951780ff3397882fc5372db83deb0606",
      "to": "0xae9119aba39399011109819c1a2f9436deae2c4b",
      "contractAddress": null,
      "gasUsedForL1": "0x1973",
      "l1BlockNumber": "0x15e9355",
      "timeboosted": false
    },
    {
      "status": "0x1",
      "cumulativeGasUsed": "0x1acdb",
      "logs": [
        {
          "address": "0xae9119aba39399011109819c1a2f9436deae2c4b",
          "topics": [
            "0xe010d4607c87be74896018a7c6ba230e02532b986ba2ee27c1c2174653d68bf0",
            "0x94dfa9d400000000000000000000000000000000000000000000000000000000",
            "0x0000000000000000000000003905f3fa1c85a92eb599e121417072d50aa14d1b"
          ],
          "data": "0x",
          "blockHash": "0x7f5b2646d7535db56a63ed9516b20707d4dc10b7e97c34e53f93f5b9b7a7ca39",
          "blockNumber": "0x157b5db9",
          "transactionHash": "0x62e0c1cfa018446dca4977eaad4089b40880fe039a2131dbe01c227c98fdd3c9",
          "transactionIndex": "0x2",
          "logIndex": "0x1",
          "removed": false
        }
      ],
      "logsBloom": "0x00000000000000000000000000000000000000000000000000200000000000000000000000000000000000000010000000000000000000000000000000000000000001000000000000000000000000000000000000000000000000000002000000000000000000000000080000000400000000200000080000000000100000000000000000004000000000000000000000000000000000000000000000000000000000000000000000000000000000000000000000000000000002000000000000000000000000000000000000000000000000000000000000000000000000000040000000000000000000000000000000000000000000000000000000000000",
      "type": "0x2",
      "transactionHash": "0x62e0c1cfa018446dca4977eaad4089b40880fe039a2131dbe01c227c98fdd3c9",
      "transactionIndex": "0x2",
      "blockHash": "0x7f5b2646d7535db56a63ed9516b20707d4dc10b7e97c34e53f93f5b9b7a7ca39",
      "blockNumber": "0x157b5db9",
      "gasUsed": "0x10638",
      "effectiveGasPrice": "0x12b8f80",
      "from": "0xad70a0ab951780ff3397882fc5372db83deb0606",
      "to": "0xae9119aba39399011109819c1a2f9436deae2c4b",
      "contractAddress": null,
      "gasUsedForL1": "0x1933",
      "l1BlockNumber": "0x15e9355",
      "timeboosted": false
    },
    {
      "status": "0x1",
      "cumulativeGasUsed": "0xbed16",
      "logs": [
        {
          "address": "0xae9119aba39399011109819c1a2f9436deae2c4b",
          "topics": [
            "0xe010d4607c87be74896018a7c6ba230e02532b986ba2ee27c1c2174653d68bf0",
            "0xa2ed350f00000000000000000000000000000000000000000000000000000000",
            "0x0000000000000000000000003d8074fddc5bad58dd953408ef3e8c7933811c5c"
          ],
          "data": "0x",
          "blockHash": "0x26e4161beed66abcd76a8fcd471f4ebcb7be9232bac6d1f9db0a719a3a2ceb34",
          "blockNumber": "0x157b5dbe",
          "transactionHash": "0x9a70aa8f6659993345fd2bb3d8ad5e6f02ee80c94cde6c9dda5ec6a8dea3818e",
          "transactionIndex": "0x6",
          "logIndex": "0x11",
          "removed": false
        }
      ],
      "logsBloom": "0x00000000000000000000000000000000000000000000000000000000000000000000000000000000000000000000000000000000000000000000000000000000000001000000000000000000000000000000000000000001000000000000000000000000002000000000000000000000000000000000080000000000100000000000000000004000000000000000000000000000000000000000000000000000000000000000000000000000000000000000200000000000000002000000000000000000000000100000000000000000000000000000000000000000000000000040000000000000000000000000100000000000000000000000000000000000",
      "type": "0x2",
      "transactionHash": "0x9a70aa8f6659993345fd2bb3d8ad5e6f02ee80c94cde6c9dda5ec6a8dea3818e",
      "transactionIndex": "0x6",
      "blockHash": "0x26e4161beed66abcd76a8fcd471f4ebcb7be9232bac6d1f9db0a719a3a2ceb34",
      "blockNumber": "0x157b5dbe",
      "gasUsed": "0x10618",
      "effectiveGasPrice": "0x1282480",
      "from": "0xad70a0ab951780ff3397882fc5372db83deb0606",
      "to": "0xae9119aba39399011109819c1a2f9436deae2c4b",
      "contractAddress": null,
      "gasUsedForL1": "0x197e",
      "l1BlockNumber": "0x15e9355",
      "timeboosted": false
    }
  ],
  "libraries": [],
  "pending": [],
  "returns": {},
  "timestamp": 1753194596,
  "chain": 42161,
  "commit": "fb4dfe5"
}