{
  "transactions": [
    {
      "hash": "0xa7181b78142e670578843bd6e01295830f1725b68193f3993e99bff50fb148a6",
      "transactionType": "CALL",
      "contractName": null,
      "contractAddress": "0x3e104bb4c3777e1ca3ab25ff5e9c801ff9f99559",
      "function": "deployVault(address,string,string,string,string,address,address)",
      "arguments": [
        "0xA0b86991c6218b36c1d19D4a2e9Eb0cE3606eB48",
        "LevvaTestUSDC",
        "LT-USDC",
        "Withdrawal Voucher LT-USDC",
        "WVLUSDC",
        "0xD20092A19e0488E1283E488e11583B43ba7EA849",
        "0x41761684ACf90bbF7e58e3A7A14d48f778CBB9D5"
      ],
      "transaction": {
        "from": "0x0562f16415fcf6fb5acaf433e4796f8f328b7c7d",
        "to": "0x3e104bb4c3777e1ca3ab25ff5e9c801ff9f99559",
        "gas": "0xf753b",
        "value": "0x0",
        "input": "0x7d2a3e7b000000000000000000000000a0b86991c6218b36c1d19d4a2e9eb0ce3606eb4800000000000000000000000000000000000000000000000000000000000000e00000000000000000000000000000000000000000000000000000000000000120000000000000000000000000000000000000000000000000000000000000016000000000000000000000000000000000000000000000000000000000000001a0000000000000000000000000d20092a19e0488e1283e488e11583b43ba7ea84900000000000000000000000041761684acf90bbf7e58e3a7a14d48f778cbb9d5000000000000000000000000000000000000000000000000000000000000000d4c6576766154657374555344430000000000000000000000000000000000000000000000000000000000000000000000000000000000000000000000000000074c542d5553444300000000000000000000000000000000000000000000000000000000000000000000000000000000000000000000000000000000000000001a5769746864726177616c20566f7563686572204c542d55534443000000000000000000000000000000000000000000000000000000000000000000000000000757564c5553444300000000000000000000000000000000000000000000000000",
        "nonce": "0x29a",
        "chainId": "0x1"
      },
      "additionalContracts": [
        {
          "transactionType": "CREATE",
          "address": "0x5b0cd1f6cb62e8b85b49633ac56b13b9631c68bd",
          "initCode": "0x60a08060405261050d80380380916100178285610292565b833981016040828203126101eb5761002e826102c9565b602083015190926001600160401b0382116101eb57019080601f830112156101eb57815161005b816102dd565b926100696040519485610292565b8184526020840192602083830101116101eb57815f926020809301855e84010152823b15610274577fa3f0ad74e5423aebfd80d3ef4346578335a9a72aeaee59ff6cb3582b35133d5080546001600160a01b0319166001600160a01b038516908117909155604051635c60da1b60e01b8152909190602081600481865afa9081156101f7575f9161023a575b50803b1561021a5750817f1cf3b03a6cf19fa2baba4df148e9dcabedea7f8a5c07840e207e5c089be95d3e5f80a282511561020257602060049260405193848092635c60da1b60e01b82525afa9182156101f7575f926101ae575b505f809161018a945190845af43d156101a6573d9161016e836102dd565b9261017c6040519485610292565b83523d5f602085013e6102f8565b505b6080526040516101b6908161035782396080518160460152f35b6060916102f8565b9291506020833d6020116101ef575b816101ca60209383610292565b810103126101eb575f80916101e161018a956102c9565b9394509150610150565b5f80fd5b3d91506101bd565b6040513d5f823e3d90fd5b505050341561018c5763b398979f60e01b5f5260045ffd5b634c9c8ce360e01b5f9081526001600160a01b0391909116600452602490fd5b90506020813d60201161026c575b8161025560209383610292565b810103126101eb57610266906102c9565b5f6100f5565b3d9150610248565b631933b43b60e21b5f9081526001600160a01b038416600452602490fd5b601f909101601f19168101906001600160401b038211908210176102b557604052565b634e487b7160e01b5f52604160045260245ffd5b51906001600160a01b03821682036101eb57565b6001600160401b0381116102b557601f01601f191660200190565b9061031c575080511561030d57602081519101fd5b63d6bda27560e01b5f5260045ffd5b8151158061034d575b61032d575090565b639996b31560e01b5f9081526001600160a01b0391909116600452602490fd5b50803b1561032556fe60806040527f5c60da1b000000000000000000000000000000000000000000000000000000006080526020608060048173ffffffffffffffffffffffffffffffffffffffff7f0000000000000000000000000000000000000000000000000000000000000000165afa8015610107575f9015610163575060203d602011610100575b7fffffffffffffffffffffffffffffffffffffffffffffffffffffffffffffffe0601f820116608001906080821067ffffffffffffffff8311176100d3576100ce91604052608001610112565b610163565b7f4e487b71000000000000000000000000000000000000000000000000000000005f52604160045260245ffd5b503d610081565b6040513d5f823e3d90fd5b7fffffffffffffffffffffffffffffffffffffffffffffffffffffffffffffff80602091011261015f5760805173ffffffffffffffffffffffffffffffffffffffff8116810361015f5790565b5f80fd5b5f8091368280378136915af43d5f803e1561017c573d5ff35b3d5ffdfea26469706673582212209f25140d40d87fdc1683bb681952a61925d296a39cc4d260a504db9a00fb4acf64736f6c634300081c0033000000000000000000000000ccfbdc4996d45a2304b7f1dbadb140badfd3c53500000000000000000000000000000000000000000000000000000000000000400000000000000000000000000000000000000000000000000000000000000000"
        },
        {
          "transactionType": "CREATE",
          "address": "0xcff5ddc08f55b8008c8f3b9803d44a278e0a4c07",
          "initCode": "0x60a08060405261050d80380380916100178285610292565b833981016040828203126101eb5761002e826102c9565b602083015190926001600160401b0382116101eb57019080601f830112156101eb57815161005b816102dd565b926100696040519485610292565b8184526020840192602083830101116101eb57815f926020809301855e84010152823b15610274577fa3f0ad74e5423aebfd80d3ef4346578335a9a72aeaee59ff6cb3582b35133d5080546001600160a01b0319166001600160a01b038516908117909155604051635c60da1b60e01b8152909190602081600481865afa9081156101f7575f9161023a575b50803b1561021a5750817f1cf3b03a6cf19fa2baba4df148e9dcabedea7f8a5c07840e207e5c089be95d3e5f80a282511561020257602060049260405193848092635c60da1b60e01b82525afa9182156101f7575f926101ae575b505f809161018a945190845af43d156101a6573d9161016e836102dd565b9261017c6040519485610292565b83523d5f602085013e6102f8565b505b6080526040516101b6908161035782396080518160460152f35b6060916102f8565b9291506020833d6020116101ef575b816101ca60209383610292565b810103126101eb575f80916101e161018a956102c9565b9394509150610150565b5f80fd5b3d91506101bd565b6040513d5f823e3d90fd5b505050341561018c5763b398979f60e01b5f5260045ffd5b634c9c8ce360e01b5f9081526001600160a01b0391909116600452602490fd5b90506020813d60201161026c575b8161025560209383610292565b810103126101eb57610266906102c9565b5f6100f5565b3d9150610248565b631933b43b60e21b5f9081526001600160a01b038416600452602490fd5b601f909101601f19168101906001600160401b038211908210176102b557604052565b634e487b7160e01b5f52604160045260245ffd5b51906001600160a01b03821682036101eb57565b6001600160401b0381116102b557601f01601f191660200190565b9061031c575080511561030d57602081519101fd5b63d6bda27560e01b5f5260045ffd5b8151158061034d575b61032d575090565b639996b31560e01b5f9081526001600160a01b0391909116600452602490fd5b50803b1561032556fe60806040527f5c60da1b000000000000000000000000000000000000000000000000000000006080526020608060048173ffffffffffffffffffffffffffffffffffffffff7f0000000000000000000000000000000000000000000000000000000000000000165afa8015610107575f9015610163575060203d602011610100575b7fffffffffffffffffffffffffffffffffffffffffffffffffffffffffffffffe0601f820116608001906080821067ffffffffffffffff8311176100d3576100ce91604052608001610112565b610163565b7f4e487b71000000000000000000000000000000000000000000000000000000005f52604160045260245ffd5b503d610081565b6040513d5f823e3d90fd5b7fffffffffffffffffffffffffffffffffffffffffffffffffffffffffffffff80602091011261015f5760805173ffffffffffffffffffffffffffffffffffffffff8116810361015f5790565b5f80fd5b5f8091368280378136915af43d5f803e1561017c573d5ff35b3d5ffdfea26469706673582212209f25140d40d87fdc1683bb681952a61925d296a39cc4d260a504db9a00fb4acf64736f6c634300081c0033000000000000000000000000085b0fb5ec8ac4559caed9fc50df2c5d6b7b1a7f000000000000000000000000000000000000000000000000000000000000004000000000000000000000000000000000000000000000000000000000000001042016a0d20000000000000000000000000562f16415fcf6fb5acaf433e4796f8f328b7c7d0000000000000000000000005b0cd1f6cb62e8b85b49633ac56b13b9631c68bd000000000000000000000000000000000000000000000000000000000000008000000000000000000000000000000000000000000000000000000000000000c0000000000000000000000000000000000000000000000000000000000000001a5769746864726177616c20566f7563686572204c542d55534443000000000000000000000000000000000000000000000000000000000000000000000000000757564c555344430000000000000000000000000000000000000000000000000000000000000000000000000000000000000000000000000000000000"
        }
      ],
      "isFixedGasLimit": false
    },
    {
      "hash": "0xeeb2c3d325dfb9cb7f6bd2977164d4b893d819badc30a27faef5fd14f5b070f8",
      "transactionType": "CALL",
      "contractName": "BeaconProxy",
      "contractAddress": "0x5b0cd1f6cb62e8b85b49633ac56b13b9631c68bd",
      "function": null,
      "arguments": null,
      "transaction": {
        "from": "0x0562f16415fcf6fb5acaf433e4796f8f328b7c7d",
        "to": "0x5b0cd1f6cb62e8b85b49633ac56b13b9631c68bd",
        "gas": "0x13cf4",
        "value": "0x0",
        "input": "0x04f5d1e20000000000000000000000003a57d60a6866c41365e91b9cabfa66f8dd17f2100000000000000000000000000000000000000000000000000000000000000001",
        "nonce": "0x29b",
        "chainId": "0x1"
      },
      "additionalContracts": [],
      "isFixedGasLimit": false
    },
    {
      "hash": "0xb469f5815003663fd4d1f450d94cc1ca6d1dff99c7827c1d540de013095499fc",
      "transactionType": "CALL",
      "contractName": "BeaconProxy",
      "contractAddress": "0x5b0cd1f6cb62e8b85b49633ac56b13b9631c68bd",
      "function": null,
      "arguments": null,
      "transaction": {
        "from": "0x0562f16415fcf6fb5acaf433e4796f8f328b7c7d",
        "to": "0x5b0cd1f6cb62e8b85b49633ac56b13b9631c68bd",
        "gas": "0x13a13",
        "value": "0x0",
        "input": "0x4e380ab400000000000000000000000000000000000000000000000000000000000003e8",
        "nonce": "0x29c",
        "chainId": "0x1"
      },
      "additionalContracts": [],
      "isFixedGasLimit": false
    },
    {
      "hash": "0x3272e85f86f0cea8860955cab0fc83dc8f8eaca3f2793feaf5248fb12e39f909",
      "transactionType": "CALL",
      "contractName": "BeaconProxy",
      "contractAddress": "0x5b0cd1f6cb62e8b85b49633ac56b13b9631c68bd",
      "function": null,
      "arguments": null,
      "transaction": {
        "from": "0x0562f16415fcf6fb5acaf433e4796f8f328b7c7d",
        "to": "0x5b0cd1f6cb62e8b85b49633ac56b13b9631c68bd",
        "gas": "0xe2a8",
        "value": "0x0",
        "input": "0x0f650923000000000000000000000000000000000000000000000000000000000000000f",
        "nonce": "0x29d",
        "chainId": "0x1"
      },
      "additionalContracts": [],
      "isFixedGasLimit": false
    },
    {
      "hash": "0x2de9cd4efbfe8358c14548b0e9a599506a2e3af493a22a924b5c7628ca06ea76",
      "transactionType": "CALL",
      "contractName": "BeaconProxy",
      "contractAddress": "0x5b0cd1f6cb62e8b85b49633ac56b13b9631c68bd",
      "function": null,
      "arguments": null,
      "transaction": {
        "from": "0x0562f16415fcf6fb5acaf433e4796f8f328b7c7d",
        "to": "0x5b0cd1f6cb62e8b85b49633ac56b13b9631c68bd",
        "gas": "0x1453b",
        "value": "0x0",
        "input": "0x33e75d48000000000000000000000000000000000000000000000000000000000000000f",
        "nonce": "0x29e",
        "chainId": "0x1"
      },
      "additionalContracts": [],
      "isFixedGasLimit": false
    },
    {
      "hash": "0xe04cbf7ec9b4cfbac408dffae75ed5206e91f5351b5ff1fada74dccb943df950",
      "transactionType": "CALL",
      "contractName": "BeaconProxy",
      "contractAddress": "0xcff5ddc08f55b8008c8f3b9803d44a278e0a4c07",
      "function": null,
      "arguments": null,
      "transaction": {
        "from": "0x0562f16415fcf6fb5acaf433e4796f8f328b7c7d",
        "to": "0xcff5ddc08f55b8008c8f3b9803d44a278e0a4c07",
        "gas": "0x12ca9",
        "value": "0x0",
        "input": "0x514d77610000000000000000000000003a57d60a6866c41365e91b9cabfa66f8dd17f2100000000000000000000000000000000000000000000000000000000000000001",
        "nonce": "0x29f",
        "chainId": "0x1"
      },
      "additionalContracts": [],
      "isFixedGasLimit": false
    },
    {
      "hash": "0xbf725fe2d5ffa8741e54dae61eaefa76868d0f5b7254852bce87df9121486c1d",
      "transactionType": "CALL",
      "contractName": null,
      "contractAddress": "0xa0b86991c6218b36c1d19d4a2e9eb0ce3606eb48",
      "function": "approve(address,uint256)",
      "arguments": [
        "0x5b0Cd1F6CB62E8b85B49633aC56B13B9631c68bD",
        "1000000"
      ],
      "transaction": {
        "from": "0x0562f16415fcf6fb5acaf433e4796f8f328b7c7d",
        "to": "0xa0b86991c6218b36c1d19d4a2e9eb0ce3606eb48",
        "gas": "0x12bc3",
        "value": "0x0",
        "input": "0x095ea7b30000000000000000000000005b0cd1f6cb62e8b85b49633ac56b13b9631c68bd00000000000000000000000000000000000000000000000000000000000f4240",
        "nonce": "0x2a0",
        "chainId": "0x1"
      },
      "additionalContracts": [],
      "isFixedGasLimit": false
    },
    {
      "hash": "0x8654aa864ad9ea657ef531ecc042196bd9c7a892be28a243f66b145a81f84dae",
      "transactionType": "CALL",
      "contractName": "BeaconProxy",
      "contractAddress": "0x5b0cd1f6cb62e8b85b49633ac56b13b9631c68bd",
      "function": null,
      "arguments": null,
      "transaction": {
        "from": "0x0562f16415fcf6fb5acaf433e4796f8f328b7c7d",
        "to": "0x5b0cd1f6cb62e8b85b49633ac56b13b9631c68bd",
        "gas": "0x33708",
        "value": "0x0",
        "input": "0x6e553f6500000000000000000000000000000000000000000000000000000000000f42400000000000000000000000001804c8ab1f12e6bbf3894d4083f33e07309d1f38",
        "nonce": "0x2a1",
        "chainId": "0x1"
      },
      "additionalContracts": [],
      "isFixedGasLimit": false
    },
    {
      "hash": "0xbcc2fa3efc7fe2a656aa50d8780e726efca814c42e273c0d4af4f53c2b9fa725",
      "transactionType": "CALL",
      "contractName": "BeaconProxy",
      "contractAddress": "0x5b0cd1f6cb62e8b85b49633ac56b13b9631c68bd",
      "function": null,
      "arguments": null,
      "transaction": {
        "from": "0x0562f16415fcf6fb5acaf433e4796f8f328b7c7d",
        "to": "0x5b0cd1f6cb62e8b85b49633ac56b13b9631c68bd",
        "gas": "0x12bc4",
        "value": "0x0",
        "input": "0xacbbbfea00000000000000000000000000000000000000000000000000000000000f4240",
        "nonce": "0x2a2",
        "chainId": "0x1"
      },
      "additionalContracts": [],
      "isFixedGasLimit": false
    },
    {
      "hash": "0x75403774e5fe38c03f24643ced4a64723a708d9bfd289c69806a9b93292f71a6",
      "transactionType": "CALL",
      "contractName": "BeaconProxy",
      "contractAddress": "0x5b0cd1f6cb62e8b85b49633ac56b13b9631c68bd",
      "function": null,
      "arguments": null,
      "transaction": {
        "from": "0x0562f16415fcf6fb5acaf433e4796f8f328b7c7d",
        "to": "0x5b0cd1f6cb62e8b85b49633ac56b13b9631c68bd",
        "gas": "0x2ae8d",
        "value": "0x0",
        "input": "0x4ef0762e00000000000000000000000098c23e9d8f34fefb1b7bd6a91b7ff122f4e16f5c",
        "nonce": "0x2a3",
        "chainId": "0x1"
      },
      "additionalContracts": [],
      "isFixedGasLimit": false
    },
    {
      "hash": "0xc8d0238505721dd23513e130f4e52106e364573de552e127ed1eca6668113181",
      "transactionType": "CALL",
      "contractName": "BeaconProxy",
      "contractAddress": "0x5b0cd1f6cb62e8b85b49633ac56b13b9631c68bd",
      "function": null,
      "arguments": null,
      "transaction": {
        "from": "0x0562f16415fcf6fb5acaf433e4796f8f328b7c7d",
        "to": "0x5b0cd1f6cb62e8b85b49633ac56b13b9631c68bd",
        "gas": "0x321e4",
        "value": "0x0",
        "input": "0x4ef0762e0000000000000000000000009d39a5de30e57443bff2a8307a4256c8797a3497",
        "nonce": "0x2a4",
        "chainId": "0x1"
      },
      "additionalContracts": [],
      "isFixedGasLimit": false
    },
    {
      "hash": "0xc909702ff2c523514efba84b66ea00a63e2ce21ab446612aea16b7b9544bfe50",
      "transactionType": "CALL",
      "contractName": "BeaconProxy",
      "contractAddress": "0x5b0cd1f6cb62e8b85b49633ac56b13b9631c68bd",
      "function": null,
      "arguments": null,
      "transaction": {
        "from": "0x0562f16415fcf6fb5acaf433e4796f8f328b7c7d",
        "to": "0x5b0cd1f6cb62e8b85b49633ac56b13b9631c68bd",
        "gas": "0x43b45",
        "value": "0x0",
        "input": "0x4ef0762e0000000000000000000000001202f5c7b4b9e47a1a484e8b270be34dbbc75055",
        "nonce": "0x2a5",
        "chainId": "0x1"
      },
      "additionalContracts": [],
      "isFixedGasLimit": false
    },
    {
      "hash": "0xa01e9ad1ac18b10f706dd171a7af882e08c25a4e1b50b1ecaac94ca40eaa35c0",
      "transactionType": "CALL",
      "contractName": "BeaconProxy",
      "contractAddress": "0x5b0cd1f6cb62e8b85b49633ac56b13b9631c68bd",
      "function": null,
      "arguments": null,
      "transaction": {
        "from": "0x0562f16415fcf6fb5acaf433e4796f8f328b7c7d",
        "to": "0x5b0cd1f6cb62e8b85b49633ac56b13b9631c68bd",
        "gas": "0x37e7b",
        "value": "0x0",
        "input": "0x4ef0762e0000000000000000000000007f39c581f595b53c5cb19bd0b3f8da6c935e2ca0",
        "nonce": "0x2a6",
        "chainId": "0x1"
      },
      "additionalContracts": [],
      "isFixedGasLimit": false
    },
    {
      "hash": "0xd437e78a35b06bfbd2aa87649174e91ee87e19f51328d7f14cc58e06cba5a29a",
      "transactionType": "CALL",
      "contractName": "BeaconProxy",
      "contractAddress": "0x5b0cd1f6cb62e8b85b49633ac56b13b9631c68bd",
      "function": null,
      "arguments": null,
      "transaction": {
        "from": "0x0562f16415fcf6fb5acaf433e4796f8f328b7c7d",
        "to": "0x5b0cd1f6cb62e8b85b49633ac56b13b9631c68bd",
        "gas": "0x3b8b1",
        "value": "0x0",
        "input": "0x4ef0762e000000000000000000000000657e8c867d8b37dcc18fa4caead9c45eb088c642",
        "nonce": "0x2a7",
        "chainId": "0x1"
      },
      "additionalContracts": [],
      "isFixedGasLimit": false
    },
    {
      "hash": "0x1404dab35e68f33ea72cf84c86152afa64df4cbbf0f6defe501259a1b3e5fbec",
      "transactionType": "CALL",
      "contractName": "BeaconProxy",
      "contractAddress": "0x5b0cd1f6cb62e8b85b49633ac56b13b9631c68bd",
      "function": null,
      "arguments": null,
      "transaction": {
        "from": "0x0562f16415fcf6fb5acaf433e4796f8f328b7c7d",
        "to": "0x5b0cd1f6cb62e8b85b49633ac56b13b9631c68bd",
        "gas": "0x146c9",
        "value": "0x0",
        "input": "0x60d54d4100000000000000000000000090fc0ede49c68384cb8023c46f9b332104e688a2",
        "nonce": "0x2a8",
        "chainId": "0x1"
      },
      "additionalContracts": [],
      "isFixedGasLimit": false
    },
    {
      "hash": "0x1fa552b39a2eeae972d094c0e0707a7eb8ce2d39b054df88f320702986afebf8",
      "transactionType": "CALL",
      "contractName": "BeaconProxy",
      "contractAddress": "0x5b0cd1f6cb62e8b85b49633ac56b13b9631c68bd",
      "function": null,
      "arguments": null,
      "transaction": {
        "from": "0x0562f16415fcf6fb5acaf433e4796f8f328b7c7d",
        "to": "0x5b0cd1f6cb62e8b85b49633ac56b13b9631c68bd",
        "gas": "0x159e2",
        "value": "0x0",
        "input": "0x60d54d4100000000000000000000000084694814d3d0c1e81c4123db450993d4ed50540a",
        "nonce": "0x2a9",
        "chainId": "0x1"
      },
      "additionalContracts": [],
      "isFixedGasLimit": false
    },
    {
      "hash": "0x1c6c85dc913bf1c08f5afa70b273c892b1a25db8bd40bae718d3856217ba5fe4",
      "transactionType": "CREATE",
      "contractName": "EthenaAdapter",
      "contractAddress": "0x3cfeb73c8f798165abb96bae1c74fdc3ad312091",
      "function": null,
      "arguments": [
        "0x5b0Cd1F6CB62E8b85B49633aC56B13B9631c68bD",
        "0x9D39A5DE30e57443BfF2A8307A4256c8797A3497"
      ],
      "transaction": {
        "from": "0x0562f16415fcf6fb5acaf433e4796f8f328b7c7d",
        "gas": "0x183047",
        "value": "0x0",
        "input": "0x60e08060405234610156576040816116f8803803809161001f828561016d565b83398101031261015657600460206100418161003a856101a4565b94016101a4565b61004a816101b8565b60808190526040516338d52e0f60e01b815292839182906001600160a01b03165afa908115610162575f91610124575b5060a052610087816101b8565b60c05260405161152090816101d882396080518181816101460152818161033701528181610425015281816104d50152818161062a0152818161074401528181610852015281816108f90152610eed015260a0518181816103a6015281816104040152818161059d01528181610d650152610f9f015260c05181818161010901528181610490015281816108bc01528181610a1b0152610e7d0152f35b90506020813d60201161015a575b8161013f6020938361016d565b8101031261015657610150906101a4565b5f61007a565b5f80fd5b3d9150610132565b6040513d5f823e3d90fd5b601f909101601f19168101906001600160401b0382119082101761019057604052565b634e487b7160e01b5f52604160045260245ffd5b51906001600160a01b038216820361015657565b6001600160a01b0316156101c857565b63d92e233d60e01b5f5260045ffdfe6080806040526004361015610012575f80fd5b5f905f3560e01c90816301ffc9a714610a3f575080632075e993146109d15780632def6620146108765780634e575d4b146108075780635ca42c5714610712578063707992cb146106b957806380daddb81461068157806385da00e11461056b5780638a6210cc146104fa5780639343d9e114610449578063b6b55f25146103ca578063d16095021461035b578063db006a75146102fd578063ecd658b4146102375763efaf9086146100c3575f80fd5b346102345760207ffffffffffffffffffffffffffffffffffffffffffffffffffffffffffffffffc3601126102345773ffffffffffffffffffffffffffffffffffffffff7f000000000000000000000000000000000000000000000000000000000000000016330361020c5773ffffffffffffffffffffffffffffffffffffffff7f000000000000000000000000000000000000000000000000000000000000000016906040517f70a08231000000000000000000000000000000000000000000000000000000008152336004820152602081602481865afa91821561020057916101c9575b60206101c1846101bb60043586610c24565b90611314565b604051908152f35b90506020813d6020116101f8575b816101e460209383610bb6565b810103126101f4575160206101a9565b5f80fd5b3d91506101d7565b604051903d90823e3d90fd5b807f2c1a75e20000000000000000000000000000000000000000000000000000000060049252fd5b80fd5b503461023457807ffffffffffffffffffffffffffffffffffffffffffffffffffffffffffffffffc36011261023457604051818192506040820190604083526060518092526060830191608090825b8181106102ce57505050828203602084015260206060519283815201916080915b8181106102b5575050500390f35b82518452859450602093840193909201916001016102a7565b825173ffffffffffffffffffffffffffffffffffffffff16855286955060209485019490920191600101610286565b50346102345760207ffffffffffffffffffffffffffffffffffffffffffffffffffffffffffffffffc3601126102345760206101c16004357f0000000000000000000000000000000000000000000000000000000000000000610c5e565b503461023457807ffffffffffffffffffffffffffffffffffffffffffffffffffffffffffffffffc36011261023457602060405173ffffffffffffffffffffffffffffffffffffffff7f0000000000000000000000000000000000000000000000000000000000000000168152f35b50346102345760207ffffffffffffffffffffffffffffffffffffffffffffffffffffffffffffffffc3601126102345760206101c16004357f00000000000000000000000000000000000000000000000000000000000000007f000000000000000000000000000000000000000000000000000000000000000061107f565b50346102345760207ffffffffffffffffffffffffffffffffffffffffffffffffffffffffffffffffc3601126102345773ffffffffffffffffffffffffffffffffffffffff7f000000000000000000000000000000000000000000000000000000000000000016330361020c5760206101c160043573ffffffffffffffffffffffffffffffffffffffff7f000000000000000000000000000000000000000000000000000000000000000016611314565b50346102345760207ffffffffffffffffffffffffffffffffffffffffffffffffffffffffffffffffc3601126102345760043573ffffffffffffffffffffffffffffffffffffffff811681036105675761055390610e5f565b9061056360405192839283610b2e565b0390f35b5080fd5b50346102345760207ffffffffffffffffffffffffffffffffffffffffffffffffffffffffffffffffc360112610234577f0000000000000000000000000000000000000000000000000000000000000000906040517f70a0823100000000000000000000000000000000000000000000000000000000815233600482015260208160248173ffffffffffffffffffffffffffffffffffffffff87165afa918215610200579161064e575b60206101c18461062760043586610c24565b907f000000000000000000000000000000000000000000000000000000000000000061107f565b90506020813d602011610679575b8161066960209383610bb6565b810103126101f457516020610615565b3d915061065c565b503461023457807ffffffffffffffffffffffffffffffffffffffffffffffffffffffffffffffffc3601126102345761055333610e5f565b503461023457807ffffffffffffffffffffffffffffffffffffffffffffffffffffffffffffffffc3601126102345760206040517fc40aa19b000000000000000000000000000000000000000000000000000000008152f35b50346102345760207ffffffffffffffffffffffffffffffffffffffffffffffffffffffffffffffffc360112610234577f0000000000000000000000000000000000000000000000000000000000000000906040517f70a0823100000000000000000000000000000000000000000000000000000000815233600482015260208160248173ffffffffffffffffffffffffffffffffffffffff87165afa91821561020057916107d4575b60206101c1846107ce60043586610c24565b90610c5e565b90506020813d6020116107ff575b816107ef60209383610bb6565b810103126101f4575160206107bc565b3d91506107e2565b503461023457807ffffffffffffffffffffffffffffffffffffffffffffffffffffffffffffffffc36011261023457602060405173ffffffffffffffffffffffffffffffffffffffff7f0000000000000000000000000000000000000000000000000000000000000000168152f35b50346101f4575f7ffffffffffffffffffffffffffffffffffffffffffffffffffffffffffffffffc3601126101f45773ffffffffffffffffffffffffffffffffffffffff7f00000000000000000000000000000000000000000000000000000000000000001633036109a95773ffffffffffffffffffffffffffffffffffffffff7f000000000000000000000000000000000000000000000000000000000000000016803b156101f4575f80916024604051809481937ff2888dbb0000000000000000000000000000000000000000000000000000000083523360048401525af1801561099e5761098b575b50337f0a98265d1ae33620958293d03d0a8570911dda8c085652b435d8700fe3880beb8280a280f35b61099791505f90610bb6565b5f5f610962565b6040513d5f823e3d90fd5b7f2c1a75e2000000000000000000000000000000000000000000000000000000005f5260045ffd5b346101f4575f7ffffffffffffffffffffffffffffffffffffffffffffffffffffffffffffffffc3601126101f457602060405173ffffffffffffffffffffffffffffffffffffffff7f0000000000000000000000000000000000000000000000000000000000000000168152f35b346101f45760207ffffffffffffffffffffffffffffffffffffffffffffffffffffffffffffffffc3601126101f457600435907fffffffff0000000000000000000000000000000000000000000000000000000082168092036101f457817f6c0c850c0000000000000000000000000000000000000000000000000000000060209314908115610ad1575b5015158152f35b7f707992cb00000000000000000000000000000000000000000000000000000000811491508115610b04575b5083610aca565b7f01ffc9a70000000000000000000000000000000000000000000000000000000091501483610afd565b604081016040825282518091526020606083019301905f5b818110610b8a575050506020818303910152602080835192838152019201905f5b818110610b745750505090565b8251845260209384019390920191600101610b67565b825173ffffffffffffffffffffffffffffffffffffffff16855260209485019490920191600101610b46565b90601f7fffffffffffffffffffffffffffffffffffffffffffffffffffffffffffffffe0910116810190811067ffffffffffffffff821117610bf757604052565b7f4e487b71000000000000000000000000000000000000000000000000000000005f52604160045260245ffd5b91908203918211610c3157565b7f4e487b71000000000000000000000000000000000000000000000000000000005f52601160045260245ffd5b9190333b156101f4576040517f19eacfeb00000000000000000000000000000000000000000000000000000000815230600482015273ffffffffffffffffffffffffffffffffffffffff84166024820152604481018290525f90818160648183335af1801561099e57610e12575b50604051907fba0876520000000000000000000000000000000000000000000000000000000082528260048301523360248301523060448301526020826064818473ffffffffffffffffffffffffffffffffffffffff8a165af19081156102005790610dc0575b7f5380cf97d8f645d3c4896da60c053458dca03a3a31cec642ac80e1ddf0d8d02a91508094610dbb60405192839233967f000000000000000000000000000000000000000000000000000000000000000091859094939273ffffffffffffffffffffffffffffffffffffffff9060609382608085019816845260208401521660408201520152565b0390a2565b506020813d602011610e0a575b81610dda60209383610bb6565b810103126101f4577f5380cf97d8f645d3c4896da60c053458dca03a3a31cec642ac80e1ddf0d8d02a9051610d33565b3d9150610dcd565b610e1e91505f90610bb6565b5f5f610ccc565b805115610e325760200190565b7f4e487b71000000000000000000000000000000000000000000000000000000005f52603260045260245ffd5b60609160609173ffffffffffffffffffffffffffffffffffffffff807f000000000000000000000000000000000000000000000000000000000000000016911603611076576040517f01320fe200000000000000000000000000000000000000000000000000000000815230600482015260408160248173ffffffffffffffffffffffffffffffffffffffff7f0000000000000000000000000000000000000000000000000000000000000000165afa90811561099e575f91610fe3575b506020015172ffffffffffffffffffffffffffffffffffffff1680610f3f5750565b6040805194509250610f518385610bb6565b600184527fffffffffffffffffffffffffffffffffffffffffffffffffffffffffffffffe0830180366020870137610f8885610e25565b73ffffffffffffffffffffffffffffffffffffffff7f0000000000000000000000000000000000000000000000000000000000000000169052610fcd84519485610bb6565b60018452366020850137610fe083610e25565b52565b90506040813d60401161106e575b81610ffe60409383610bb6565b810103126101f457604051906040820182811067ffffffffffffffff821117610bf7576040528051906cffffffffffffffffffffffffff821682036101f4576020918352015172ffffffffffffffffffffffffffffffffffffff811681036101f457602080830191909152610f1d565b3d9150610ff1565b60609250829150565b929192333b156101f4576040517f19eacfeb00000000000000000000000000000000000000000000000000000000815230600482015273ffffffffffffffffffffffffffffffffffffffff83166024820152604481018590525f9490858160648183335af1801561099e576112ff575b5084602073ffffffffffffffffffffffffffffffffffffffff851660405190828201917f095ea7b3000000000000000000000000000000000000000000000000000000008352838573ffffffffffffffffffffffffffffffffffffffff8916948560248501528860448501526044845261116a606485610bb6565b83519082865af185513d826112e3575b505015611287575b50506044604051809481937f6e553f650000000000000000000000000000000000000000000000000000000083528760048401523360248401525af19586156102005795611231575b50907f5380cf97d8f645d3c4896da60c053458dca03a3a31cec642ac80e1ddf0d8d02a91610dbb866040519384933397859094939273ffffffffffffffffffffffffffffffffffffffff9060609382608085019816845260208401521660408201520152565b919094506020823d60201161127f575b8161124e60209383610bb6565b810103126101f4579051937f5380cf97d8f645d3c4896da60c053458dca03a3a31cec642ac80e1ddf0d8d02a6111cb565b3d9150611241565b6112dc916112d76040517f095ea7b30000000000000000000000000000000000000000000000000000000087820152856024820152876044820152604481526112d1606482610bb6565b82611463565b611463565b5f80611182565b9091506112f75750813b15155b5f8061117a565b6001146112f0565b61130c9195505f90610bb6565b5f935f6110ef565b73ffffffffffffffffffffffffffffffffffffffff169190333b156101f4576040517f19eacfeb00000000000000000000000000000000000000000000000000000000815230600482015273ffffffffffffffffffffffffffffffffffffffff84166024820152604481018290525f9390848160648183335af1801561099e5761144e575b50602084916024604051809481937f9343d9e10000000000000000000000000000000000000000000000000000000083528760048401525af1938415610200579361141a575b508260405191825260208201524260408201527f733cd4262b92e9f17ff285d9d9fcc5e90806d1cb6f71f7bc0752b8ba80cae54560603392a2565b9092506020813d602011611446575b8161143660209383610bb6565b810103126101f45751915f6113df565b3d9150611429565b602094505f61145c91610bb6565b5f93611399565b905f602091828151910182855af11561099e575f513d6114e1575073ffffffffffffffffffffffffffffffffffffffff81163b155b61149f5750565b73ffffffffffffffffffffffffffffffffffffffff907f5274afe7000000000000000000000000000000000000000000000000000000005f521660045260245ffd5b6001141561149856fea2646970667358221220f24e9cd79a18df58ecc5a891013db9050d8e300f6e5486a8154a0dbd135f4dcc64736f6c634300081c00330000000000000000000000005b0cd1f6cb62e8b85b49633ac56b13b9631c68bd0000000000000000000000009d39a5de30e57443bff2a8307a4256c8797a3497",
        "nonce": "0x2aa",
        "chainId": "0x1"
      },
      "additionalContracts": [],
      "isFixedGasLimit": false
    },
    {
      "hash": "0x5d16ac990806665e38789a6af08e87211f3e664f1a11486c85c5096d54726ba0",
      "transactionType": "CALL",
      "contractName": "BeaconProxy",
      "contractAddress": "0x5b0cd1f6cb62e8b85b49633ac56b13b9631c68bd",
      "function": null,
      "arguments": null,
      "transaction": {
        "from": "0x0562f16415fcf6fb5acaf433e4796f8f328b7c7d",
        "to": "0x5b0cd1f6cb62e8b85b49633ac56b13b9631c68bd",
        "gas": "0x2c353",
        "value": "0x0",
        "input": "0x60d54d410000000000000000000000003cfeb73c8f798165abb96bae1c74fdc3ad312091",
        "nonce": "0x2ab",
        "chainId": "0x1"
      },
      "additionalContracts": [],
      "isFixedGasLimit": false
    },
    {
      "hash": "0x19c6634786a0035253ee9b0694705c6d2d7d76760377654c62baabbe1b412c42",
      "transactionType": "CALL",
      "contractName": "BeaconProxy",
      "contractAddress": "0x5b0cd1f6cb62e8b85b49633ac56b13b9631c68bd",
      "function": null,
      "arguments": null,
      "transaction": {
        "from": "0x0562f16415fcf6fb5acaf433e4796f8f328b7c7d",
        "to": "0x5b0cd1f6cb62e8b85b49633ac56b13b9631c68bd",
        "gas": "0x15a07",
        "value": "0x0",
        "input": "0x60d54d41000000000000000000000000335fae6c17f35981dc45bff302b3187609d489bb",
        "nonce": "0x2ac",
        "chainId": "0x1"
      },
      "additionalContracts": [],
      "isFixedGasLimit": false
    },
    {
      "hash": "0x71587c0c58ca2c405f1c0276fa6f8c29d933d008118e328e4442db1de4615094",
      "transactionType": "CALL",
      "contractName": "BeaconProxy",
      "contractAddress": "0x5b0cd1f6cb62e8b85b49633ac56b13b9631c68bd",
      "function": null,
      "arguments": null,
      "transaction": {
        "from": "0x0562f16415fcf6fb5acaf433e4796f8f328b7c7d",
        "to": "0x5b0cd1f6cb62e8b85b49633ac56b13b9631c68bd",
        "gas": "0x28b5f",
        "value": "0x0",
        "input": "0x60d54d410000000000000000000000000cc32a96a1d00711479724b5af28d8b4f0e5c757",
        "nonce": "0x2ad",
        "chainId": "0x1"
      },
      "additionalContracts": [],
      "isFixedGasLimit": false
    },
    {
      "hash": "0xd78877b25bd901fb7d2b3ecf86123d16bee050f905bf5eccf7e5f19c70d02052",
      "transactionType": "CREATE",
      "contractName": "LevvaPoolAdapter",
      "contractAddress": "0x10cc5ed26dee943995c2e8505b69a1ad0c144696",
      "function": null,
      "arguments": [
        "0x5b0Cd1F6CB62E8b85B49633aC56B13B9631c68bD"
      ],
      "transaction": {
        "from": "0x0562f16415fcf6fb5acaf433e4796f8f328b7c7d",
        "gas": "0x42f381",
        "value": "0x0",
        "input": "0x60a034608157601f613d2838819003918201601f19168301916001600160401b03831184841017608557808492602094604052833981010312608157516001600160a01b03811680820360815715607257608052604051613c8e908161009a82396080518181816107df0152611ed10152f35b63d92e233d60e01b5f5260045ffd5b5f80fd5b634e487b7160e01b5f52604160045260245ffdfe6080806040526004361015610012575f80fd5b5f905f3560e01c90816301ffc9a71461154a575080631f975b69146113b85780633d1ab38f14611174578063505b94c814610fb5578063673a2a1f14610efa57806369328dec14610c385780636ff1c9bc14610bf057806370422f8b14610b25578063707992cb14610acc57806380daddb81461082c57806386303a7d146108035780638d928af8146107945780639199cba514610731578063e4b0b06f1461039b5763ecd658b4146100c3575f80fd5b3461039857807ffffffffffffffffffffffffffffffffffffffffffffffffffffffffffffffffc360112610398578054906100fd82611e14565b9061010783611e14565b92815b81811061012757505050610123604051928392836117f6565b0390f35b73ffffffffffffffffffffffffffffffffffffffff61014582611e63565b90549060031b1c16604051907f55f57510000000000000000000000000000000000000000000000000000000008252306004830152608082602481845afa91821561038d57859261035d575b50815160048110156103305760030361026e576040517f217a4b70000000000000000000000000000000000000000000000000000000008152602081600481855afa908115610263576102196102239360019695936060938a91610235575b5073ffffffffffffffffffffffffffffffffffffffff610210888d611ea6565b911690526130e2565b91015190516136f6565b61022d8288611ea6565b525b0161010a565b610256915060203d811161025c575b61024e818361188d565b8101906118db565b5f6101f0565b503d610244565b6040513d88823e3d90fd5b815160048110156103305760021461028b575b505060019061022f565b6040517fc55dae63000000000000000000000000000000000000000000000000000000008152602081600481855afa908115610263576102196103009360019695936040938a91610312575b5073ffffffffffffffffffffffffffffffffffffffff6102f7888d611ea6565b91169052612ee3565b61030a8288611ea6565b52905f610281565b61032a915060203d811161025c5761024e818361188d565b5f6102d7565b6024867f4e487b710000000000000000000000000000000000000000000000000000000081526021600452fd5b61037f91925060803d8111610386575b610377818361188d565b810190611907565b905f610191565b503d61036d565b6040513d87823e3d90fd5b80fd5b5034610398576103aa366116c0565b9180916103b5611eba565b85916105a6575b73ffffffffffffffffffffffffffffffffffffffff851693843b156105a2576040517f40e27c90000000000000000000000000000000000000000000000000000000008152908792600a6004840152836024840152836044840152606483015284151560848301528260a483015260c4820152818160e48183895af1801561056a57610551575b50506040519183337fef48728d3f16eb8269f2b38f2692a4dca42f1171f1c2ac2945158f1f569ef0f88880a3610477578480f35b73ffffffffffffffffffffffffffffffffffffffff16927f70a08231000000000000000000000000000000000000000000000000000000008252306004830152602082602481875afa91821561038d578592610517575b506104e3906104de833387612022565b612089565b6040519081527f8ad6254f98a805542f97d81dba79901cf70acd7f8ffe764065063709619fef0760203392a45f8080808480f35b9091506020813d602011610549575b816105336020938361188d565b810103126105455751906104e36104ce565b5f80fd5b3d9150610526565b8161055b9161188d565b61056657845f610443565b8480fd5b6040513d84823e3d90fd5b7f4e487b71000000000000000000000000000000000000000000000000000000005f52602160045260245ffd5b8680fd5b905073ffffffffffffffffffffffffffffffffffffffff84166040517f55f57510000000000000000000000000000000000000000000000000000000008152306004820152608081602481855afa908115610726578791610707575b505160048110156106da5760049160209160030361067b57604051928380927f217a4b700000000000000000000000000000000000000000000000000000000082525afa90811561026357869161065c575b505b906103bc565b610675915060203d60201161025c5761024e818361188d565b5f610654565b604051928380927fc55dae630000000000000000000000000000000000000000000000000000000082525afa9081156102635786916106bb575b50610656565b6106d4915060203d60201161025c5761024e818361188d565b5f6106b5565b6024877f4e487b710000000000000000000000000000000000000000000000000000000081526021600452fd5b610720915060803d60801161038657610377818361188d565b5f610602565b6040513d89823e3d90fd5b50346103985760207ffffffffffffffffffffffffffffffffffffffffffffffffffffffffffffffffc36011261039857604060209173ffffffffffffffffffffffffffffffffffffffff610783611637565b168152600183522054604051908152f35b503461039857807ffffffffffffffffffffffffffffffffffffffffffffffffffffffffffffffffc36011261039857602060405173ffffffffffffffffffffffffffffffffffffffff7f0000000000000000000000000000000000000000000000000000000000000000168152f35b5034610398576108296108153661176b565b95610824959195949294611eba565b612266565b80f35b503461039857807ffffffffffffffffffffffffffffffffffffffffffffffffffffffffffffffffc3601126103985780549061086782611e14565b9061087183611e14565b92815b81811061088d57505050610123604051928392836117f6565b73ffffffffffffffffffffffffffffffffffffffff6108ab82611e63565b90549060031b1c16604051907f55f57510000000000000000000000000000000000000000000000000000000008252306004830152608082602481845afa91821561038d578592610aac575b5081516004811015610330576002148015610aa0575b156109da576040517f217a4b70000000000000000000000000000000000000000000000000000000008152602081600481855afa9081156102635786916109bc575b5073ffffffffffffffffffffffffffffffffffffffff61096f8589611ea6565b911690528151600481101561033057916109a191600260019594145f146109b35760606040830151925b015190612ba5565b6109ab8288611ea6565b525b01610874565b60608792610999565b6109d4915060203d811161025c5761024e818361188d565b5f61094f565b6040517fc55dae63000000000000000000000000000000000000000000000000000000008152602081600481855afa908115610263578691610a82575b5073ffffffffffffffffffffffffffffffffffffffff610a378589611ea6565b91169052815160048110156103305791610a6991600360019594145f14610a795760406060830151925b015190612799565b610a738288611ea6565b526109ad565b60408792610a61565b610a9a915060203d811161025c5761024e818361188d565b5f610a17565b5060408201511561090d565b610ac591925060803d811161038657610377818361188d565b905f6108f7565b503461039857807ffffffffffffffffffffffffffffffffffffffffffffffffffffffffffffffffc3601126103985760206040517f1543aa70000000000000000000000000000000000000000000000000000000008152f35b503461039857610b343661176b565b9495610b44949194939293611eba565b6040517f70a0823100000000000000000000000000000000000000000000000000000000815233600482015260208160248173ffffffffffffffffffffffffffffffffffffffff86165afa908115610be5578991610bb1575b5061082997610bab91611dc2565b90612266565b90506020813d602011610bdd575b81610bcc6020938361188d565b810103126105455751610829610b9d565b3d9150610bbf565b6040513d8b823e3d90fd5b50346103985760207ffffffffffffffffffffffffffffffffffffffffffffffffffffffffffffffffc36011261039857610829610c2b611637565b610c33611eba565b61196c565b50346103985760607ffffffffffffffffffffffffffffffffffffffffffffffffffffffffffffffffc36011261039857610c70611637565b6044359073ffffffffffffffffffffffffffffffffffffffff8216808303610ec757610c9a611eba565b604051917f217a4b70000000000000000000000000000000000000000000000000000000008352602083600481855afa90811561038d5773ffffffffffffffffffffffffffffffffffffffff938692610ed7575b50831692168203610ecf578360035b823b15610ecb57610d38604051917f40e27c9000000000000000000000000000000000000000000000000000000000835260048301906118ce565b60243560248201528160448201528160648201528160848201528160a48201528160c4820152818160e48183875af1801561056a57610eb2575b5050604051927f70a08231000000000000000000000000000000000000000000000000000000008452306004850152602084602481865afa93841561038d578594610e7e575b50610dc4843385612022565b6040517f55f57510000000000000000000000000000000000000000000000000000000008152306004820152608081602481865afa908115610263578691610e5f575b50516004811015610330576020955015610e50575b506040518381527f8ad6254f98a805542f97d81dba79901cf70acd7f8ffe764065063709619fef07853392a4604051908152f35b610e5990612089565b5f610e1c565b610e78915060803d60801161038657610377818361188d565b5f610e07565b9093506020813d602011610eaa575b81610e9a6020938361188d565b810103126105455751925f610db8565b3d9150610e8d565b81610ebc9161188d565b610ec757835f610d72565b8380fd5b5080fd5b836002610cfd565b84919250610ef39060203d60201161025c5761024e818361188d565b9190610cee565b503461039857807ffffffffffffffffffffffffffffffffffffffffffffffffffffffffffffffffc360112610398576040518091602081549283815201918180527f290decd9548b62a8d60345a988386fc84ba6bc95484008f6362f93160ef3e563915b818110610f895761012385610f758187038261188d565b604051918291602083526020830190611722565b825473ffffffffffffffffffffffffffffffffffffffff16845260209093019260019283019201610f5e565b50346103985773ffffffffffffffffffffffffffffffffffffffff610fd93661165a565b94909291610fe5611eba565b1693843b15611170576040517f40e27c90000000000000000000000000000000000000000000000000000000008152918693600560048501528560248501528460448501526064840152151560848301528260a483015260c4820152818160e48183885af1801561056a57611157575b50506040517f217a4b70000000000000000000000000000000000000000000000000000000008152602081600481865afa90811561114c57849161112d575b50604051907f38d52e0f000000000000000000000000000000000000000000000000000000008252602082600481335afa90811561038d576110dd92869261110c575b50611f21565b6040519081527ffd2c0f01ceb1ba5c1e0b048f9de2ef18b1d9b8c5b03b61894fb95cfa25a968ca60203392a380f35b61112691925060203d60201161025c5761024e818361188d565b905f6110d7565b611146915060203d60201161025c5761024e818361188d565b5f611094565b6040513d86823e3d90fd5b816111619161188d565b61116c57825f611055565b8280fd5b8580fd5b503461039857611183366116c0565b91809161118e611eba565b8591611265575b73ffffffffffffffffffffffffffffffffffffffff851693843b156105a2576040517f40e27c9000000000000000000000000000000000000000000000000000000000815290879260066004840152836024840152836044840152606483015284151560848301528260a483015260c4820152818160e48183895af1801561056a57611250575b50506040519183337f945b776a1f011bcafb16cc8d51c62ed41027356ea15c57a7d0b96097b2b4a1338880a3610477578480f35b8161125a9161188d565b61056657845f61121c565b905073ffffffffffffffffffffffffffffffffffffffff84166040517f55f57510000000000000000000000000000000000000000000000000000000008152306004820152608081602481855afa908115610726578791611399575b505160048110156106da5760049160209160030361133a57604051928380927fc55dae630000000000000000000000000000000000000000000000000000000082525afa90811561026357869161131b575b505b90611195565b611334915060203d60201161025c5761024e818361188d565b5f611313565b604051928380927f217a4b700000000000000000000000000000000000000000000000000000000082525afa90811561026357869161137a575b50611315565b611393915060203d60201161025c5761024e818361188d565b5f611374565b6113b2915060803d60801161038657610377818361188d565b5f6112c1565b50346105455773ffffffffffffffffffffffffffffffffffffffff6113dc3661165a565b916113e995919395611eba565b1693843b15610545576040517f40e27c90000000000000000000000000000000000000000000000000000000008152926004808501528460248501525f60448501526064840152151560848301525f60a483015260c48201525f8160e48183875af1801561153f5761152a575b506040517fc55dae63000000000000000000000000000000000000000000000000000000008152602081600481865afa90811561114c57849161150b575b50604051907f38d52e0f000000000000000000000000000000000000000000000000000000008252602082600481335afa90811561038d576114dc92869261110c5750611f21565b6040519081527fd736cbff6a787e902c25e69f57a71d178354a5d03fc8bf14afb6fa0e617d976460203392a380f35b611524915060203d60201161025c5761024e818361188d565b5f611494565b6115379193505f9061188d565b5f915f611456565b6040513d5f823e3d90fd5b346105455760207ffffffffffffffffffffffffffffffffffffffffffffffffffffffffffffffffc36011261054557600435907fffffffff00000000000000000000000000000000000000000000000000000000821680920361054557817f707992cb000000000000000000000000000000000000000000000000000000006020931490811561160d575b81156115e3575b5015158152f35b7f6c0c850c00000000000000000000000000000000000000000000000000000000915014836115dc565b7f01ffc9a700000000000000000000000000000000000000000000000000000000811491506115d5565b6004359073ffffffffffffffffffffffffffffffffffffffff8216820361054557565b7ffffffffffffffffffffffffffffffffffffffffffffffffffffffffffffffffc60a091011261054557600435906024358015158103610545579060443573ffffffffffffffffffffffffffffffffffffffff8116810361054557906064359060843590565b7ffffffffffffffffffffffffffffffffffffffffffffffffffffffffffffffffc60809101126105455760043573ffffffffffffffffffffffffffffffffffffffff811681036105455790602435801515810361054557906044359060643590565b90602080835192838152019201905f5b81811061173f5750505090565b825173ffffffffffffffffffffffffffffffffffffffff16845260209384019390920191600101611732565b7ffffffffffffffffffffffffffffffffffffffffffffffffffffffffffffffffc60e09101126105455760043573ffffffffffffffffffffffffffffffffffffffff81168103610545579060243590604435906064358015158103610545579060843573ffffffffffffffffffffffffffffffffffffffff81168103610545579060a4359060c43590565b9061180990604083526040830190611722565b906020818303910152602080835192838152019201905f5b81811061182e5750505090565b8251845260209384019390920191600101611821565b6020810190811067ffffffffffffffff82111761186057604052565b7f4e487b71000000000000000000000000000000000000000000000000000000005f52604160045260245ffd5b90601f7fffffffffffffffffffffffffffffffffffffffffffffffffffffffffffffffe0910116810190811067ffffffffffffffff82111761186057604052565b90600b8210156105755752565b90816020910312610545575173ffffffffffffffffffffffffffffffffffffffff811681036105455790565b9081608091031261054557604051906080820182811067ffffffffffffffff821117611860576040528051600481101561054557825260208101519063ffffffff82168203610545576060916020840152604081015160408401520151606082015290565b73ffffffffffffffffffffffffffffffffffffffff8116604051917f55f575100000000000000000000000000000000000000000000000000000000083525f92306004820152608081602481865afa90811561153f575f91611da3575b506040517f295a5212000000000000000000000000000000000000000000000000000000008152602081600481875afa90811561153f575f91611d68575b5060038110156105755760018103611caf575051600481101561057557600214611ca1576040517fc55dae63000000000000000000000000000000000000000000000000000000008152602081600481865afa801561153f5773ffffffffffffffffffffffffffffffffffffffff915f91611c82575b5016905b823b15610545576040517f40e27c90000000000000000000000000000000000000000000000000000000008152600960048201525f60248201525f60448201525f60648201525f60848201525f60a48201525f60c48201525f8160e48183885af1801561153f57611c6d575b5073ffffffffffffffffffffffffffffffffffffffff821693604051927f70a08231000000000000000000000000000000000000000000000000000000008452306004850152602084602481895afa93841561056a578294611c37575b5083611b57913390612022565b6040517f55f57510000000000000000000000000000000000000000000000000000000008152306004820152608081602481885afa90811561056a578291611c18575b5051906004821015611beb575015611bdc575b506040519081527f8ad6254f98a805542f97d81dba79901cf70acd7f8ffe764065063709619fef0760203392a4565b611be590612089565b5f611bad565b807f4e487b7100000000000000000000000000000000000000000000000000000000602492526021600452fd5b611c31915060803d60801161038657610377818361188d565b5f611b9a565b9093506020813d602011611c65575b81611c536020938361188d565b81010312610545575192611b57611b4a565b3d9150611c46565b611c7a9194505f9061188d565b5f925f611aed565b611c9b915060203d60201161025c5761024e818361188d565b5f611a7d565b9050611cad9150612089565b565b600203611d405751600481101561057557600314611ca1576040517f217a4b70000000000000000000000000000000000000000000000000000000008152602081600481865afa801561153f5773ffffffffffffffffffffffffffffffffffffffff915f91611d21575b501690611a81565b611d3a915060203d60201161025c5761024e818361188d565b5f611d19565b7fdcac4da8000000000000000000000000000000000000000000000000000000005f5260045ffd5b90506020813d602011611d9b575b81611d836020938361188d565b8101031261054557516003811015610545575f611a07565b3d9150611d76565b611dbc915060803d60801161038657610377818361188d565b5f6119c9565b91908203918211611dcf57565b7f4e487b71000000000000000000000000000000000000000000000000000000005f52601160045260245ffd5b67ffffffffffffffff81116118605760051b60200190565b90611e1e82611dfc565b611e2b604051918261188d565b8281527fffffffffffffffffffffffffffffffffffffffffffffffffffffffffffffffe0611e598294611dfc565b0190602036910137565b5f54811015611e79575f805260205f2001905f90565b7f4e487b71000000000000000000000000000000000000000000000000000000005f52603260045260245ffd5b8051821015611e795760209160051b010190565b73ffffffffffffffffffffffffffffffffffffffff7f0000000000000000000000000000000000000000000000000000000000000000163303611ef957565b7f71e29260000000000000000000000000000000000000000000000000000000005f5260045ffd5b6040517f7dc0d1d0000000000000000000000000000000000000000000000000000000008152602081600481335afa801561153f5773ffffffffffffffffffffffffffffffffffffffff915f91612003575b50168183611f8b8183611f858161322c565b866132cd565b159283611fe6575b505050611f9e575050565b9073ffffffffffffffffffffffffffffffffffffffff80927f5cc0649f000000000000000000000000000000000000000000000000000000005f52166004521660245260445ffd5b611ffa9350611ff48261322c565b906132cd565b1581835f611f93565b61201c915060203d60201161025c5761024e818361188d565b5f611f73565b6040517fa9059cbb00000000000000000000000000000000000000000000000000000000602082015273ffffffffffffffffffffffffffffffffffffffff929092166024830152604480830193909352918152611cad9161208460648361188d565b61336b565b73ffffffffffffffffffffffffffffffffffffffff16805f52600160205260405f2054801561223e577fffffffffffffffffffffffffffffffffffffffffffffffffffffffffffffffff8101818111611dcf575f547fffffffffffffffffffffffffffffffffffffffffffffffffffffffffffffffff8101908111611dcf578082036121c9575b5050505f54801561219c577fffffffffffffffffffffffffffffffffffffffffffffffffffffffffffffffff0161214681611e63565b73ffffffffffffffffffffffffffffffffffffffff82549160031b1b191690555f55805f5260016020525f60408120557f4106dfdaa577573db51c0ca93f766dbedfa0758faa2e7f5bcdb7c142be803c3f5f80a2565b7f4e487b71000000000000000000000000000000000000000000000000000000005f52603160045260245ffd5b6121fe9173ffffffffffffffffffffffffffffffffffffffff6121ee61222a93611e63565b90549060031b1c16928391611e63565b90919073ffffffffffffffffffffffffffffffffffffffff8084549260031b9316831b921b1916179055565b5f52600160205260405f20555f8080612110565b7f8017c2d0000000000000000000000000000000000000000000000000000000005f5260045ffd5b6040517f217a4b70000000000000000000000000000000000000000000000000000000008152959673ffffffffffffffffffffffffffffffffffffffff861696929593946020846004818b5afa92831561153f575f945f94612744575b5073ffffffffffffffffffffffffffffffffffffffff169873ffffffffffffffffffffffffffffffffffffffff84168a145f1461273d576001935b6040517f55f575100000000000000000000000000000000000000000000000000000000081523060048201526080816024818e5afa90811561153f575f9161271e575b50805160048110156105755760011461269f575b50600b851015610575576001851480612696575b156125d657604051907f38d52e0f000000000000000000000000000000000000000000000000000000008252602082600481335afa90811561153f576123b5925f9261110c5750611f21565b333b15610545576040517f19eacfeb0000000000000000000000000000000000000000000000000000000081523060048201528a60248201528860448201525f8160648183335af1801561153f576125c1575b506040517f095ea7b300000000000000000000000000000000000000000000000000000000602080830191825273ffffffffffffffffffffffffffffffffffffffff8916602484015260448084018c905283529087908d9061246b60648661188d565b828551925af186513d826125a5575b505015612548575b50883b15610566576124be604051947f40e27c9000000000000000000000000000000000000000000000000000000000865260048601906118ce565b8760248501528660448501526064840152151560848301528260a483015260c4820152818160e481838a5af1801561056a57612533575b5050612500906133f2565b60405191825260208201527fb059b80398ab9c43cb6a34dc25115874f61d34a12f6639245e38479e5a10b82e60403392a4565b61253e82809261188d565b61039857806124f5565b61259f906125996040517f095ea7b30000000000000000000000000000000000000000000000000000000060208201528c60248201528860448201526044815261259360648261188d565b8d61336b565b8b61336b565b5f612482565b9091506125b957508a3b15155b5f8061247a565b6001146125b2565b6125ce9195505f9061188d565b5f935f612408565b5083158061268d575b156123b5576040517fc55dae630000000000000000000000000000000000000000000000000000000081526020816004818d5afa90811561153f575f9161266e575b50604051907f38d52e0f000000000000000000000000000000000000000000000000000000008252602082600481335afa90811561153f57612669925f9261110c5750611f21565b6123b5565b612687915060203d60201161025c5761024e818361188d565b5f612621565b505f87126125df565b505f8812612369565b60400151156126e857600b85101561057557600185146126c0575b5f612355565b7fb3529f40000000000000000000000000000000000000000000000000000000005f5260045ffd5b600b85101561057557846126ba577fb3529f40000000000000000000000000000000000000000000000000000000005f5260045ffd5b612737915060803d60801161038657610377818361188d565b5f612341565b5f936122fe565b73ffffffffffffffffffffffffffffffffffffffff9194506127749060203d60201161025c5761024e818361188d565b93906122c3565b90816020910312610545576040519061279382611844565b51815290565b9073ffffffffffffffffffffffffffffffffffffffff8216926040517fd7f5cadf000000000000000000000000000000000000000000000000000000008152602081600481885afa801561153f575f90612b71575b6127f9915042611dc2565b604051917f5b87ac0c000000000000000000000000000000000000000000000000000000008352602083600481895afa92831561153f575f93612b50575b50604051937f3d9c02ed0000000000000000000000000000000000000000000000000000000085526020856004818a5afa94851561153f575f95612b21575b50906128916128896128979386516136f6565b9186516136f6565b90611dc2565b938115612b18576128cd916128ab916134e0565b604051906128b882611844565b6c01000000000000000000000000825261359f565b604051907faf734b39000000000000000000000000000000000000000000000000000000008252602082600481895afa91821561153f575f92612ae7575b506040517fafcbea840000000000000000000000000000000000000000000000000000000081526020816004818a5afa90811561153f575f91612ab3575b506129589061295f93516136f6565b90516136f6565b91604051917fc336714d000000000000000000000000000000000000000000000000000000008352602083600481895afa92831561153f575f93612a7d575b506129ae600493602092516136f6565b95604051938480927f1cb5d3400000000000000000000000000000000000000000000000000000000082525afa91821561153f575f92612a45575b50612a4294612891612a3c9493612a0093516136f6565b612a3560405191612a1083611844565b6c01000000000000000000000000835260405193612a2d85611844565b5f8552613786565b82526135c8565b516136f6565b90565b9291506020833d602011612a75575b81612a616020938361188d565b810103126105455791519091612a426129e9565b3d9150612a54565b92506020833d602011612aab575b81612a986020938361188d565b81010312610545579151916129ae61299e565b3d9150612a8b565b90506020813d602011612adf575b81612ace6020938361188d565b81010312610545575161295f612949565b3d9150612ac1565b612b0a91925060203d602011612b11575b612b02818361188d565b81019061277b565b905f61290b565b503d612af8565b50505050905090565b61289792919550612889612b466128919260203d602011612b1157612b02818361188d565b9692935050612876565b612b6a91935060203d602011612b1157612b02818361188d565b915f612837565b506020813d602011612b9d575b81612b8b6020938361188d565b81010312610545576127f990516127ee565b3d9150612b7e565b9073ffffffffffffffffffffffffffffffffffffffff8216926040517fd7f5cadf000000000000000000000000000000000000000000000000000000008152602081600481885afa801561153f575f90612eaf575b612c05915042611dc2565b604051917f94ad0c48000000000000000000000000000000000000000000000000000000008352602083600481895afa92831561153f575f93612e8e575b50604051937f411641240000000000000000000000000000000000000000000000000000000085526020856004818a5afa94851561153f575f95612e5f575b5090612891612889612c959386516136f6565b938115612b1857612ca9916128ab916135f1565b604051907f07cc1935000000000000000000000000000000000000000000000000000000008252602082600481895afa91821561153f575f92612e3e575b506040517f1cb5d3400000000000000000000000000000000000000000000000000000000081526020816004818a5afa90811561153f575f91612e0a575b5061295890612d3493516136f6565b91604051917f0f9c3816000000000000000000000000000000000000000000000000000000008352602083600481895afa92831561153f575f93612dd4575b50612d83600493602092516136f6565b95604051938480927fafcbea840000000000000000000000000000000000000000000000000000000082525afa91821561153f575f92612a455750612a4294612891612a3c9493612a0093516136f6565b92506020833d602011612e02575b81612def6020938361188d565b8101031261054557915191612d83612d73565b3d9150612de2565b90506020813d602011612e36575b81612e256020938361188d565b810103126105455751612d34612d25565b3d9150612e18565b612e5891925060203d602011612b1157612b02818361188d565b905f612ce7565b612c9592919550612889612e846128919260203d602011612b1157612b02818361188d565b9692935050612c82565b612ea891935060203d602011612b1157612b02818361188d565b915f612c43565b506020813d602011612edb575b81612ec96020938361188d565b8101031261054557612c059051612bfa565b3d9150612ebc565b905f91604051612ef281611844565b5f81525073ffffffffffffffffffffffffffffffffffffffff81166040517fd7f5cadf000000000000000000000000000000000000000000000000000000008152602081600481855afa801561153f575f906130ae575b612f54915042611dc2565b90811561304d578415612fd957906020600492604051938480927f07cc19350000000000000000000000000000000000000000000000000000000082525afa91821561038d57612a42949592612fb6575b50612fb091926135f1565b9061369b565b612fb09250612fd39060203d602011612b1157612b02818361188d565b91612fa5565b6004939450602090604051948580927faf734b390000000000000000000000000000000000000000000000000000000082525afa90811561153f57612a42935f9261302a575b50612fb091926134e0565b612fb092506130479060203d602011612b1157612b02818361188d565b9161301f565b9050600492935060209150604051928380927faf734b390000000000000000000000000000000000000000000000000000000082525afa90811561153f575f91613095575090565b612a42915060203d602011612b1157612b02818361188d565b506020813d6020116130da575b816130c86020938361188d565b8101031261054557612f549051612f49565b3d91506130bb565b6040516130ee81611844565b5f90526040517fd7f5cadf0000000000000000000000000000000000000000000000000000000081529073ffffffffffffffffffffffffffffffffffffffff8116602083600481845afa92831561153f575f936131e8575b5061315360049342611dc2565b9081156131a557602090604051948580927f07cc19350000000000000000000000000000000000000000000000000000000082525afa90811561153f57612a42935f92612fb65750612fb091926135f1565b905060209150604051928380927f07cc19350000000000000000000000000000000000000000000000000000000082525afa90811561153f575f91613095575090565b92506020833d602011613216575b816132036020938361188d565b8101031261054557915191613153613146565b3d91506131f6565b519060ff8216820361054557565b602073ffffffffffffffffffffffffffffffffffffffff916004604051809481937f313ce567000000000000000000000000000000000000000000000000000000008352165afa801561153f575f90613293575b60ff915016604d8111611dcf57600a0a90565b506020813d6020116132c5575b816132ad6020938361188d565b81010312610545576132c060ff9161321e565b613280565b3d91506132a0565b6020929173ffffffffffffffffffffffffffffffffffffffff60649281809760405198899788967fae68676c0000000000000000000000000000000000000000000000000000000088526004880152166024860152166044840152165afa90811561153f575f9161333c575090565b90506020813d602011613363575b816133576020938361188d565b81010312610545575190565b3d915061334a565b905f602091828151910182855af11561153f575f513d6133e9575073ffffffffffffffffffffffffffffffffffffffff81163b155b6133a75750565b73ffffffffffffffffffffffffffffffffffffffff907f5274afe7000000000000000000000000000000000000000000000000000000005f521660045260245ffd5b600114156133a0565b73ffffffffffffffffffffffffffffffffffffffff811690815f52600160205260405f2054613476575f549068010000000000000000821015611860576121fe82600161344194015f55611e63565b5f54815f52600160205260405f20557f73cca62ab1b520c9715bf4e6c71e3e518c754e7148f65102f43289a7df0efea65f80a2565b5050565b51906fffffffffffffffffffffffffffffffff8216820361054557565b9081604091031261054557604051906040820182811067ffffffffffffffff821117611860576134d8916020916040526134d08161347a565b84520161347a565b602082015290565b5f6040516134ed81611844565b52604051917f5cfbe12100000000000000000000000000000000000000000000000000000000835260408360048173ffffffffffffffffffffffffffffffffffffffff86165afa92831561153f57612a42936fffffffffffffffffffffffffffffffff915f91613570575b505116916040519261356984611844565b8352613940565b613592915060403d604011613598575b61358a818361188d565b810190613497565b5f613558565b503d613580565b91906040516135ad81611844565b5f81526135be819451925183611dc2565b9182116105455752565b91906040516135d681611844565b5f81528093519151820191828111611dcf5782106105455752565b5f6040516135fe81611844565b52604051917f5cfbe12100000000000000000000000000000000000000000000000000000000835260408360048173ffffffffffffffffffffffffffffffffffffffff86165afa801561153f5760206fffffffffffffffffffffffffffffffff91612a42955f9161367c575b50015116916040519261356984611844565b613695915060403d6040116135985761358a818361188d565b5f61366a565b91906136bb604051916136ad83611844565b5f83528294519051906136f6565b9052565b81156136c9570490565b7f4e487b71000000000000000000000000000000000000000000000000000000005f52601260045260245ffd5b5f917fffffffffffffffffffffffffffffffffffffffffffffffffffffffffffffffff818309918181029384808510940393808503941461377c57836c01000000000000000000000000111561376a5750906c01000000000000000000000000910990828211900360a01b910360601c1790565b634e487b71905260116020526024601cfd5b5050505060601c90565b7fffffffffffffffffffffffffffffffffffffffffffffffffffffffffffffffff816c0100000000000000000000000009918160601b9182808510940393808503941461384f57838211156138375781906c0100000000000000000000000009815f0382168092046002816003021880820260020302808202600203028082026002030280820260020302808202600203028091026002030293600183805f03040190848311900302920304170290565b50634e487b715f52156003026011186020526024601cfd5b5090612a4292506136bf565b7fffffffffffffffffffffffffffffffffffffffffffffffffffffffffffffffff6c010000000000000000000000008209918160601b9182808510940393808503941461384f5783821115613837576c01000000000000000000000000829109815f0382168092046002816003021880820260020302808202600203028082026002030280820260020302808202600203028091026002030293600183805f03040190848311900302920304170290565b519062ffffff8216820361054557565b519076ffffffffffffffffffffffffffffffffffffffffffffff8216820361054557565b9060e073ffffffffffffffffffffffffffffffffffffffff925f60405161396681611844565b526004604051809581937fcff0ab96000000000000000000000000000000000000000000000000000000008352165afa91821561153f575f92613a67575b5080613a36613a5a602062ffffff6040613a3b612fb097613a36613a158b613a10612a429e8888519a8b946139d886611844565b6f01e187e00000000000000000000000008652015116613a09620f42408a5192613a0184611844565b5f8452613786565b815261369b565b613b54565b845190613a2182611844565b6c0100000000000000000000000082526135c8565b613b74565b97015116613a53620f424060405192613a0184611844565b8152613b54565b60405190613a2182611844565b90915060e0813d60e011613b4c575b81613a8360e0938361188d565b81010312610545576040519160e0830183811067ffffffffffffffff82111761186057613a5a602062ffffff6040613a3b86613a36613a15612a429c613a109c613b3460c0612fb09e613a369d8a52613adb8161321e565b8452613ae88c820161390c565b8c850152613af78a820161390c565b8a850152613b076060820161390c565b6060850152613b186080820161390c565b6080850152613b2960a0820161391c565b60a08501520161391c565b60c08201529c509c50505097505050505050506139a4565b3d9150613a76565b91906136bb60405191613b6683611844565b5f835282945190519061385b565b5f604051613b8181611844565b52517fffffffffffffffffffffffffffffffffffffffff0000000000000000000000008101908111611dcf576c01000000000000000000000000811015613c30576c010000000000000000000000009182906003811015613c27578091925b5f935b838503613c0157505050505060405190613bfc82611844565b815290565b600190613c1782879896970184898703026136bf565b0260601c80940195019392613be3565b60039192613be0565b7f98d4901c000000000000000000000000000000000000000000000000000000005f5260045ffdfea26469706673582212201deaa58fcc8ba22c63d045f74ff2b01db73bb89b79d038dff733c13c3fb0655264736f6c634300081c00330000000000000000000000005b0cd1f6cb62e8b85b49633ac56b13b9631c68bd",
        "nonce": "0x2ae",
        "chainId": "0x1"
      },
      "additionalContracts": [],
      "isFixedGasLimit": false
    },
    {
      "hash": "0x1dec9cb0c424d258a9437f354a1e42f0ea42b5c0757f83ac0659aef8c8030266",
      "transactionType": "CALL",
      "contractName": "BeaconProxy",
      "contractAddress": "0x5b0cd1f6cb62e8b85b49633ac56b13b9631c68bd",
      "function": null,
      "arguments": null,
      "transaction": {
        "from": "0x0562f16415fcf6fb5acaf433e4796f8f328b7c7d",
        "to": "0x5b0cd1f6cb62e8b85b49633ac56b13b9631c68bd",
        "gas": "0x267a4",
        "value": "0x0",
        "input": "0x60d54d4100000000000000000000000010cc5ed26dee943995c2e8505b69a1ad0c144696",
        "nonce": "0x2af",
        "chainId": "0x1"
      },
      "additionalContracts": [],
      "isFixedGasLimit": false
    },
    {
      "hash": "0xf8ca723efc31dfb14d20f043167acd0c5448814bee1e7248daebc13372b52ea4",
      "transactionType": "CALL",
      "contractName": "BeaconProxy",
      "contractAddress": "0x5b0cd1f6cb62e8b85b49633ac56b13b9631c68bd",
      "function": null,
      "arguments": null,
      "transaction": {
        "from": "0x0562f16415fcf6fb5acaf433e4796f8f328b7c7d",
        "to": "0x5b0cd1f6cb62e8b85b49633ac56b13b9631c68bd",
        "gas": "0x28be1",
        "value": "0x0",
        "input": "0x60d54d4100000000000000000000000086baa92651b5d636c98eb804d24cdd8bf5b1b16d",
        "nonce": "0x2b0",
        "chainId": "0x1"
      },
      "additionalContracts": [],
      "isFixedGasLimit": false
    },
    {
      "hash": "0x448eb15c43bac6fa3eb9fe3d52c15d56a6a021267d9891e18a05a2457ce19e58",
      "transactionType": "CALL",
      "contractName": "BeaconProxy",
      "contractAddress": "0x5b0cd1f6cb62e8b85b49633ac56b13b9631c68bd",
      "function": null,
      "arguments": null,
      "transaction": {
        "from": "0x0562f16415fcf6fb5acaf433e4796f8f328b7c7d",
        "to": "0x5b0cd1f6cb62e8b85b49633ac56b13b9631c68bd",
        "gas": "0x28b5f",
        "value": "0x0",
        "input": "0x60d54d4100000000000000000000000038f8a1b5423398891d894b1a19e429ec75278c75",
        "nonce": "0x2b1",
        "chainId": "0x1"
      },
      "additionalContracts": [],
      "isFixedGasLimit": false
    },
    {
      "hash": "0x5c928f4e59c2d5ab50a1cebf1c0690fafe07963717b5c2e16ef225fa8bfa736b",
      "transactionType": "CALL",
      "contractName": "BeaconProxy",
      "contractAddress": "0x5b0cd1f6cb62e8b85b49633ac56b13b9631c68bd",
      "function": null,
      "arguments": null,
      "transaction": {
        "from": "0x0562f16415fcf6fb5acaf433e4796f8f328b7c7d",
        "to": "0x5b0cd1f6cb62e8b85b49633ac56b13b9631c68bd",
        "gas": "0x159c2",
        "value": "0x0",
        "input": "0x60d54d41000000000000000000000000b641d7b26cead8b2ae133d56cad1ad3fba1b66f1",
        "nonce": "0x2b2",
        "chainId": "0x1"
      },
      "additionalContracts": [],
      "isFixedGasLimit": false
    },
    {
      "hash": "0xf44efc844a6e46a8b51e3a8e74065f0cbbf0fb68bbaa8dd1b2ce430f58dcb10d",
      "transactionType": "CALL",
      "contractName": "BeaconProxy",
      "contractAddress": "0x5b0cd1f6cb62e8b85b49633ac56b13b9631c68bd",
      "function": null,
      "arguments": null,
      "transaction": {
        "from": "0x0562f16415fcf6fb5acaf433e4796f8f328b7c7d",
        "to": "0x5b0cd1f6cb62e8b85b49633ac56b13b9631c68bd",
        "gas": "0x159e2",
        "value": "0x0",
        "input": "0x60d54d410000000000000000000000009f3f7108fad9bedeb028798552682ec9d9cc9c81",
        "nonce": "0x2b3",
        "chainId": "0x1"
      },
      "additionalContracts": [],
      "isFixedGasLimit": false
    },
    {
      "hash": "0xfb9aca6f721b77c27c83888b63f7463cbb804eaf43fdae69c29a30e2514c31ec",
      "transactionType": "CALL",
      "contractName": "BeaconProxy",
      "contractAddress": "0x5b0cd1f6cb62e8b85b49633ac56b13b9631c68bd",
      "function": null,
      "arguments": null,
      "transaction": {
        "from": "0x0562f16415fcf6fb5acaf433e4796f8f328b7c7d",
        "to": "0x5b0cd1f6cb62e8b85b49633ac56b13b9631c68bd",
        "gas": "0x146e7",
        "value": "0x0",
        "input": "0x60d54d41000000000000000000000000a43e8137eca61183c79a163b35fe1f26115e8777",
        "nonce": "0x2b4",
        "chainId": "0x1"
      },
      "additionalContracts": [],
      "isFixedGasLimit": false
    },
    {
      "hash": "0x07a95aef1262dd8150598965b57bcdc06df2994ba2bd21a82a00214e69820bc6",
      "transactionType": "CALL",
      "contractName": "BeaconProxy",
      "contractAddress": "0x5b0cd1f6cb62e8b85b49633ac56b13b9631c68bd",
      "function": null,
      "arguments": null,
      "transaction": {
        "from": "0x0562f16415fcf6fb5acaf433e4796f8f328b7c7d",
        "to": "0x5b0cd1f6cb62e8b85b49633ac56b13b9631c68bd",
        "gas": "0x146c7",
        "value": "0x0",
        "input": "0x60d54d41000000000000000000000000768aaca6230a7c8c46628500cd09ae0096a59d3d",
        "nonce": "0x2b5",
        "chainId": "0x1"
      },
      "additionalContracts": [],
      "isFixedGasLimit": false
    },
    {
      "hash": "0x35595ce7ef6e6353dfd5659da2c61ce54b9d24382fbe01b3433aef8abddc4f59",
      "transactionType": "CALL",
      "contractName": "BeaconProxy",
      "contractAddress": "0x5b0cd1f6cb62e8b85b49633ac56b13b9631c68bd",
      "function": null,
      "arguments": null,
      "transaction": {
        "from": "0x0562f16415fcf6fb5acaf433e4796f8f328b7c7d",
        "to": "0x5b0cd1f6cb62e8b85b49633ac56b13b9631c68bd",
        "gas": "0x14761",
        "value": "0x0",
        "input": "0x60d54d4100000000000000000000000018fceaf961efd6c020dfecf2b8ae59253d823f89",
        "nonce": "0x2b6",
        "chainId": "0x1"
      },
      "additionalContracts": [],
      "isFixedGasLimit": false
    },
    {
      "hash": "0xbec18dae41ddb0a1f7932028f829ae92fd77a1f57716c57930ab680c15fab7a0",
      "transactionType": "CALL",
      "contractName": "BeaconProxy",
      "contractAddress": "0x5b0cd1f6cb62e8b85b49633ac56b13b9631c68bd",
      "function": null,
      "arguments": null,
      "transaction": {
        "from": "0x0562f16415fcf6fb5acaf433e4796f8f328b7c7d",
        "to": "0x5b0cd1f6cb62e8b85b49633ac56b13b9631c68bd",
        "gas": "0x159c2",
        "value": "0x0",
        "input": "0x60d54d41000000000000000000000000812e3249b0a4bf41fee4201987b4cc4d53bbc3bb",
        "nonce": "0x2b7",
        "chainId": "0x1"
      },
      "additionalContracts": [],
      "isFixedGasLimit": false
    }
  ],
  "receipts": [
    {
      "status": "0x1",
      "cumulativeGasUsed": "0x40dadc",
      "logs": [
        {
          "address": "0x5b0cd1f6cb62e8b85b49633ac56b13b9631c68bd",
          "topics": [
            "0x1cf3b03a6cf19fa2baba4df148e9dcabedea7f8a5c07840e207e5c089be95d3e",
            "0x000000000000000000000000ccfbdc4996d45a2304b7f1dbadb140badfd3c535"
          ],
          "data": "0x",
          "blockHash": "0x442aeca957e56b2e20308d12694fbeb545b0e6cc3c84f423baa4fb22594607f4",
          "blockNumber": "0x16143b5",
          "blockTimestamp": "0x68a0183b",
          "transactionHash": "0xa7181b78142e670578843bd6e01295830f1725b68193f3993e99bff50fb148a6",
          "transactionIndex": "0x20",
          "logIndex": "0x49",
          "removed": false
        },
        {
          "address": "0xcff5ddc08f55b8008c8f3b9803d44a278e0a4c07",
          "topics": [
            "0x1cf3b03a6cf19fa2baba4df148e9dcabedea7f8a5c07840e207e5c089be95d3e",
            "0x000000000000000000000000085b0fb5ec8ac4559caed9fc50df2c5d6b7b1a7f"
          ],
          "data": "0x",
          "blockHash": "0x442aeca957e56b2e20308d12694fbeb545b0e6cc3c84f423baa4fb22594607f4",
          "blockNumber": "0x16143b5",
          "blockTimestamp": "0x68a0183b",
          "transactionHash": "0xa7181b78142e670578843bd6e01295830f1725b68193f3993e99bff50fb148a6",
          "transactionIndex": "0x20",
          "logIndex": "0x4a",
          "removed": false
        },
        {
          "address": "0xcff5ddc08f55b8008c8f3b9803d44a278e0a4c07",
          "topics": [
            "0x8be0079c531659141344cd1fd0a4f28419497f9722a3daafe3b4186f6b6457e0",
            "0x0000000000000000000000000000000000000000000000000000000000000000",
            "0x0000000000000000000000000562f16415fcf6fb5acaf433e4796f8f328b7c7d"
          ],
          "data": "0x",
          "blockHash": "0x442aeca957e56b2e20308d12694fbeb545b0e6cc3c84f423baa4fb22594607f4",
          "blockNumber": "0x16143b5",
          "blockTimestamp": "0x68a0183b",
          "transactionHash": "0xa7181b78142e670578843bd6e01295830f1725b68193f3993e99bff50fb148a6",
          "transactionIndex": "0x20",
          "logIndex": "0x4b",
          "removed": false
        },
        {
          "address": "0xcff5ddc08f55b8008c8f3b9803d44a278e0a4c07",
          "topics": [
            "0xc7f505b2f371ae2175ee4913f4499e1f2633a7b5936321eed1cdaeb6115181d2"
          ],
          "data": "0x0000000000000000000000000000000000000000000000000000000000000001",
          "blockHash": "0x442aeca957e56b2e20308d12694fbeb545b0e6cc3c84f423baa4fb22594607f4",
          "blockNumber": "0x16143b5",
          "blockTimestamp": "0x68a0183b",
          "transactionHash": "0xa7181b78142e670578843bd6e01295830f1725b68193f3993e99bff50fb148a6",
          "transactionIndex": "0x20",
          "logIndex": "0x4c",
          "removed": false
        },
        {
          "address": "0x5b0cd1f6cb62e8b85b49633ac56b13b9631c68bd",
          "topics": [
            "0x8be0079c531659141344cd1fd0a4f28419497f9722a3daafe3b4186f6b6457e0",
            "0x0000000000000000000000000000000000000000000000000000000000000000",
            "0x0000000000000000000000000562f16415fcf6fb5acaf433e4796f8f328b7c7d"
          ],
          "data": "0x",
          "blockHash": "0x442aeca957e56b2e20308d12694fbeb545b0e6cc3c84f423baa4fb22594607f4",
          "blockNumber": "0x16143b5",
          "blockTimestamp": "0x68a0183b",
          "transactionHash": "0xa7181b78142e670578843bd6e01295830f1725b68193f3993e99bff50fb148a6",
          "transactionIndex": "0x20",
          "logIndex": "0x4d",
          "removed": false
        },
        {
          "address": "0x5b0cd1f6cb62e8b85b49633ac56b13b9631c68bd",
          "topics": [
            "0x3f32684a32a11dabdbb8c0177de80aa3ae36a004d75210335b49e544e48cd0aa",
            "0x00000000000000000000000041761684acf90bbf7e58e3a7a14d48f778cbb9d5"
          ],
          "data": "0x",
          "blockHash": "0x442aeca957e56b2e20308d12694fbeb545b0e6cc3c84f423baa4fb22594607f4",
          "blockNumber": "0x16143b5",
          "blockTimestamp": "0x68a0183b",
          "transactionHash": "0xa7181b78142e670578843bd6e01295830f1725b68193f3993e99bff50fb148a6",
          "transactionIndex": "0x20",
          "logIndex": "0x4e",
          "removed": false
        },
        {
          "address": "0x5b0cd1f6cb62e8b85b49633ac56b13b9631c68bd",
          "topics": [
            "0xc7f505b2f371ae2175ee4913f4499e1f2633a7b5936321eed1cdaeb6115181d2"
          ],
          "data": "0x0000000000000000000000000000000000000000000000000000000000000001",
          "blockHash": "0x442aeca957e56b2e20308d12694fbeb545b0e6cc3c84f423baa4fb22594607f4",
          "blockNumber": "0x16143b5",
          "blockTimestamp": "0x68a0183b",
          "transactionHash": "0xa7181b78142e670578843bd6e01295830f1725b68193f3993e99bff50fb148a6",
          "transactionIndex": "0x20",
          "logIndex": "0x4f",
          "removed": false
        },
        {
          "address": "0x3e104bb4c3777e1ca3ab25ff5e9c801ff9f99559",
          "topics": [
            "0x4488076962388d304d43074c5fd17937d482d4af629cf108b76d54c51c537f27",
            "0x0000000000000000000000005b0cd1f6cb62e8b85b49633ac56b13b9631c68bd",
            "0x000000000000000000000000cff5ddc08f55b8008c8f3b9803d44a278e0a4c07"
          ],
          "data": "0x000000000000000000000000a0b86991c6218b36c1d19d4a2e9eb0ce3606eb480000000000000000000000000000000000000000000000000000000000000040000000000000000000000000000000000000000000000000000000000000000d4c65767661546573745553444300000000000000000000000000000000000000",
          "blockHash": "0x442aeca957e56b2e20308d12694fbeb545b0e6cc3c84f423baa4fb22594607f4",
          "blockNumber": "0x16143b5",
          "blockTimestamp": "0x68a0183b",
          "transactionHash": "0xa7181b78142e670578843bd6e01295830f1725b68193f3993e99bff50fb148a6",
          "transactionIndex": "0x20",
          "logIndex": "0x50",
          "removed": false
        }
      ],
      "logsBloom": "0x00000000008000000000000000002000000000000000000000800000000000000000000000000000001000000000000000000000000000000000000000a00000000000000000800000000000001000000001000010000000000000000000040000000000020000008000000000000800400000008000000000000000009000402004000000000000000800000000081000000000000080100000800000000000000000000000020100040010200000000000000000000040000000100000000000000000000000000000000100400000000000000006000000800000000020000800400000000000000004000000000000000000000000000000000000000000",
      "type": "0x2",
      "transactionHash": "0xa7181b78142e670578843bd6e01295830f1725b68193f3993e99bff50fb148a6",
      "transactionIndex": "0x20",
      "blockHash": "0x442aeca957e56b2e20308d12694fbeb545b0e6cc3c84f423baa4fb22594607f4",
      "blockNumber": "0x16143b5",
      "gasUsed": "0xb30f7",
      "effectiveGasPrice": "0xe5e8262",
      "from": "0x0562f16415fcf6fb5acaf433e4796f8f328b7c7d",
      "to": "0x3e104bb4c3777e1ca3ab25ff5e9c801ff9f99559",
      "contractAddress": null
    },
    {
      "status": "0x1",
      "cumulativeGasUsed": "0x2404013",
      "logs": [
        {
          "address": "0x5b0cd1f6cb62e8b85b49633ac56b13b9631c68bd",
          "topics": [
            "0x409f6c907ebb200fe684297d20d647dad13c254f95ed78ad8178bd4b122bda96",
            "0x0000000000000000000000003a57d60a6866c41365e91b9cabfa66f8dd17f210"
          ],
          "data": "0x0000000000000000000000000000000000000000000000000000000000000001",
          "blockHash": "0xcacb0439283c088a8a4d04bd66c43d3c3c86d61a318457cf57b7e65c4d49e3a9",
          "blockNumber": "0x16143b6",
          "blockTimestamp": "0x68a01847",
          "transactionHash": "0xeeb2c3d325dfb9cb7f6bd2977164d4b893d819badc30a27faef5fd14f5b070f8",
          "transactionIndex": "0xa8",
          "logIndex": "0x2a3",
          "removed": false
        }
      ],
      "logsBloom": "0x00000000000000000000000000008000000000000000000000000000000000000000000000000028001000000000000000000000000000000000000000000000000000000000000000000000000040000000000000000000008000000000000000000000000000000000000000000000000000000000000000000000000000000000000000000000000000000000000000000000000000000000000000000000000000000000000000000000000000000000000000000040000000000000000000000000000000000000000000408000000000000000000000000000000000000000000000000000000000000000000000000000000000000000000000000000",
      "type": "0x2",
      "transactionHash": "0xeeb2c3d325dfb9cb7f6bd2977164d4b893d819badc30a27faef5fd14f5b070f8",
      "transactionIndex": "0xa8",
      "blockHash": "0xcacb0439283c088a8a4d04bd66c43d3c3c86d61a318457cf57b7e65c4d49e3a9",
      "blockNumber": "0x16143b6",
      "gasUsed": "0xd8b9",
      "effectiveGasPrice": "0xd980155",
      "from": "0x0562f16415fcf6fb5acaf433e4796f8f328b7c7d",
      "to": "0x5b0cd1f6cb62e8b85b49633ac56b13b9631c68bd",
      "contractAddress": null
    },
    {
      "status": "0x1",
      "cumulativeGasUsed": "0x24116d4",
      "logs": [
        {
          "address": "0x5b0cd1f6cb62e8b85b49633ac56b13b9631c68bd",
          "topics": [
            "0xdd57d8d1fbee36c2d6d46d5cdcc7b90ad51be63639fe4142d11c12a0170241a8"
          ],
          "data": "0x00000000000000000000000000000000000000000000000000000000000003e8",
          "blockHash": "0xcacb0439283c088a8a4d04bd66c43d3c3c86d61a318457cf57b7e65c4d49e3a9",
          "blockNumber": "0x16143b6",
          "blockTimestamp": "0x68a01847",
          "transactionHash": "0xb469f5815003663fd4d1f450d94cc1ca6d1dff99c7827c1d540de013095499fc",
          "transactionIndex": "0xa9",
          "logIndex": "0x2a4",
          "removed": false
        }
      ],
      "logsBloom": "0x00000000000000000000000000000000000001000000000000000000000000000000000000000000001000000000000000000000000000000000000000000800000000000000000000000000000000000000000000000000000000000000000000000000000000000000000000000000000000000000000000000000000000000000000000000000000000000000000000000000000000000000000000000000000000000000000000000000000000000000000000000040000000000000000000000000000000000000000000400000000000000000000000000000000000000000000000000000000000000000000000000000000000080000000000000000",
      "type": "0x2",
      "transactionHash": "0xb469f5815003663fd4d1f450d94cc1ca6d1dff99c7827c1d540de013095499fc",
      "transactionIndex": "0xa9",
      "blockHash": "0xcacb0439283c088a8a4d04bd66c43d3c3c86d61a318457cf57b7e65c4d49e3a9",
      "blockNumber": "0x16143b6",
      "gasUsed": "0xd6c1",
      "effectiveGasPrice": "0xd980155",
      "from": "0x0562f16415fcf6fb5acaf433e4796f8f328b7c7d",
      "to": "0x5b0cd1f6cb62e8b85b49633ac56b13b9631c68bd",
      "contractAddress": null
    },
    {
      "status": "0x1",
      "cumulativeGasUsed": "0xd7fb08",
      "logs": [
        {
          "address": "0x5b0cd1f6cb62e8b85b49633ac56b13b9631c68bd",
          "topics": [
            "0xea634c1888ae5fc72ebb3ce6846187a750d44cb4be5fa2fca07ae941bc051ca4"
          ],
          "data": "0x000000000000000000000000000000000000000000000000000000000000000f",
          "blockHash": "0x1cb866fc6059ed6c10e5873d61eaf196cb6e5df269d866a651a975baf500bba1",
          "blockNumber": "0x16143b8",
          "blockTimestamp": "0x68a0185f",
          "transactionHash": "0x3272e85f86f0cea8860955cab0fc83dc8f8eaca3f2793feaf5248fb12e39f909",
          "transactionIndex": "0xc0",
          "logIndex": "0x192",
          "removed": false
        }
      ],
      "logsBloom": "0x00000000000000000000000000000000000000000000000000000000000000000000000000000000001000000000000000000000000000000000000000000000000000000000000000000000000000000000000000000000000000000000000000000000000000000000000000000000000000000000000000000000000000000000000000000000000000000000000000000000000000000000000000000000000000000000000000000000000000000000000000000040000000000000000000000000000000020000000000400000000000000000000000002000000000000000000000000000000000000000000000000000000000000000000000000800",
      "type": "0x2",
      "transactionHash": "0x3272e85f86f0cea8860955cab0fc83dc8f8eaca3f2793feaf5248fb12e39f909",
      "transactionIndex": "0xc0",
      "blockHash": "0x1cb866fc6059ed6c10e5873d61eaf196cb6e5df269d866a651a975baf500bba1",
      "blockNumber": "0x16143b8",
      "gasUsed": "0x9afb",
      "effectiveGasPrice": "0xdae2165",
      "from": "0x0562f16415fcf6fb5acaf433e4796f8f328b7c7d",
      "to": "0x5b0cd1f6cb62e8b85b49633ac56b13b9631c68bd",
      "contractAddress": null
    },
    {
      "status": "0x1",
      "cumulativeGasUsed": "0xd8d96a",
      "logs": [
        {
          "address": "0x5b0cd1f6cb62e8b85b49633ac56b13b9631c68bd",
          "topics": [
            "0x4d4bb3f72d59781210091ea60a18a0701d933b8eb618f1665620326ee8638018"
          ],
          "data": "0x000000000000000000000000000000000000000000000000000000000000000f",
          "blockHash": "0x1cb866fc6059ed6c10e5873d61eaf196cb6e5df269d866a651a975baf500bba1",
          "blockNumber": "0x16143b8",
          "blockTimestamp": "0x68a0185f",
          "transactionHash": "0x2de9cd4efbfe8358c14548b0e9a599506a2e3af493a22a924b5c7628ca06ea76",
          "transactionIndex": "0xc1",
          "logIndex": "0x193",
          "removed": false
        }
      ],
      "logsBloom": "0x00000000000000000000000000000000000000000000000000000000000000000000000000000000001000000000000000000000000000000000000000000000000000000000000000000000000000000000000000000800000000000000000000000000000000000000000000000000000000000000000000000000000000000000000000000000000000000000000000000000000000000000000000000000000000000000000000000000000000000000000000000040002000000000000000000000000000000000000000400000000000000000000000000000000000008000000000000000000000000000000000000000000000000000000000000000",
      "type": "0x2",
      "transactionHash": "0x2de9cd4efbfe8358c14548b0e9a599506a2e3af493a22a924b5c7628ca06ea76",
      "transactionIndex": "0xc1",
      "blockHash": "0x1cb866fc6059ed6c10e5873d61eaf196cb6e5df269d866a651a975baf500bba1",
      "blockNumber": "0x16143b8",
      "gasUsed": "0xde62",
      "effectiveGasPrice": "0xdae2165",
      "from": "0x0562f16415fcf6fb5acaf433e4796f8f328b7c7d",
      "to": "0x5b0cd1f6cb62e8b85b49633ac56b13b9631c68bd",
      "contractAddress": null
    },
    {
      "status": "0x1",
      "cumulativeGasUsed": "0xd9b317",
      "logs": [
        {
          "address": "0xcff5ddc08f55b8008c8f3b9803d44a278e0a4c07",
          "topics": [
            "0xa9559b884080a9e19fd09db8dc653833caa2fd9557ab70057ef64a51fef7d878",
            "0x0000000000000000000000003a57d60a6866c41365e91b9cabfa66f8dd17f210"
          ],
          "data": "0x0000000000000000000000000000000000000000000000000000000000000001",
          "blockHash": "0x1cb866fc6059ed6c10e5873d61eaf196cb6e5df269d866a651a975baf500bba1",
          "blockNumber": "0x16143b8",
          "blockTimestamp": "0x68a0185f",
          "transactionHash": "0xe04cbf7ec9b4cfbac408dffae75ed5206e91f5351b5ff1fada74dccb943df950",
          "transactionIndex": "0xc2",
          "logIndex": "0x194",
          "removed": false
        }
      ],
      "logsBloom": "0x00000000000000000000000000000000000000000000000000000000000000000000002000000000000000000000000000000000000000000000000000200000000000000000000000000000000040000000000000000000008000000000000000000002000000000000000000000000000000000000000000000000001000000000000000000000000000000000000000000000000000000000000000000000000000000000000000000010000000000000000000000000000000000000000000000000000000000000000000008000000000000000000000000000000000000000000000000000008000000000000000000000000000000000000000000000",
      "type": "0x2",
      "transactionHash": "0xe04cbf7ec9b4cfbac408dffae75ed5206e91f5351b5ff1fada74dccb943df950",
      "transactionIndex": "0xc2",
      "blockHash": "0x1cb866fc6059ed6c10e5873d61eaf196cb6e5df269d866a651a975baf500bba1",
      "blockNumber": "0x16143b8",
      "gasUsed": "0xd9ad",
      "effectiveGasPrice": "0xdae2165",
      "from": "0x0562f16415fcf6fb5acaf433e4796f8f328b7c7d",
      "to": "0xcff5ddc08f55b8008c8f3b9803d44a278e0a4c07",
      "contractAddress": null
    },
    {
      "status": "0x1",
      "cumulativeGasUsed": "0xda8c1d",
      "logs": [
        {
          "address": "0xa0b86991c6218b36c1d19d4a2e9eb0ce3606eb48",
          "topics": [
            "0x8c5be1e5ebec7d5bd14f71427d1e84f3dd0314c0f7b2291e5b200ac8c7c3b925",
            "0x0000000000000000000000000562f16415fcf6fb5acaf433e4796f8f328b7c7d",
            "0x0000000000000000000000005b0cd1f6cb62e8b85b49633ac56b13b9631c68bd"
          ],
          "data": "0x00000000000000000000000000000000000000000000000000000000000f4240",
          "blockHash": "0x1cb866fc6059ed6c10e5873d61eaf196cb6e5df269d866a651a975baf500bba1",
          "blockNumber": "0x16143b8",
          "blockTimestamp": "0x68a0185f",
          "transactionHash": "0xbf725fe2d5ffa8741e54dae61eaefa76868d0f5b7254852bce87df9121486c1d",
          "transactionIndex": "0xc3",
          "logIndex": "0x195",
          "removed": false
        }
      ],
      "logsBloom": "0x00000000000000000000000000002000000000000000000000000000000000000000000000000000000000000000000000000000000000000000000000a00000000000000000000008000000000000000000000000000000000000000000000000000000000000000000000000000000000000000000000000000000008000000004000000000000000000000000000000000000010000000000000000000000020000000000200000000000200000000000000000000000000000100000000000000000000000000000000000000000000000000000000000000000000000000010000000000000000000000000000000000000000000000000000000000000",
      "type": "0x2",
      "transactionHash": "0xbf725fe2d5ffa8741e54dae61eaefa76868d0f5b7254852bce87df9121486c1d",
      "transactionIndex": "0xc3",
      "blockHash": "0x1cb866fc6059ed6c10e5873d61eaf196cb6e5df269d866a651a975baf500bba1",
      "blockNumber": "0x16143b8",
      "gasUsed": "0xd906",
      "effectiveGasPrice": "0xdae2165",
      "from": "0x0562f16415fcf6fb5acaf433e4796f8f328b7c7d",
      "to": "0xa0b86991c6218b36c1d19d4a2e9eb0ce3606eb48",
      "contractAddress": null
    },
    {
      "status": "0x1",
      "cumulativeGasUsed": "0xdcc9cf",
      "logs": [
        {
          "address": "0xa0b86991c6218b36c1d19d4a2e9eb0ce3606eb48",
          "topics": [
            "0xddf252ad1be2c89b69c2b068fc378daa952ba7f163c4a11628f55a4df523b3ef",
            "0x0000000000000000000000000562f16415fcf6fb5acaf433e4796f8f328b7c7d",
            "0x0000000000000000000000005b0cd1f6cb62e8b85b49633ac56b13b9631c68bd"
          ],
          "data": "0x00000000000000000000000000000000000000000000000000000000000f4240",
          "blockHash": "0x1cb866fc6059ed6c10e5873d61eaf196cb6e5df269d866a651a975baf500bba1",
          "blockNumber": "0x16143b8",
          "blockTimestamp": "0x68a0185f",
          "transactionHash": "0x8654aa864ad9ea657ef531ecc042196bd9c7a892be28a243f66b145a81f84dae",
          "transactionIndex": "0xc4",
          "logIndex": "0x196",
          "removed": false
        },
        {
          "address": "0x5b0cd1f6cb62e8b85b49633ac56b13b9631c68bd",
          "topics": [
            "0xddf252ad1be2c89b69c2b068fc378daa952ba7f163c4a11628f55a4df523b3ef",
            "0x0000000000000000000000000000000000000000000000000000000000000000",
            "0x0000000000000000000000001804c8ab1f12e6bbf3894d4083f33e07309d1f38"
          ],
          "data": "0x00000000000000000000000000000000000000000000000000000000000f4240",
          "blockHash": "0x1cb866fc6059ed6c10e5873d61eaf196cb6e5df269d866a651a975baf500bba1",
          "blockNumber": "0x16143b8",
          "blockTimestamp": "0x68a0185f",
          "transactionHash": "0x8654aa864ad9ea657ef531ecc042196bd9c7a892be28a243f66b145a81f84dae",
          "transactionIndex": "0xc4",
          "logIndex": "0x197",
          "removed": false
        },
        {
          "address": "0x5b0cd1f6cb62e8b85b49633ac56b13b9631c68bd",
          "topics": [
            "0xdcbc1c05240f31ff3ad067ef1ee35ce4997762752e3a095284754544f4c709d7",
            "0x0000000000000000000000000562f16415fcf6fb5acaf433e4796f8f328b7c7d",
            "0x0000000000000000000000001804c8ab1f12e6bbf3894d4083f33e07309d1f38"
          ],
          "data": "0x00000000000000000000000000000000000000000000000000000000000f424000000000000000000000000000000000000000000000000000000000000f4240",
          "blockHash": "0x1cb866fc6059ed6c10e5873d61eaf196cb6e5df269d866a651a975baf500bba1",
          "blockNumber": "0x16143b8",
          "blockTimestamp": "0x68a0185f",
          "transactionHash": "0x8654aa864ad9ea657ef531ecc042196bd9c7a892be28a243f66b145a81f84dae",
          "transactionIndex": "0xc4",
          "logIndex": "0x198",
          "removed": false
        }
      ],
      "logsBloom": "0x00000000000000000000000000002000000000000000000000000000000000000000000000000000001000000000000000000000000000000000000000800000000000400000000008000008000000000000000000000000000000000000000000000000020000000001000000000800000000000004000000000010008000000004000000000000000004000000000000000000010000000000000000000000000000000000200000000000200000000000000000000040000000100000000000000002000004000000000000400000000000000008000000000000000020000000000000000000000000000000000000000000000000000000000000000000",
      "type": "0x2",
      "transactionHash": "0x8654aa864ad9ea657ef531ecc042196bd9c7a892be28a243f66b145a81f84dae",
      "transactionIndex": "0xc4",
      "blockHash": "0x1cb866fc6059ed6c10e5873d61eaf196cb6e5df269d866a651a975baf500bba1",
      "blockNumber": "0x16143b8",
      "gasUsed": "0x23db2",
      "effectiveGasPrice": "0xdae2165",
      "from": "0x0562f16415fcf6fb5acaf433e4796f8f328b7c7d",
      "to": "0x5b0cd1f6cb62e8b85b49633ac56b13b9631c68bd",
      "contractAddress": null
    },
    {
      "status": "0x1",
      "cumulativeGasUsed": "0xdda2d6",
      "logs": [
        {
          "address": "0x5b0cd1f6cb62e8b85b49633ac56b13b9631c68bd",
          "topics": [
            "0x0197635964be9075ed30a004ee552ea2507f986167b10af3787304938cb44046"
          ],
          "data": "0x00000000000000000000000000000000000000000000000000000000000f4240",
          "blockHash": "0x1cb866fc6059ed6c10e5873d61eaf196cb6e5df269d866a651a975baf500bba1",
          "blockNumber": "0x16143b8",
          "blockTimestamp": "0x68a0185f",
          "transactionHash": "0xbcc2fa3efc7fe2a656aa50d8780e726efca814c42e273c0d4af4f53c2b9fa725",
          "transactionIndex": "0xc5",
          "logIndex": "0x199",
          "removed": false
        }
      ],
      "logsBloom": "0x00000000000000000000000000000000000000000000000000000000000000000000002000000000001000000000000000000000000000000000000000000000000000000000000000000000000000000000000000000000000000000000000000000000000000000000000000000000000000000000000000000000000000000000000000000000000000000000000000000000000000000000000000000000000000000000000000000000000000010000000000000040000000000000000000000000000000000000000000400000000000000000000000000000000000000000000000000000000000100000000000000000000000000000000000000000",
      "type": "0x2",
      "transactionHash": "0xbcc2fa3efc7fe2a656aa50d8780e726efca814c42e273c0d4af4f53c2b9fa725",
      "transactionIndex": "0xc5",
      "blockHash": "0x1cb866fc6059ed6c10e5873d61eaf196cb6e5df269d866a651a975baf500bba1",
      "blockNumber": "0x16143b8",
      "gasUsed": "0xd907",
      "effectiveGasPrice": "0xdae2165",
      "from": "0x0562f16415fcf6fb5acaf433e4796f8f328b7c7d",
      "to": "0x5b0cd1f6cb62e8b85b49633ac56b13b9631c68bd",
      "contractAddress": null
    },
    {
      "status": "0x1",
      "cumulativeGasUsed": "0xdf93e4",
      "logs": [
        {
          "address": "0x5b0cd1f6cb62e8b85b49633ac56b13b9631c68bd",
          "topics": [
            "0x5bf90512032b31face99172fdd0ff713670f739af77c985910b93039bf3839fb",
            "0x00000000000000000000000098c23e9d8f34fefb1b7bd6a91b7ff122f4e16f5c",
            "0x0000000000000000000000000000000000000000000000000000000000000001"
          ],
          "data": "0x",
          "blockHash": "0x1cb866fc6059ed6c10e5873d61eaf196cb6e5df269d866a651a975baf500bba1",
          "blockNumber": "0x16143b8",
          "blockTimestamp": "0x68a0185f",
          "transactionHash": "0x75403774e5fe38c03f24643ced4a64723a708d9bfd289c69806a9b93292f71a6",
          "transactionIndex": "0xc6",
          "logIndex": "0x19a",
          "removed": false
        }
      ],
      "logsBloom": "0x00000000000000000000000000000000000000000000000000000000000000000000001800000000001000000000000000000000000000000000000000040000000000000000001000000000000000000000000000040000000000000000000000000000000000000000000000000000000000000000000000000000000000280000000000000000000000000000000000000000000000000000000000000000000000000000000000000000000000000000100000000040000000000000000000000000000000000000000000400000000000000000000000000000000040000000000000000000000000000000000000000000000000000000000000000000",
      "type": "0x2",
      "transactionHash": "0x75403774e5fe38c03f24643ced4a64723a708d9bfd289c69806a9b93292f71a6",
      "transactionIndex": "0xc6",
      "blockHash": "0x1cb866fc6059ed6c10e5873d61eaf196cb6e5df269d866a651a975baf500bba1",
      "blockNumber": "0x16143b8",
      "gasUsed": "0x1f10e",
      "effectiveGasPrice": "0xdae2165",
      "from": "0x0562f16415fcf6fb5acaf433e4796f8f328b7c7d",
      "to": "0x5b0cd1f6cb62e8b85b49633ac56b13b9631c68bd",
      "contractAddress": null
    },
    {
      "status": "0x1",
      "cumulativeGasUsed": "0xe1d873",
      "logs": [
        {
          "address": "0x5b0cd1f6cb62e8b85b49633ac56b13b9631c68bd",
          "topics": [
            "0x5bf90512032b31face99172fdd0ff713670f739af77c985910b93039bf3839fb",
            "0x0000000000000000000000009d39a5de30e57443bff2a8307a4256c8797a3497",
            "0x0000000000000000000000000000000000000000000000000000000000000002"
          ],
          "data": "0x",
          "blockHash": "0x1cb866fc6059ed6c10e5873d61eaf196cb6e5df269d866a651a975baf500bba1",
          "blockNumber": "0x16143b8",
          "blockTimestamp": "0x68a0185f",
          "transactionHash": "0xc8d0238505721dd23513e130f4e52106e364573de552e127ed1eca6668113181",
          "transactionIndex": "0xc7",
          "logIndex": "0x19b",
          "removed": false
        }
      ],
      "logsBloom": "0x04000000000000000000000000000000000000000000000000000000000000000000000800000000001000000000000000000000000000000000000000000000000000000000000000000004000000000000000000000000000000000000000000000000000000000000000000000000000000000000000000000000000000200100000000000000000000000000001000000000000000000000000000000000000000000000000000000100000000000000100000000040000000000000000000000000000000000000000000400000000000000000000000000000000000000000000000000000000000000000000000000000008000000000000000000000",
      "type": "0x2",
      "transactionHash": "0xc8d0238505721dd23513e130f4e52106e364573de552e127ed1eca6668113181",
      "transactionIndex": "0xc7",
      "blockHash": "0x1cb866fc6059ed6c10e5873d61eaf196cb6e5df269d866a651a975baf500bba1",
      "blockNumber": "0x16143b8",
      "gasUsed": "0x2448f",
      "effectiveGasPrice": "0xdae2165",
      "from": "0x0562f16415fcf6fb5acaf433e4796f8f328b7c7d",
      "to": "0x5b0cd1f6cb62e8b85b49633ac56b13b9631c68bd",
      "contractAddress": null
    },
    {
      "status": "0x1",
      "cumulativeGasUsed": "0xe4bd26",
      "logs": [
        {
          "address": "0x5b0cd1f6cb62e8b85b49633ac56b13b9631c68bd",
          "topics": [
            "0x5bf90512032b31face99172fdd0ff713670f739af77c985910b93039bf3839fb",
            "0x0000000000000000000000001202f5c7b4b9e47a1a484e8b270be34dbbc75055",
            "0x0000000000000000000000000000000000000000000000000000000000000003"
          ],
          "data": "0x",
          "blockHash": "0x1cb866fc6059ed6c10e5873d61eaf196cb6e5df269d866a651a975baf500bba1",
          "blockNumber": "0x16143b8",
          "blockTimestamp": "0x68a0185f",
          "transactionHash": "0xc909702ff2c523514efba84b66ea00a63e2ce21ab446612aea16b7b9544bfe50",
          "transactionIndex": "0xc8",
          "logIndex": "0x19c",
          "removed": false
        }
      ],
      "logsBloom": "0x00000000000000000000000000000000000000000000000000000000000000000000000800000000001000000000000000000000020000000000000000000000000000000000000000000000000000000000000000000000000000000000000000000000000000000000000000000000000000000000000000000000000000200000000000000000000000000000000000000000000000000000000000002000000000000000000000000000000000000000100000800040000000000000400000000000000000000000000000400000000400000000000000000000000000000000000400000000000000000000000000000000000000000000000000000000",
      "type": "0x2",
      "transactionHash": "0xc909702ff2c523514efba84b66ea00a63e2ce21ab446612aea16b7b9544bfe50",
      "transactionIndex": "0xc8",
      "blockHash": "0x1cb866fc6059ed6c10e5873d61eaf196cb6e5df269d866a651a975baf500bba1",
      "blockNumber": "0x16143b8",
      "gasUsed": "0x2e4b3",
      "effectiveGasPrice": "0xdae2165",
      "from": "0x0562f16415fcf6fb5acaf433e4796f8f328b7c7d",
      "to": "0x5b0cd1f6cb62e8b85b49633ac56b13b9631c68bd",
      "contractAddress": null
    },
    {
      "status": "0x1",
      "cumulativeGasUsed": "0xe744bd",
      "logs": [
        {
          "address": "0x5b0cd1f6cb62e8b85b49633ac56b13b9631c68bd",
          "topics": [
            "0x5bf90512032b31face99172fdd0ff713670f739af77c985910b93039bf3839fb",
            "0x0000000000000000000000007f39c581f595b53c5cb19bd0b3f8da6c935e2ca0",
            "0x0000000000000000000000000000000000000000000000000000000000000004"
          ],
          "data": "0x",
          "blockHash": "0x1cb866fc6059ed6c10e5873d61eaf196cb6e5df269d866a651a975baf500bba1",
          "blockNumber": "0x16143b8",
          "blockTimestamp": "0x68a0185f",
          "transactionHash": "0xa01e9ad1ac18b10f706dd171a7af882e08c25a4e1b50b1ecaac94ca40eaa35c0",
          "transactionIndex": "0xc9",
          "logIndex": "0x19d",
          "removed": false
        }
      ],
      "logsBloom": "0x00000000000000000000000000000000000000000000000000000000000000000000000800000000001000000000000000000000000000000000000000000000000000000000000000000000000000000000000000000000000000000000000008000000000000000000000000000000000000000000000000000000000000200000000000000000000000000000000000000000000000000000000000002000000000000000000000000000000000000000100000000040002000000000000000000000000000000000000000400080000000008000000000000000000000000000000000000000000000000000000000000000004000000000000000000000",
      "type": "0x2",
      "transactionHash": "0xa01e9ad1ac18b10f706dd171a7af882e08c25a4e1b50b1ecaac94ca40eaa35c0",
      "transactionIndex": "0xc9",
      "blockHash": "0x1cb866fc6059ed6c10e5873d61eaf196cb6e5df269d866a651a975baf500bba1",
      "blockNumber": "0x16143b8",
      "gasUsed": "0x28797",
      "effectiveGasPrice": "0xdae2165",
      "from": "0x0562f16415fcf6fb5acaf433e4796f8f328b7c7d",
      "to": "0x5b0cd1f6cb62e8b85b49633ac56b13b9631c68bd",
      "contractAddress": null
    },
    {
      "status": "0x1",
      "cumulativeGasUsed": "0xe9d027",
      "logs": [
        {
          "address": "0x5b0cd1f6cb62e8b85b49633ac56b13b9631c68bd",
          "topics": [
            "0x5bf90512032b31face99172fdd0ff713670f739af77c985910b93039bf3839fb",
            "0x000000000000000000000000657e8c867d8b37dcc18fa4caead9c45eb088c642",
            "0x0000000000000000000000000000000000000000000000000000000000000005"
          ],
          "data": "0x",
          "blockHash": "0x1cb866fc6059ed6c10e5873d61eaf196cb6e5df269d866a651a975baf500bba1",
          "blockNumber": "0x16143b8",
          "blockTimestamp": "0x68a0185f",
          "transactionHash": "0xd437e78a35b06bfbd2aa87649174e91ee87e19f51328d7f14cc58e06cba5a29a",
          "transactionIndex": "0xca",
          "logIndex": "0x19e",
          "removed": false
        }
      ],
      "logsBloom": "0x00000000000000000000000000001000000000000000000000000000000000000000000800000000001000000000000000000000000000000000000000000000000110000000000000000000000000000000000000000000000000000000000000000000000000000000000000000000000000000000000000000000000000200000000000000000000200000000001000000800000000000000000000000000000000000000000000000000000000000000100000000040000000000000000000000000000000000000000000400000000000000000000000000000000000000000000000000000000000000000000000000000000000000000000000000000",
      "type": "0x2",
      "transactionHash": "0xd437e78a35b06bfbd2aa87649174e91ee87e19f51328d7f14cc58e06cba5a29a",
      "transactionIndex": "0xca",
      "blockHash": "0x1cb866fc6059ed6c10e5873d61eaf196cb6e5df269d866a651a975baf500bba1",
      "blockNumber": "0x16143b8",
      "gasUsed": "0x28b6a",
      "effectiveGasPrice": "0xdae2165",
      "from": "0x0562f16415fcf6fb5acaf433e4796f8f328b7c7d",
      "to": "0x5b0cd1f6cb62e8b85b49633ac56b13b9631c68bd",
      "contractAddress": null
    },
    {
      "status": "0x1",
      "cumulativeGasUsed": "0xeabcbe",
      "logs": [
        {
          "address": "0x5b0cd1f6cb62e8b85b49633ac56b13b9631c68bd",
          "topics": [
            "0xe010d4607c87be74896018a7c6ba230e02532b986ba2ee27c1c2174653d68bf0",
            "0xb8d79aff00000000000000000000000000000000000000000000000000000000",
            "0x00000000000000000000000090fc0ede49c68384cb8023c46f9b332104e688a2"
          ],
          "data": "0x",
          "blockHash": "0x1cb866fc6059ed6c10e5873d61eaf196cb6e5df269d866a651a975baf500bba1",
          "blockNumber": "0x16143b8",
          "blockTimestamp": "0x68a0185f",
          "transactionHash": "0x1404dab35e68f33ea72cf84c86152afa64df4cbbf0f6defe501259a1b3e5fbec",
          "transactionIndex": "0xcb",
          "logIndex": "0x19f",
          "removed": false
        }
      ],
      "logsBloom": "0x00000000000000000000000000000000000000000000000000000000000000000000000000000000001000000000000000000040000000000000000000000000000001000000000000000000000000000000000000000000000000000001000000000000000000000000000000000000000000000000080000000000000000000000000000000000000000000000000000000000000000000000000000000000000000000000000000000000000000000000000000000040000000000000000000000000000000008000001000400000000000000000000000000000000000000040000000000000000000000020000000000800000000000000000000000000",
      "type": "0x2",
      "transactionHash": "0x1404dab35e68f33ea72cf84c86152afa64df4cbbf0f6defe501259a1b3e5fbec",
      "transactionIndex": "0xcb",
      "blockHash": "0x1cb866fc6059ed6c10e5873d61eaf196cb6e5df269d866a651a975baf500bba1",
      "blockNumber": "0x16143b8",
      "gasUsed": "0xec97",
      "effectiveGasPrice": "0xdae2165",
      "from": "0x0562f16415fcf6fb5acaf433e4796f8f328b7c7d",
      "to": "0x5b0cd1f6cb62e8b85b49633ac56b13b9631c68bd",
      "contractAddress": null
    },
    {
      "status": "0x1",
      "cumulativeGasUsed": "0xeba93f",
      "logs": [
        {
          "address": "0x5b0cd1f6cb62e8b85b49633ac56b13b9631c68bd",
          "topics": [
            "0xe010d4607c87be74896018a7c6ba230e02532b986ba2ee27c1c2174653d68bf0",
            "0xdff36b2700000000000000000000000000000000000000000000000000000000",
            "0x00000000000000000000000084694814d3d0c1e81c4123db450993d4ed50540a"
          ],
          "data": "0x",
          "blockHash": "0x1cb866fc6059ed6c10e5873d61eaf196cb6e5df269d866a651a975baf500bba1",
          "blockNumber": "0x16143b8",
          "blockTimestamp": "0x68a0185f",
          "transactionHash": "0x1fa552b39a2eeae972d094c0e0707a7eb8ce2d39b054df88f320702986afebf8",
          "transactionIndex": "0xcc",
          "logIndex": "0x1a0",
          "removed": false
        }
      ],
      "logsBloom": "0x00000000000000000000080000000000000000000100000000000000000000000000000000000400001000000000000000000800000000000000000000000000000001000000000000000000000000000000000000000000000000000000000000000000000000000000000000000000000000000000080000000000000000000000000000000000000000000000000000000000000000000000000000000000000000000000000000000000000000000000000000000040000000000000000000000000000000000000000000400000000000002000000000000000000000000040000000000000000000000000000000000000000000000008000000000000",
      "type": "0x2",
      "transactionHash": "0x1fa552b39a2eeae972d094c0e0707a7eb8ce2d39b054df88f320702986afebf8",
      "transactionIndex": "0xcc",
      "blockHash": "0x1cb866fc6059ed6c10e5873d61eaf196cb6e5df269d866a651a975baf500bba1",
      "blockNumber": "0x16143b8",
      "gasUsed": "0xec81",
      "effectiveGasPrice": "0xdae2165",
      "from": "0x0562f16415fcf6fb5acaf433e4796f8f328b7c7d",
      "to": "0x5b0cd1f6cb62e8b85b49633ac56b13b9631c68bd",
      "contractAddress": null
    },
    {
      "status": "0x1",
      "cumulativeGasUsed": "0xfe448a",
      "logs": [],
      "logsBloom": "0x00000000000000000000000000000000000000000000000000000000000000000000000000000000000000000000000000000000000000000000000000000000000000000000000000000000000000000000000000000000000000000000000000000000000000000000000000000000000000000000000000000000000000000000000000000000000000000000000000000000000000000000000000000000000000000000000000000000000000000000000000000000000000000000000000000000000000000000000000000000000000000000000000000000000000000000000000000000000000000000000000000000000000000000000000000000",
      "type": "0x2",
      "transactionHash": "0x1c6c85dc913bf1c08f5afa70b273c892b1a25db8bd40bae718d3856217ba5fe4",
      "transactionIndex": "0xcd",
      "blockHash": "0x1cb866fc6059ed6c10e5873d61eaf196cb6e5df269d866a651a975baf500bba1",
      "blockNumber": "0x16143b8",
      "gasUsed": "0x129b4b",
      "effectiveGasPrice": "0xdae2165",
      "from": "0x0562f16415fcf6fb5acaf433e4796f8f328b7c7d",
      "to": null,
      "contractAddress": "0x3cfeb73c8f798165abb96bae1c74fdc3ad312091"
    },
    {
      "status": "0x1",
      "cumulativeGasUsed": "0x10044a2",
      "logs": [
        {
          "address": "0x5b0cd1f6cb62e8b85b49633ac56b13b9631c68bd",
          "topics": [
            "0xe010d4607c87be74896018a7c6ba230e02532b986ba2ee27c1c2174653d68bf0",
            "0xc40aa19b00000000000000000000000000000000000000000000000000000000",
            "0x0000000000000000000000003cfeb73c8f798165abb96bae1c74fdc3ad312091"
          ],
          "data": "0x",
          "blockHash": "0x1cb866fc6059ed6c10e5873d61eaf196cb6e5df269d866a651a975baf500bba1",
          "blockNumber": "0x16143b8",
          "blockTimestamp": "0x68a0185f",
          "transactionHash": "0x5d16ac990806665e38789a6af08e87211f3e664f1a11486c85c5096d54726ba0",
          "transactionIndex": "0xce",
          "logIndex": "0x1a1",
          "removed": false
        },
        {
          "address": "0x5b0cd1f6cb62e8b85b49633ac56b13b9631c68bd",
          "topics": [
            "0x9149fbd90a70a503766fdffee554ee6764d21df8a33e4c0542a077417a7ce4ec",
            "0x0000000000000000000000003cfeb73c8f798165abb96bae1c74fdc3ad312091",
            "0x0000000000000000000000000000000000000000000000000000000000000001"
          ],
          "data": "0x",
          "blockHash": "0x1cb866fc6059ed6c10e5873d61eaf196cb6e5df269d866a651a975baf500bba1",
          "blockNumber": "0x16143b8",
          "blockTimestamp": "0x68a0185f",
          "transactionHash": "0x5d16ac990806665e38789a6af08e87211f3e664f1a11486c85c5096d54726ba0",
          "transactionIndex": "0xce",
          "logIndex": "0x1a2",
          "removed": false
        }
      ],
      "logsBloom": "0x00000000000000000000000000000000000000000000000000000000000000000000000000000000001000000000000000010000000000100000000000040000000001000000000000000000000000800000000000040000000000000008020000000000000000000000400000000000000000000000080000000000000000000000000000000000000000000000000000000000000800000000000000000000000000000000000000000000000000000000000000000040000000000000000000000000000000000000000000400000000010000000000000000000000040000040000000000000000000004000000000000000000000000000000000000000",
      "type": "0x2",
      "transactionHash": "0x5d16ac990806665e38789a6af08e87211f3e664f1a11486c85c5096d54726ba0",
      "transactionIndex": "0xce",
      "blockHash": "0x1cb866fc6059ed6c10e5873d61eaf196cb6e5df269d866a651a975baf500bba1",
      "blockNumber": "0x16143b8",
      "gasUsed": "0x20018",
      "effectiveGasPrice": "0xdae2165",
      "from": "0x0562f16415fcf6fb5acaf433e4796f8f328b7c7d",
      "to": "0x5b0cd1f6cb62e8b85b49633ac56b13b9631c68bd",
      "contractAddress": null
    },
    {
      "status": "0x1",
      "cumulativeGasUsed": "0x101313c",
      "logs": [
        {
          "address": "0x5b0cd1f6cb62e8b85b49633ac56b13b9631c68bd",
          "topics": [
            "0xe010d4607c87be74896018a7c6ba230e02532b986ba2ee27c1c2174653d68bf0",
            "0xa2ed350f00000000000000000000000000000000000000000000000000000000",
            "0x000000000000000000000000335fae6c17f35981dc45bff302b3187609d489bb"
          ],
          "data": "0x",
          "blockHash": "0x1cb866fc6059ed6c10e5873d61eaf196cb6e5df269d866a651a975baf500bba1",
          "blockNumber": "0x16143b8",
          "blockTimestamp": "0x68a0185f",
          "transactionHash": "0x19c6634786a0035253ee9b0694705c6d2d7d76760377654c62baabbe1b412c42",
          "transactionIndex": "0xcf",
          "logIndex": "0x1a3",
          "removed": false
        }
      ],
      "logsBloom": "0x00000000000000000000000000000000000000000000200000000000000000000000000000000000001000000000000000000000000000000000000004000000000001000000000000000000000000000000000000000000000000000000000000000000002000000000000000000000000000000000080000000000000000000000000000000000000000000000000000000000000000000000000000000000000000000000000000000000000000000000000000000040000000000000000010000000000000000000000000400000000000000000000000000000000000000040000000000000000000000000100000000000000000000000000000000000",
      "type": "0x2",
      "transactionHash": "0x19c6634786a0035253ee9b0694705c6d2d7d76760377654c62baabbe1b412c42",
      "transactionIndex": "0xcf",
      "blockHash": "0x1cb866fc6059ed6c10e5873d61eaf196cb6e5df269d866a651a975baf500bba1",
      "blockNumber": "0x16143b8",
      "gasUsed": "0xec9a",
      "effectiveGasPrice": "0xdae2165",
      "from": "0x0562f16415fcf6fb5acaf433e4796f8f328b7c7d",
      "to": "0x5b0cd1f6cb62e8b85b49633ac56b13b9631c68bd",
      "contractAddress": null
    },
    {
      "status": "0x1",
      "cumulativeGasUsed": "0x102ee9e",
      "logs": [
        {
          "address": "0x5b0cd1f6cb62e8b85b49633ac56b13b9631c68bd",
          "topics": [
            "0xe010d4607c87be74896018a7c6ba230e02532b986ba2ee27c1c2174653d68bf0",
            "0xe361bf2800000000000000000000000000000000000000000000000000000000",
            "0x0000000000000000000000000cc32a96a1d00711479724b5af28d8b4f0e5c757"
          ],
          "data": "0x",
          "blockHash": "0x1cb866fc6059ed6c10e5873d61eaf196cb6e5df269d866a651a975baf500bba1",
          "blockNumber": "0x16143b8",
          "blockTimestamp": "0x68a0185f",
          "transactionHash": "0x71587c0c58ca2c405f1c0276fa6f8c29d933d008118e328e4442db1de4615094",
          "transactionIndex": "0xd0",
          "logIndex": "0x1a4",
          "removed": false
        },
        {
          "address": "0x5b0cd1f6cb62e8b85b49633ac56b13b9631c68bd",
          "topics": [
            "0x9149fbd90a70a503766fdffee554ee6764d21df8a33e4c0542a077417a7ce4ec",
            "0x0000000000000000000000000cc32a96a1d00711479724b5af28d8b4f0e5c757",
            "0x0000000000000000000000000000000000000000000000000000000000000002"
          ],
          "data": "0x",
          "blockHash": "0x1cb866fc6059ed6c10e5873d61eaf196cb6e5df269d866a651a975baf500bba1",
          "blockNumber": "0x16143b8",
          "blockTimestamp": "0x68a0185f",
          "transactionHash": "0x71587c0c58ca2c405f1c0276fa6f8c29d933d008118e328e4442db1de4615094",
          "transactionIndex": "0xd0",
          "logIndex": "0x1a5",
          "removed": false
        }
      ],
      "logsBloom": "0x04000000000000000000000040000002000000000000000000000000000100000000000000000000001000000000000000000000000000000000000000000000000001000000000000000000000000000000000000000000000000000008800000000000000000000000000000000000000000000000080000000000000000000000000000000000000000000000000000000000000800000000000000000000000080000000000000000100000000000000000000000040000000000000000000000100000000000000000000400000000010000000000000000000000000000040000000000000000000000000000000000000008000000000000000000000",
      "type": "0x2",
      "transactionHash": "0x71587c0c58ca2c405f1c0276fa6f8c29d933d008118e328e4442db1de4615094",
      "transactionIndex": "0xd0",
      "blockHash": "0x1cb866fc6059ed6c10e5873d61eaf196cb6e5df269d866a651a975baf500bba1",
      "blockNumber": "0x16143b8",
      "gasUsed": "0x1bd62",
      "effectiveGasPrice": "0xdae2165",
      "from": "0x0562f16415fcf6fb5acaf433e4796f8f328b7c7d",
      "to": "0x5b0cd1f6cb62e8b85b49633ac56b13b9631c68bd",
      "contractAddress": null
    },
    {
      "status": "0x1",
      "cumulativeGasUsed": "0x1366eda",
      "logs": [],
      "logsBloom": "0x00000000000000000000000000000000000000000000000000000000000000000000000000000000000000000000000000000000000000000000000000000000000000000000000000000000000000000000000000000000000000000000000000000000000000000000000000000000000000000000000000000000000000000000000000000000000000000000000000000000000000000000000000000000000000000000000000000000000000000000000000000000000000000000000000000000000000000000000000000000000000000000000000000000000000000000000000000000000000000000000000000000000000000000000000000000",
      "type": "0x2",
      "transactionHash": "0xd78877b25bd901fb7d2b3ecf86123d16bee050f905bf5eccf7e5f19c70d02052",
      "transactionIndex": "0xd1",
      "blockHash": "0x1cb866fc6059ed6c10e5873d61eaf196cb6e5df269d866a651a975baf500bba1",
      "blockNumber": "0x16143b8",
      "gasUsed": "0x33803c",
      "effectiveGasPrice": "0xdae2165",
      "from": "0x0562f16415fcf6fb5acaf433e4796f8f328b7c7d",
      "to": null,
      "contractAddress": "0x10cc5ed26dee943995c2e8505b69a1ad0c144696"
    },
    {
      "status": "0x1",
      "cumulativeGasUsed": "0x1382c91",
      "logs": [
        {
          "address": "0x5b0cd1f6cb62e8b85b49633ac56b13b9631c68bd",
          "topics": [
            "0xe010d4607c87be74896018a7c6ba230e02532b986ba2ee27c1c2174653d68bf0",
            "0x1543aa7000000000000000000000000000000000000000000000000000000000",
            "0x00000000000000000000000010cc5ed26dee943995c2e8505b69a1ad0c144696"
          ],
          "data": "0x",
          "blockHash": "0x1cb866fc6059ed6c10e5873d61eaf196cb6e5df269d866a651a975baf500bba1",
          "blockNumber": "0x16143b8",
          "blockTimestamp": "0x68a0185f",
          "transactionHash": "0x1dec9cb0c424d258a9437f354a1e42f0ea42b5c0757f83ac0659aef8c8030266",
          "transactionIndex": "0xd2",
          "logIndex": "0x1a6",
          "removed": false
        },
        {
          "address": "0x5b0cd1f6cb62e8b85b49633ac56b13b9631c68bd",
          "topics": [
            "0x9149fbd90a70a503766fdffee554ee6764d21df8a33e4c0542a077417a7ce4ec",
            "0x00000000000000000000000010cc5ed26dee943995c2e8505b69a1ad0c144696",
            "0x0000000000000000000000000000000000000000000000000000000000000003"
          ],
          "data": "0x",
          "blockHash": "0x1cb866fc6059ed6c10e5873d61eaf196cb6e5df269d866a651a975baf500bba1",
          "blockNumber": "0x16143b8",
          "blockTimestamp": "0x68a0185f",
          "transactionHash": "0x1dec9cb0c424d258a9437f354a1e42f0ea42b5c0757f83ac0659aef8c8030266",
          "transactionIndex": "0xd2",
          "logIndex": "0x1a7",
          "removed": false
        }
      ],
      "logsBloom": "0x00000000000000000000000000000000000000000000000000000000000200000000000000000000001000020000000000000000020000000000000000000000000001000000000000000000000000000000000000000000000000000008000000000000000000000000000000000000000000000000080000000000000000000000000000000000000008000000000000000000000800000000000000000000000000000000000000000020000000000000000000800040000000000000400000000000000000000000000000400000000010000010000000000000000000000140000000000000000000000000000000000000000000000000000000000000",
      "type": "0x2",
      "transactionHash": "0x1dec9cb0c424d258a9437f354a1e42f0ea42b5c0757f83ac0659aef8c8030266",
      "transactionIndex": "0xd2",
      "blockHash": "0x1cb866fc6059ed6c10e5873d61eaf196cb6e5df269d866a651a975baf500bba1",
      "blockNumber": "0x16143b8",
      "gasUsed": "0x1bdb7",
      "effectiveGasPrice": "0xdae2165",
      "from": "0x0562f16415fcf6fb5acaf433e4796f8f328b7c7d",
      "to": "0x5b0cd1f6cb62e8b85b49633ac56b13b9631c68bd",
      "contractAddress": null
    },
    {
      "status": "0x1",
      "cumulativeGasUsed": "0x139ea4c",
      "logs": [
        {
          "address": "0x5b0cd1f6cb62e8b85b49633ac56b13b9631c68bd",
          "topics": [
            "0xe010d4607c87be74896018a7c6ba230e02532b986ba2ee27c1c2174653d68bf0",
            "0x4703b42600000000000000000000000000000000000000000000000000000000",
            "0x00000000000000000000000086baa92651b5d636c98eb804d24cdd8bf5b1b16d"
          ],
          "data": "0x",
          "blockHash": "0x1cb866fc6059ed6c10e5873d61eaf196cb6e5df269d866a651a975baf500bba1",
          "blockNumber": "0x16143b8",
          "blockTimestamp": "0x68a0185f",
          "transactionHash": "0xf8ca723efc31dfb14d20f043167acd0c5448814bee1e7248daebc13372b52ea4",
          "transactionIndex": "0xd3",
          "logIndex": "0x1a8",
          "removed": false
        },
        {
          "address": "0x5b0cd1f6cb62e8b85b49633ac56b13b9631c68bd",
          "topics": [
            "0x9149fbd90a70a503766fdffee554ee6764d21df8a33e4c0542a077417a7ce4ec",
            "0x00000000000000000000000086baa92651b5d636c98eb804d24cdd8bf5b1b16d",
            "0x0000000000000000000000000000000000000000000000000000000000000004"
          ],
          "data": "0x",
          "blockHash": "0x1cb866fc6059ed6c10e5873d61eaf196cb6e5df269d866a651a975baf500bba1",
          "blockNumber": "0x16143b8",
          "blockTimestamp": "0x68a0185f",
          "transactionHash": "0xf8ca723efc31dfb14d20f043167acd0c5448814bee1e7248daebc13372b52ea4",
          "transactionIndex": "0xd3",
          "logIndex": "0x1a9",
          "removed": false
        }
      ],
      "logsBloom": "0x00000000000000000000000000000000000000000000000000000000000000000000000000000000003000000000000000000000000000000000008000000000000001000000000000000000000000000000000000000000000000000008000008000000000000000000000000000000000000000000080000000000000000000000000000000000000000000020000000000000000800000000000000000000000000000000000000000000020000000000000000000040002000000000000000002000000000000000000000400000000010008000000000000000000000000040004000000000000000000000000000000000000000000000000000000000",
      "type": "0x2",
      "transactionHash": "0xf8ca723efc31dfb14d20f043167acd0c5448814bee1e7248daebc13372b52ea4",
      "transactionIndex": "0xd3",
      "blockHash": "0x1cb866fc6059ed6c10e5873d61eaf196cb6e5df269d866a651a975baf500bba1",
      "blockNumber": "0x16143b8",
      "gasUsed": "0x1bdbb",
      "effectiveGasPrice": "0xdae2165",
      "from": "0x0562f16415fcf6fb5acaf433e4796f8f328b7c7d",
      "to": "0x5b0cd1f6cb62e8b85b49633ac56b13b9631c68bd",
      "contractAddress": null
    },
    {
      "status": "0x1",
      "cumulativeGasUsed": "0x13ba7ae",
      "logs": [
        {
          "address": "0x5b0cd1f6cb62e8b85b49633ac56b13b9631c68bd",
          "topics": [
            "0xe010d4607c87be74896018a7c6ba230e02532b986ba2ee27c1c2174653d68bf0",
            "0x84f8ca1b00000000000000000000000000000000000000000000000000000000",
            "0x00000000000000000000000038f8a1b5423398891d894b1a19e429ec75278c75"
          ],
          "data": "0x",
          "blockHash": "0x1cb866fc6059ed6c10e5873d61eaf196cb6e5df269d866a651a975baf500bba1",
          "blockNumber": "0x16143b8",
          "blockTimestamp": "0x68a0185f",
          "transactionHash": "0x448eb15c43bac6fa3eb9fe3d52c15d56a6a021267d9891e18a05a2457ce19e58",
          "transactionIndex": "0xd4",
          "logIndex": "0x1aa",
          "removed": false
        },
        {
          "address": "0x5b0cd1f6cb62e8b85b49633ac56b13b9631c68bd",
          "topics": [
            "0x9149fbd90a70a503766fdffee554ee6764d21df8a33e4c0542a077417a7ce4ec",
            "0x00000000000000000000000038f8a1b5423398891d894b1a19e429ec75278c75",
            "0x0000000000000000000000000000000000000000000000000000000000000005"
          ],
          "data": "0x",
          "blockHash": "0x1cb866fc6059ed6c10e5873d61eaf196cb6e5df269d866a651a975baf500bba1",
          "blockNumber": "0x16143b8",
          "blockTimestamp": "0x68a0185f",
          "transactionHash": "0x448eb15c43bac6fa3eb9fe3d52c15d56a6a021267d9891e18a05a2457ce19e58",
          "transactionIndex": "0xd4",
          "logIndex": "0x1ab",
          "removed": false
        }
      ],
      "logsBloom": "0x00000000000000000000000000000000000000000000400000000000000000000000000000000000001000000000000000000000000000000000000000000000000011000000000000000000000000000000000010000000000000000008000000000000000000000000000000000000000000000000080000000000000000000000000000000000000000000000001000000800000800000000000000008000000000000000000000000000000000000000010000000040000002000000000000000000000000000000000000400000000010000000000000000000000000000040000000000000000000000000000000000000000000000000000001000000",
      "type": "0x2",
      "transactionHash": "0x448eb15c43bac6fa3eb9fe3d52c15d56a6a021267d9891e18a05a2457ce19e58",
      "transactionIndex": "0xd4",
      "blockHash": "0x1cb866fc6059ed6c10e5873d61eaf196cb6e5df269d866a651a975baf500bba1",
      "blockNumber": "0x16143b8",
      "gasUsed": "0x1bd62",
      "effectiveGasPrice": "0xdae2165",
      "from": "0x0562f16415fcf6fb5acaf433e4796f8f328b7c7d",
      "to": "0x5b0cd1f6cb62e8b85b49633ac56b13b9631c68bd",
      "contractAddress": null
    },
    {
      "status": "0x1",
      "cumulativeGasUsed": "0x13c9419",
      "logs": [
        {
          "address": "0x5b0cd1f6cb62e8b85b49633ac56b13b9631c68bd",
          "topics": [
            "0xe010d4607c87be74896018a7c6ba230e02532b986ba2ee27c1c2174653d68bf0",
            "0xd42a71c900000000000000000000000000000000000000000000000000000000",
            "0x000000000000000000000000b641d7b26cead8b2ae133d56cad1ad3fba1b66f1"
          ],
          "data": "0x",
          "blockHash": "0x1cb866fc6059ed6c10e5873d61eaf196cb6e5df269d866a651a975baf500bba1",
          "blockNumber": "0x16143b8",
          "blockTimestamp": "0x68a0185f",
          "transactionHash": "0x5c928f4e59c2d5ab50a1cebf1c0690fafe07963717b5c2e16ef225fa8bfa736b",
          "transactionIndex": "0xd5",
          "logIndex": "0x1ac",
          "removed": false
        }
      ],
      "logsBloom": "0x00000000000000080000000000000000000000000000000000000000000000000000000000000000001000000000000000000000000000000000000000000000010001000000000000000000000000000000000000000000000000000000000000000000000000000000001000000040000000000000080000000000000000000000000000000000000000000000000000000000000000000000000000000000000000000000000000000000000000000000000000000040000000000000000000400000000000000000000000400000000000000000000000000000000000400040000000000000000000000000000000000000000000000000000000000000",
      "type": "0x2",
      "transactionHash": "0x5c928f4e59c2d5ab50a1cebf1c0690fafe07963717b5c2e16ef225fa8bfa736b",
      "transactionIndex": "0xd5",
      "blockHash": "0x1cb866fc6059ed6c10e5873d61eaf196cb6e5df269d866a651a975baf500bba1",
      "blockNumber": "0x16143b8",
      "gasUsed": "0xec6b",
      "effectiveGasPrice": "0xdae2165",
      "from": "0x0562f16415fcf6fb5acaf433e4796f8f328b7c7d",
      "to": "0x5b0cd1f6cb62e8b85b49633ac56b13b9631c68bd",
      "contractAddress": null
    },
    {
      "status": "0x1",
      "cumulativeGasUsed": "0x13d809a",
      "logs": [
        {
          "address": "0x5b0cd1f6cb62e8b85b49633ac56b13b9631c68bd",
          "topics": [
            "0xe010d4607c87be74896018a7c6ba230e02532b986ba2ee27c1c2174653d68bf0",
            "0xf3e69c2a00000000000000000000000000000000000000000000000000000000",
            "0x0000000000000000000000009f3f7108fad9bedeb028798552682ec9d9cc9c81"
          ],
          "data": "0x",
          "blockHash": "0x1cb866fc6059ed6c10e5873d61eaf196cb6e5df269d866a651a975baf500bba1",
          "blockNumber": "0x16143b8",
          "blockTimestamp": "0x68a0185f",
          "transactionHash": "0xf44efc844a6e46a8b51e3a8e74065f0cbbf0fb68bbaa8dd1b2ce430f58dcb10d",
          "transactionIndex": "0xd6",
          "logIndex": "0x1ad",
          "removed": false
        }
      ],
      "logsBloom": "0x00000000000000000000000000000000000100000000000000000000000000000000000000000000001000000000000000000000000000000000000000000000000001000000800000000000000000000000000000000000000000000000000000000000000000000000000000000000000000000000080000000000000000000000000000000000000000000000000000000000000000000000100000000000000000000000000000000000000000000000000000000040000000000002000000000000000000100000000000400000000000000000000000000000000000000040000000000000000000000000000000000000000000000100000000000000",
      "type": "0x2",
      "transactionHash": "0xf44efc844a6e46a8b51e3a8e74065f0cbbf0fb68bbaa8dd1b2ce430f58dcb10d",
      "transactionIndex": "0xd6",
      "blockHash": "0x1cb866fc6059ed6c10e5873d61eaf196cb6e5df269d866a651a975baf500bba1",
      "blockNumber": "0x16143b8",
      "gasUsed": "0xec81",
      "effectiveGasPrice": "0xdae2165",
      "from": "0x0562f16415fcf6fb5acaf433e4796f8f328b7c7d",
      "to": "0x5b0cd1f6cb62e8b85b49633ac56b13b9631c68bd",
      "contractAddress": null
    },
    {
      "status": "0x1",
      "cumulativeGasUsed": "0x13e6d47",
      "logs": [
        {
          "address": "0x5b0cd1f6cb62e8b85b49633ac56b13b9631c68bd",
          "topics": [
            "0xe010d4607c87be74896018a7c6ba230e02532b986ba2ee27c1c2174653d68bf0",
            "0x513924bb00000000000000000000000000000000000000000000000000000000",
            "0x000000000000000000000000a43e8137eca61183c79a163b35fe1f26115e8777"
          ],
          "data": "0x",
          "blockHash": "0x1cb866fc6059ed6c10e5873d61eaf196cb6e5df269d866a651a975baf500bba1",
          "blockNumber": "0x16143b8",
          "blockTimestamp": "0x68a0185f",
          "transactionHash": "0xfb9aca6f721b77c27c83888b63f7463cbb804eaf43fdae69c29a30e2514c31ec",
          "transactionIndex": "0xd7",
          "logIndex": "0x1ae",
          "removed": false
        }
      ],
      "logsBloom": "0x00000000000000000000000000000000000000000000000000000000000000000000000000000000001000000100000000002000000000000000000000000000000001000000000000000000000000000000000000000000000000000000000000000000000000000000000000000000000000000000080000000000002000000000000000000000000000000080000000000000000000000000000000000000000000000000000000000000000000000000000000000040000000000000000000000000000004000000000000400000000000000000000000000000000000000040000000000000000000010000000000000000000000000000000000000000",
      "type": "0x2",
      "transactionHash": "0xfb9aca6f721b77c27c83888b63f7463cbb804eaf43fdae69c29a30e2514c31ec",
      "transactionIndex": "0xd7",
      "blockHash": "0x1cb866fc6059ed6c10e5873d61eaf196cb6e5df269d866a651a975baf500bba1",
      "blockNumber": "0x16143b8",
      "gasUsed": "0xecad",
      "effectiveGasPrice": "0xdae2165",
      "from": "0x0562f16415fcf6fb5acaf433e4796f8f328b7c7d",
      "to": "0x5b0cd1f6cb62e8b85b49633ac56b13b9631c68bd",
      "contractAddress": null
    },
    {
      "status": "0x1",
      "cumulativeGasUsed": "0x13f59dc",
      "logs": [
        {
          "address": "0x5b0cd1f6cb62e8b85b49633ac56b13b9631c68bd",
          "topics": [
            "0xe010d4607c87be74896018a7c6ba230e02532b986ba2ee27c1c2174653d68bf0",
            "0x3dc5b39a00000000000000000000000000000000000000000000000000000000",
            "0x000000000000000000000000768aaca6230a7c8c46628500cd09ae0096a59d3d"
          ],
          "data": "0x",
          "blockHash": "0x1cb866fc6059ed6c10e5873d61eaf196cb6e5df269d866a651a975baf500bba1",
          "blockNumber": "0x16143b8",
          "blockTimestamp": "0x68a0185f",
          "transactionHash": "0x07a95aef1262dd8150598965b57bcdc06df2994ba2bd21a82a00214e69820bc6",
          "transactionIndex": "0xd8",
          "logIndex": "0x1af",
          "removed": false
        }
      ],
      "logsBloom": "0x00000000000004000000000000000000000000000000000000000000000000000000000000000000001000000000000000000000000000000000000000000000000001000000000000000100000000000000000000000000004000000000000000000000000000000000000000000000000000000000080000000000000000000000000000000000000010000000000000000000000000000000000000000000000000000000000000000000000000000000000000000044000000000000000000000000000000000000000000400000000000000000000000000000000000000040000000000020000000000000000000000000000000000000000000000000",
      "type": "0x2",
      "transactionHash": "0x07a95aef1262dd8150598965b57bcdc06df2994ba2bd21a82a00214e69820bc6",
      "transactionIndex": "0xd8",
      "blockHash": "0x1cb866fc6059ed6c10e5873d61eaf196cb6e5df269d866a651a975baf500bba1",
      "blockNumber": "0x16143b8",
      "gasUsed": "0xec95",
      "effectiveGasPrice": "0xdae2165",
      "from": "0x0562f16415fcf6fb5acaf433e4796f8f328b7c7d",
      "to": "0x5b0cd1f6cb62e8b85b49633ac56b13b9631c68bd",
      "contractAddress": null
    },
    {
      "status": "0x1",
      "cumulativeGasUsed": "0x14046e1",
      "logs": [
        {
          "address": "0x5b0cd1f6cb62e8b85b49633ac56b13b9631c68bd",
          "topics": [
            "0xe010d4607c87be74896018a7c6ba230e02532b986ba2ee27c1c2174653d68bf0",
            "0x94dfa9d400000000000000000000000000000000000000000000000000000000",
            "0x00000000000000000000000018fceaf961efd6c020dfecf2b8ae59253d823f89"
          ],
          "data": "0x",
          "blockHash": "0x1cb866fc6059ed6c10e5873d61eaf196cb6e5df269d866a651a975baf500bba1",
          "blockNumber": "0x16143b8",
          "blockTimestamp": "0x68a0185f",
          "transactionHash": "0x35595ce7ef6e6353dfd5659da2c61ce54b9d24382fbe01b3433aef8abddc4f59",
          "transactionIndex": "0xd9",
          "logIndex": "0x1b0",
          "removed": false
        }
      ],
      "logsBloom": "0x00000000000000000000000000000000000000000000080000200000000000000000000000000000001000000010000000000000000000000000000000000000000001000000000000000000000000000000000000000000000000000000000000000000000000000000080000000000000000000000080000000000000000000000000000000000000000000000000000000000000000000000000040000000000000000000000000000000000000000000000000000040000000000000000000000000000000000000000000400000000000000000000000000000000000000040000000000000000000000000000000000000000000000000000000000002",
      "type": "0x2",
      "transactionHash": "0x35595ce7ef6e6353dfd5659da2c61ce54b9d24382fbe01b3433aef8abddc4f59",
      "transactionIndex": "0xd9",
      "blockHash": "0x1cb866fc6059ed6c10e5873d61eaf196cb6e5df269d866a651a975baf500bba1",
      "blockNumber": "0x16143b8",
      "gasUsed": "0xed05",
      "effectiveGasPrice": "0xdae2165",
      "from": "0x0562f16415fcf6fb5acaf433e4796f8f328b7c7d",
      "to": "0x5b0cd1f6cb62e8b85b49633ac56b13b9631c68bd",
      "contractAddress": null
    },
    {
      "status": "0x1",
      "cumulativeGasUsed": "0x141334c",
      "logs": [
        {
          "address": "0x5b0cd1f6cb62e8b85b49633ac56b13b9631c68bd",
          "topics": [
            "0xe010d4607c87be74896018a7c6ba230e02532b986ba2ee27c1c2174653d68bf0",
            "0x19fc9a4300000000000000000000000000000000000000000000000000000000",
            "0x000000000000000000000000812e3249b0a4bf41fee4201987b4cc4d53bbc3bb"
          ],
          "data": "0x",
          "blockHash": "0x1cb866fc6059ed6c10e5873d61eaf196cb6e5df269d866a651a975baf500bba1",
          "blockNumber": "0x16143b8",
          "blockTimestamp": "0x68a0185f",
          "transactionHash": "0xbec18dae41ddb0a1f7932028f829ae92fd77a1f57716c57930ab680c15fab7a0",
          "transactionIndex": "0xda",
          "logIndex": "0x1b1",
          "removed": false
        }
      ],
      "logsBloom": "0x00000000000000000000000000000000000000000000000000000000080000000000000000000000001080000000000000000000000000000000000040000000000001000000000000000000000000000000000000000000000000000000000000000008000000000000000000000000000000000000080004000000000000000000000000000000000000000000000000000000000000000000000000000000000000000000000000000000000000000000000000000040000000000000000000000000000000000000000000400000000000000000000000000000008000000040000000000000000000000000000000000000000000000000000000000000",
      "type": "0x2",
      "transactionHash": "0xbec18dae41ddb0a1f7932028f829ae92fd77a1f57716c57930ab680c15fab7a0",
      "transactionIndex": "0xda",
      "blockHash": "0x1cb866fc6059ed6c10e5873d61eaf196cb6e5df269d866a651a975baf500bba1",
      "blockNumber": "0x16143b8",
      "gasUsed": "0xec6b",
      "effectiveGasPrice": "0xdae2165",
      "from": "0x0562f16415fcf6fb5acaf433e4796f8f328b7c7d",
      "to": "0x5b0cd1f6cb62e8b85b49633ac56b13b9631c68bd",
      "contractAddress": null
    }
  ],
  "libraries": [],
  "pending": [],
  "returns": {},
  "timestamp": 1755322541,
  "chain": 1,
  "commit": "c18bf4c"
}