{
  "transactions": [
    {
      "hash": "0xefe3d26fc2720c7ee2729d210cb5bdc2c0347931c915a3a0c3d9da2b3b1f4ba8",
      "transactionType": "CALL",
      "contractName": "EulerRouter",
      "contractAddress": "0x41761684acf90bbf7e58e3a7a14d48f778cbb9d5",
      "function": "govSetConfig(address,address,address)",
      "arguments": [
        "0x7f39C581F595B53c5cb19bD0b3f8dA6c935E2Ca0",
        "0xC02aaA39b223FE8D0A0e5C4F27eAD9083C756Cc2",
        "0x7c37aB8Cd76Ee8888ad7F19C1F8a3A6D1622e9B8"
      ],
      "transaction": {
        "from": "0x0562f16415fcf6fb5acaf433e4796f8f328b7c7d",
        "to": "0x41761684acf90bbf7e58e3a7a14d48f778cbb9d5",
        "gas": "0xa7be",
        "value": "0x0",
        "input": "0x06c570c10000000000000000000000007f39c581f595b53c5cb19bd0b3f8da6c935e2ca0000000000000000000000000c02aaa39b223fe8d0a0e5c4f27ead9083c756cc20000000000000000000000007c37ab8cd76ee8888ad7f19c1f8a3a6d1622e9b8",
        "nonce": "0x1f7",
        "chainId": "0x1"
      },
      "additionalContracts": [],
      "isFixedGasLimit": false
    },
    {
      "hash": "0x0b1cf0acc95d76da264a7930d88eb08cda6cc4a9e8ea63cb7f1f3b5448564a16",
      "transactionType": "CREATE",
      "contractName": "CrossAdapter",
      "contractAddress": "0xaa921500cc1048d234c78cdacb7efd8167af2b0c",
      "function": null,
      "arguments": [
        "0xC02aaA39b223FE8D0A0e5C4F27eAD9083C756Cc2",
        "0x0000000000000000000000000000000000000348",
        "0xA0b86991c6218b36c1d19D4a2e9Eb0cE3606eB48",
        "0x10674C8C1aE2072d4a75FE83f1E159425fd84E1D",
        "0x6213f24332D35519039f2afa7e3BffE105a37d3F"
      ],
      "transaction": {
        "from": "0x0562f16415fcf6fb5acaf433e4796f8f328b7c7d",
        "gas": "0xb76da",
        "value": "0x0",
        "input": "0x610120346100ff57601f610aa938819003918201601f19168301916001600160401b038311848410176101035780849260a0946040528339810103126100ff5761004881610117565b9061005560208201610117565b61006160408301610117565b9061007a608061007360608601610117565b9401610117565b9360805260a05260c05260e0526101005260405161097d908161012c82396080518181816102980152610480015260a05181818161012d0152818161052101526106fa015260c0518181816101bc01526104a2015260e05181818160bb0152818161060d015261074401526101005181818161022a0152818161056a01526107e70152f35b5f80fd5b634e487b7160e01b5f52604160045260245ffd5b51906001600160a01b03821682036100ff5756fe60806040526004361015610011575f80fd5b5f3560e01c80630579e61f146103ab57806306fdde03146102bc5780635001f3b51461024e5780636f612f9a146101e0578063999b93af14610172578063ae68676c14610151578063fa074d03146100e35763fd88670014610071575f80fd5b346100df575f7ffffffffffffffffffffffffffffffffffffffffffffffffffffffffffffffffc3601126100df57602060405173ffffffffffffffffffffffffffffffffffffffff7f0000000000000000000000000000000000000000000000000000000000000000168152f35b5f80fd5b346100df575f7ffffffffffffffffffffffffffffffffffffffffffffffffffffffffffffffffc3601126100df57602060405173ffffffffffffffffffffffffffffffffffffffff7f0000000000000000000000000000000000000000000000000000000000000000168152f35b346100df57602061016a610164366103cb565b9161047e565b604051908152f35b346100df575f7ffffffffffffffffffffffffffffffffffffffffffffffffffffffffffffffffc3601126100df57602060405173ffffffffffffffffffffffffffffffffffffffff7f0000000000000000000000000000000000000000000000000000000000000000168152f35b346100df575f7ffffffffffffffffffffffffffffffffffffffffffffffffffffffffffffffffc3601126100df57602060405173ffffffffffffffffffffffffffffffffffffffff7f0000000000000000000000000000000000000000000000000000000000000000168152f35b346100df575f7ffffffffffffffffffffffffffffffffffffffffffffffffffffffffffffffffc3601126100df57602060405173ffffffffffffffffffffffffffffffffffffffff7f0000000000000000000000000000000000000000000000000000000000000000168152f35b346100df575f7ffffffffffffffffffffffffffffffffffffffffffffffffffffffffffffffffc3601126100df576040516040810181811067ffffffffffffffff82111761037e57604052600c8152604060208201917f43726f737341646170746572000000000000000000000000000000000000000083527fffffffffffffffffffffffffffffffffffffffffffffffffffffffffffffffe0601f8351948593602085525180918160208701528686015e5f85828601015201168101030190f35b7f4e487b71000000000000000000000000000000000000000000000000000000005f52604160045260245ffd5b346100df5760406103be610164366103cb565b8151908082526020820152f35b7ffffffffffffffffffffffffffffffffffffffffffffffffffffffffffffffffc60609101126100df576004359060243573ffffffffffffffffffffffffffffffffffffffff811681036100df579060443573ffffffffffffffffffffffffffffffffffffffff811681036100df5790565b90601f7fffffffffffffffffffffffffffffffffffffffffffffffffffffffffffffffe0910116810190811067ffffffffffffffff82111761037e57604052565b7f0000000000000000000000000000000000000000000000000000000000000000927f0000000000000000000000000000000000000000000000000000000000000000926104cf918491869061084d565b156106ad576040517fae68676c000000000000000000000000000000000000000000000000000000008152600481019190915273ffffffffffffffffffffffffffffffffffffffff91821660248201527f00000000000000000000000000000000000000000000000000000000000000009182166044820152906020828060648101038173ffffffffffffffffffffffffffffffffffffffff7f0000000000000000000000000000000000000000000000000000000000000000165afa801561066f575f9061067a575b6040517fae68676c000000000000000000000000000000000000000000000000000000008152600481019190915273ffffffffffffffffffffffffffffffffffffffff918216602482015292166044830152506020818060648101038173ffffffffffffffffffffffffffffffffffffffff7f0000000000000000000000000000000000000000000000000000000000000000165afa90811561066f575f91610640575090565b90506020813d602011610667575b8161065b6020938361043d565b810103126100df575190565b3d915061064e565b6040513d5f823e3d90fd5b506020823d6020116106a5575b816106946020938361043d565b810103126100df5760209151610599565b3d9150610687565b6040517fae68676c000000000000000000000000000000000000000000000000000000008152600481019190915273ffffffffffffffffffffffffffffffffffffffff92831660248201527f0000000000000000000000000000000000000000000000000000000000000000928316604482015290916020828060648101038173ffffffffffffffffffffffffffffffffffffffff7f0000000000000000000000000000000000000000000000000000000000000000165afa801561066f575f9061081a575b6040517fae68676c000000000000000000000000000000000000000000000000000000008152600481019190915273ffffffffffffffffffffffffffffffffffffffff918216602482015292166044830152506020818060648101038173ffffffffffffffffffffffffffffffffffffffff7f0000000000000000000000000000000000000000000000000000000000000000165afa90811561066f575f91610640575090565b506020823d602011610845575b816108346020938361043d565b810103126100df5760209151610773565b3d9150610827565b9073ffffffffffffffffffffffffffffffffffffffff80919493941691169181831480610912575b61090a5773ffffffffffffffffffffffffffffffffffffffff16821490816108ea575b506108e35773ffffffffffffffffffffffffffffffffffffffff92507f4ca22af0000000000000000000000000000000000000000000000000000000005f526004521660245260445ffd5b5050600190565b905073ffffffffffffffffffffffffffffffffffffffff8316145f610898565b505050505f90565b5073ffffffffffffffffffffffffffffffffffffffff811673ffffffffffffffffffffffffffffffffffffffff85161461087556fea2646970667358221220a546e07024cd7d8b159036cf9710b1ffe243c447e0df131cf55fc48c42c524f264736f6c634300081c0033000000000000000000000000c02aaa39b223fe8d0a0e5c4f27ead9083c756cc20000000000000000000000000000000000000000000000000000000000000348000000000000000000000000a0b86991c6218b36c1d19d4a2e9eb0ce3606eb4800000000000000000000000010674c8c1ae2072d4a75fe83f1e159425fd84e1d0000000000000000000000006213f24332d35519039f2afa7e3bffe105a37d3f",
        "nonce": "0x1f8",
        "chainId": "0x1"
      },
      "additionalContracts": [],
      "isFixedGasLimit": false
    },
    {
      "hash": "0x404c0150a4ce9ba9ae2d6679ae990d1d6e410caf45eca0cd8cb78d5fbeda8662",
      "transactionType": "CALL",
      "contractName": "EulerRouter",
      "contractAddress": "0x41761684acf90bbf7e58e3a7a14d48f778cbb9d5",
      "function": "govSetConfig(address,address,address)",
      "arguments": [
        "0xC02aaA39b223FE8D0A0e5C4F27eAD9083C756Cc2",
        "0xA0b86991c6218b36c1d19D4a2e9Eb0cE3606eB48",
        "0xaa921500cC1048d234C78CDaCb7eFD8167AF2b0c"
      ],
      "transaction": {
        "from": "0x0562f16415fcf6fb5acaf433e4796f8f328b7c7d",
        "to": "0x41761684acf90bbf7e58e3a7a14d48f778cbb9d5",
        "gas": "0x109c8",
        "value": "0x0",
        "input": "0x06c570c1000000000000000000000000c02aaa39b223fe8d0a0e5c4f27ead9083c756cc2000000000000000000000000a0b86991c6218b36c1d19d4a2e9eb0ce3606eb48000000000000000000000000aa921500cc1048d234c78cdacb7efd8167af2b0c",
        "nonce": "0x1f9",
        "chainId": "0x1"
      },
      "additionalContracts": [],
      "isFixedGasLimit": false
    }
  ],
  "receipts": [
    {
      "status": "0x1",
      "cumulativeGasUsed": "0x8c8707",
      "logs": [
        {
          "address": "0x41761684acf90bbf7e58e3a7a14d48f778cbb9d5",
          "topics": [
            "0x4ac83f39568b63f952374c82351889b07aff4f7e261232a20ba5a2a6d82b9ce0",
            "0x0000000000000000000000007f39c581f595b53c5cb19bd0b3f8da6c935e2ca0",
            "0x000000000000000000000000c02aaa39b223fe8d0a0e5c4f27ead9083c756cc2",
            "0x0000000000000000000000007c37ab8cd76ee8888ad7f19c1f8a3a6d1622e9b8"
          ],
          "data": "0x",
          "blockHash": "0xa136071f5ca709b159849adf2f41f5c3c0aa0624f32dcfe2d30d11b24a7a8063",
          "blockNumber": "0x15f3857",
          "blockTimestamp": "0x688768eb",
          "transactionHash": "0xefe3d26fc2720c7ee2729d210cb5bdc2c0347931c915a3a0c3d9da2b3b1f4ba8",
          "transactionIndex": "0x58",
          "logIndex": "0x130",
          "removed": false
        }
      ],
      "logsBloom": "0x00000000000020000000000000002400000000000008000000000000000000000000000000000000000000000000000000008000000000000000000000000000000010000000000000000000000000800000000000000000000000000000000000000000000000000000000000000000000000000000000000000000000000000000000000000000000000400000000000004000000000000000000000002000000000000000000000000000000000000000000000000000000000000000000000000000000000000000000000080080400000000000000000000000000000000000000000000000000000000000000000000000004002000000000000000000",
      "type": "0x2",
      "transactionHash": "0xefe3d26fc2720c7ee2729d210cb5bdc2c0347931c915a3a0c3d9da2b3b1f4ba8",
      "transactionIndex": "0x58",
      "blockHash": "0xa136071f5ca709b159849adf2f41f5c3c0aa0624f32dcfe2d30d11b24a7a8063",
      "blockNumber": "0x15f3857",
      "gasUsed": "0x72b3",
      "effectiveGasPrice": "0x12bc118d",
      "from": "0x0562f16415fcf6fb5acaf433e4796f8f328b7c7d",
      "to": "0x41761684acf90bbf7e58e3a7a14d48f778cbb9d5",
      "contractAddress": null
    },
    {
      "status": "0x1",
      "cumulativeGasUsed": "0x95589b",
      "logs": [],
      "logsBloom": "0x00000000000000000000000000000000000000000000000000000000000000000000000000000000000000000000000000000000000000000000000000000000000000000000000000000000000000000000000000000000000000000000000000000000000000000000000000000000000000000000000000000000000000000000000000000000000000000000000000000000000000000000000000000000000000000000000000000000000000000000000000000000000000000000000000000000000000000000000000000000000000000000000000000000000000000000000000000000000000000000000000000000000000000000000000000000",
      "type": "0x2",
      "transactionHash": "0x0b1cf0acc95d76da264a7930d88eb08cda6cc4a9e8ea63cb7f1f3b5448564a16",
      "transactionIndex": "0x59",
      "blockHash": "0xa136071f5ca709b159849adf2f41f5c3c0aa0624f32dcfe2d30d11b24a7a8063",
      "blockNumber": "0x15f3857",
      "gasUsed": "0x8d194",
      "effectiveGasPrice": "0x12bc118d",
      "from": "0x0562f16415fcf6fb5acaf433e4796f8f328b7c7d",
      "to": null,
      "contractAddress": "0xaa921500cc1048d234c78cdacb7efd8167af2b0c"
    },
    {
      "status": "0x1",
      "cumulativeGasUsed": "0x961908",
      "logs": [
        {
          "address": "0x41761684acf90bbf7e58e3a7a14d48f778cbb9d5",
          "topics": [
            "0x4ac83f39568b63f952374c82351889b07aff4f7e261232a20ba5a2a6d82b9ce0",
            "0x000000000000000000000000a0b86991c6218b36c1d19d4a2e9eb0ce3606eb48",
            "0x000000000000000000000000c02aaa39b223fe8d0a0e5c4f27ead9083c756cc2",
            "0x000000000000000000000000aa921500cc1048d234c78cdacb7efd8167af2b0c"
          ],
          "data": "0x",
          "blockHash": "0xa136071f5ca709b159849adf2f41f5c3c0aa0624f32dcfe2d30d11b24a7a8063",
          "blockNumber": "0x15f3857",
          "blockTimestamp": "0x688768eb",
          "transactionHash": "0x404c0150a4ce9ba9ae2d6679ae990d1d6e410caf45eca0cd8cb78d5fbeda8662",
          "transactionIndex": "0x5a",
          "logIndex": "0x131",
          "removed": false
        }
      ],
      "logsBloom": "0x00000000000020000000000000002400000000000008000000000000000000000000000000000000000002000000000000000000000000000000000000000000000010000000000000000000000000800000000000000000000000000000000000000000000000000000000000000000000000000000000000000000000000000000000000000000000000400000000200000000000000000000000000000000000000000000000000000000000080000000000020000000000000000000002000000000000000000000000000080000000000000000000000000000000000000000000000000000000000000000000004000000000002000000000000000000",
      "type": "0x2",
      "transactionHash": "0x404c0150a4ce9ba9ae2d6679ae990d1d6e410caf45eca0cd8cb78d5fbeda8662",
      "transactionIndex": "0x5a",
      "blockHash": "0xa136071f5ca709b159849adf2f41f5c3c0aa0624f32dcfe2d30d11b24a7a8063",
      "blockNumber": "0x15f3857",
      "gasUsed": "0xc06d",
      "effectiveGasPrice": "0x12bc118d",
      "from": "0x0562f16415fcf6fb5acaf433e4796f8f328b7c7d",
      "to": "0x41761684acf90bbf7e58e3a7a14d48f778cbb9d5",
      "contractAddress": null
    }
  ],
  "libraries": [],
  "pending": [],
  "returns": {},
  "timestamp": 1753704705,
  "chain": 1,
  "commit": "d89ad61"
}