{
  "transactions": [
    {
      "hash": "0xb007b651bf3d5ab71e9b56383c570ec2c8338584916b9d43997616abb6267bb0",
      "transactionType": "CREATE",
      "contractName": "FixedRateOracle",
      "contractAddress": "0x242ed4bfc5c2fdfc0b38f634f49b5e9fafa0f9b0",
      "function": null,
      "arguments": [
        "0x98C23E9d8f34FEFb1B7BD6a91B7FF122F4e16F5c",
        "0xA0b86991c6218b36c1d19D4a2e9Eb0cE3606eB48",
        "1000000"
      ],
      "transaction": {
        "from": "0x0562f16415fcf6fb5acaf433e4796f8f328b7c7d",
        "gas": "0x87e0f",
        "value": "0x0",
        "input": "0x610100806040523461013a5760608161088b8038038091610020828561013e565b83398101031261013a5761003381610175565b604061004160208401610175565b920151801561012b57610065928260805260a05260c05260018060a01b0316610189565b60a05161007a906001600160a01b0316610189565b9060ff808316911681019060ff821161011757602610801561010a575b6100fb576100a76100b091610240565b60801b91610240565b1760e052604051610639908161025282396080518181816101380152610362015260a05181818160ca0152610340015260c05181818161019101526103ac015260e0518161038a0152f35b6302950f9560e51b5f5260045ffd5b50602660ff821611610097565b634e487b7160e01b5f52601160045260245ffd5b6301a4c16560e21b5f5260045ffd5b5f80fd5b601f909101601f19168101906001600160401b0382119082101761016157604052565b634e487b7160e01b5f52604160045260245ffd5b51906001600160a01b038216820361013a57565b63ffffffff6001600160a01b0382161115610227575f8091604051602081019063313ce56760e01b8252600481526101c260248261013e565b51915afa3d15610238573d906001600160401b03821161016157604051916101f4601f8201601f19166020018461013e565b82523d5f602084013e5b8061022d575b156102275760208180518101031261013a576020015160ff8116810361013a5790565b50601290565b506020815114610204565b6060906101fe565b60ff16604d811161011757600a0a9056fe60806040526004361015610011575f80fd5b5f3560e01c80630579e61f146102a357806306fdde03146101b45780632c4e722e1461015c5780635001f3b5146100ee578063999b93af146100805763ae68676c1461005b575f80fd5b3461007c57602061007461006e366102c3565b91610335565b604051908152f35b5f80fd5b3461007c575f7ffffffffffffffffffffffffffffffffffffffffffffffffffffffffffffffffc36011261007c57602060405173ffffffffffffffffffffffffffffffffffffffff7f0000000000000000000000000000000000000000000000000000000000000000168152f35b3461007c575f7ffffffffffffffffffffffffffffffffffffffffffffffffffffffffffffffffc36011261007c57602060405173ffffffffffffffffffffffffffffffffffffffff7f0000000000000000000000000000000000000000000000000000000000000000168152f35b3461007c575f7ffffffffffffffffffffffffffffffffffffffffffffffffffffffffffffffffc36011261007c5760206040517f00000000000000000000000000000000000000000000000000000000000000008152f35b3461007c575f7ffffffffffffffffffffffffffffffffffffffffffffffffffffffffffffffffc36011261007c576040516040810181811067ffffffffffffffff82111761027657604052600f8152604060208201917f4669786564526174654f7261636c65000000000000000000000000000000000083527fffffffffffffffffffffffffffffffffffffffffffffffffffffffffffffffe0601f8351948593602085525180918160208701528686015e5f85828601015201168101030190f35b7f4e487b71000000000000000000000000000000000000000000000000000000005f52604160045260245ffd5b3461007c5760406102b661006e366102c3565b8151908082526020820152f35b7ffffffffffffffffffffffffffffffffffffffffffffffffffffffffffffffffc606091011261007c576004359060243573ffffffffffffffffffffffffffffffffffffffff8116810361007c579060443573ffffffffffffffffffffffffffffffffffffffff8116810361007c5790565b90610387906103d1937f0000000000000000000000000000000000000000000000000000000000000000917f0000000000000000000000000000000000000000000000000000000000000000906103d4565b907f0000000000000000000000000000000000000000000000000000000000000000907f00000000000000000000000000000000000000000000000000000000000000009061050e565b90565b9073ffffffffffffffffffffffffffffffffffffffff80919493941691169181831480610499575b6104915773ffffffffffffffffffffffffffffffffffffffff1682149081610471575b5061046a5773ffffffffffffffffffffffffffffffffffffffff92507f4ca22af0000000000000000000000000000000000000000000000000000000005f526004521660245260445ffd5b5050600190565b905073ffffffffffffffffffffffffffffffffffffffff8316145f61041f565b505050505f90565b5073ffffffffffffffffffffffffffffffffffffffff811673ffffffffffffffffffffffffffffffffffffffff8516146103fc565b818102929181159184041417156104e157565b7f4e487b71000000000000000000000000000000000000000000000000000000005f52601160045260245ffd5b92608083901c926fffffffffffffffffffffffffffffffff169015610542576103d193929161053c916104ce565b91610552565b6103d19391610550916104ce565b905b9190808302927fffffffffffffffffffffffffffffffffffffffffffffffffffffffffffffffff82820991848310850180840393146105f557828411156105e85783910990825f03831680930480600302600218808202600203028082026002030280820260020302808202600203028082026002030280910260020302936001848483030494805f0304019211900302170290565b63ae47f7025f526004601cfd5b5050509081156105e857049056fea2646970667358221220185df20ce9dc065a58799ff19d9c68979b878f331e8d9adb1fa37115faaf7e9364736f6c634300081c003300000000000000000000000098c23e9d8f34fefb1b7bd6a91b7ff122f4e16f5c000000000000000000000000a0b86991c6218b36c1d19d4a2e9eb0ce3606eb4800000000000000000000000000000000000000000000000000000000000f4240",
        "nonce": "0x14e",
        "chainId": "0x1"
      },
      "additionalContracts": [],
      "isFixedGasLimit": false
    },
    {
      "hash": "0xb0f581e8fefd962793aac5f205a8e3bc3026d0ead390fc066da1eb17f6e8d4e3",
      "transactionType": "CALL",
      "contractName": "EulerRouter",
      "contractAddress": "0x41761684acf90bbf7e58e3a7a14d48f778cbb9d5",
      "function": "govSetConfig(address,address,address)",
      "arguments": [
        "0x98C23E9d8f34FEFb1B7BD6a91B7FF122F4e16F5c",
        "0xA0b86991c6218b36c1d19D4a2e9Eb0cE3606eB48",
        "0x242ed4bFc5C2fdfc0b38F634F49b5e9fAFa0f9b0"
      ],
      "transaction": {
        "from": "0x0562f16415fcf6fb5acaf433e4796f8f328b7c7d",
        "to": "0x41761684acf90bbf7e58e3a7a14d48f778cbb9d5",
        "gas": "0x109cb",
        "value": "0x0",
        "input": "0x06c570c100000000000000000000000098c23e9d8f34fefb1b7bd6a91b7ff122f4e16f5c000000000000000000000000a0b86991c6218b36c1d19d4a2e9eb0ce3606eb48000000000000000000000000242ed4bfc5c2fdfc0b38f634f49b5e9fafa0f9b0",
        "nonce": "0x14f",
        "chainId": "0x1"
      },
      "additionalContracts": [],
      "isFixedGasLimit": false
    },
    {
      "hash": "0xb3ca833fbd6a96646c4f0ac9f0c678c9682d44cece490ff8aa814e077817969b",
      "transactionType": "CREATE",
      "contractName": "CrossAdapter",
      "contractAddress": "0x77ab13b31d2b3aa01438fb3532de800191d14220",
      "function": null,
      "arguments": [
        "0x9D39A5DE30e57443BfF2A8307A4256c8797A3497",
        "0x0000000000000000000000000000000000000348",
        "0xA0b86991c6218b36c1d19D4a2e9Eb0cE3606eB48",
        "0xD4fF9D4e0A3E5995A0E040632F34271b2e9c8a42",
        "0x6213f24332D35519039f2afa7e3BffE105a37d3F"
      ],
      "transaction": {
        "from": "0x0562f16415fcf6fb5acaf433e4796f8f328b7c7d",
        "gas": "0xb76da",
        "value": "0x0",
        "input": "0x610120346100ff57601f610aa938819003918201601f19168301916001600160401b038311848410176101035780849260a0946040528339810103126100ff5761004881610117565b9061005560208201610117565b61006160408301610117565b9061007a608061007360608601610117565b9401610117565b9360805260a05260c05260e0526101005260405161097d908161012c82396080518181816102980152610480015260a05181818161012d0152818161052101526106fa015260c0518181816101bc01526104a2015260e05181818160bb0152818161060d015261074401526101005181818161022a0152818161056a01526107e70152f35b5f80fd5b634e487b7160e01b5f52604160045260245ffd5b51906001600160a01b03821682036100ff5756fe60806040526004361015610011575f80fd5b5f3560e01c80630579e61f146103ab57806306fdde03146102bc5780635001f3b51461024e5780636f612f9a146101e0578063999b93af14610172578063ae68676c14610151578063fa074d03146100e35763fd88670014610071575f80fd5b346100df575f7ffffffffffffffffffffffffffffffffffffffffffffffffffffffffffffffffc3601126100df57602060405173ffffffffffffffffffffffffffffffffffffffff7f0000000000000000000000000000000000000000000000000000000000000000168152f35b5f80fd5b346100df575f7ffffffffffffffffffffffffffffffffffffffffffffffffffffffffffffffffc3601126100df57602060405173ffffffffffffffffffffffffffffffffffffffff7f0000000000000000000000000000000000000000000000000000000000000000168152f35b346100df57602061016a610164366103cb565b9161047e565b604051908152f35b346100df575f7ffffffffffffffffffffffffffffffffffffffffffffffffffffffffffffffffc3601126100df57602060405173ffffffffffffffffffffffffffffffffffffffff7f0000000000000000000000000000000000000000000000000000000000000000168152f35b346100df575f7ffffffffffffffffffffffffffffffffffffffffffffffffffffffffffffffffc3601126100df57602060405173ffffffffffffffffffffffffffffffffffffffff7f0000000000000000000000000000000000000000000000000000000000000000168152f35b346100df575f7ffffffffffffffffffffffffffffffffffffffffffffffffffffffffffffffffc3601126100df57602060405173ffffffffffffffffffffffffffffffffffffffff7f0000000000000000000000000000000000000000000000000000000000000000168152f35b346100df575f7ffffffffffffffffffffffffffffffffffffffffffffffffffffffffffffffffc3601126100df576040516040810181811067ffffffffffffffff82111761037e57604052600c8152604060208201917f43726f737341646170746572000000000000000000000000000000000000000083527fffffffffffffffffffffffffffffffffffffffffffffffffffffffffffffffe0601f8351948593602085525180918160208701528686015e5f85828601015201168101030190f35b7f4e487b71000000000000000000000000000000000000000000000000000000005f52604160045260245ffd5b346100df5760406103be610164366103cb565b8151908082526020820152f35b7ffffffffffffffffffffffffffffffffffffffffffffffffffffffffffffffffc60609101126100df576004359060243573ffffffffffffffffffffffffffffffffffffffff811681036100df579060443573ffffffffffffffffffffffffffffffffffffffff811681036100df5790565b90601f7fffffffffffffffffffffffffffffffffffffffffffffffffffffffffffffffe0910116810190811067ffffffffffffffff82111761037e57604052565b7f0000000000000000000000000000000000000000000000000000000000000000927f0000000000000000000000000000000000000000000000000000000000000000926104cf918491869061084d565b156106ad576040517fae68676c000000000000000000000000000000000000000000000000000000008152600481019190915273ffffffffffffffffffffffffffffffffffffffff91821660248201527f00000000000000000000000000000000000000000000000000000000000000009182166044820152906020828060648101038173ffffffffffffffffffffffffffffffffffffffff7f0000000000000000000000000000000000000000000000000000000000000000165afa801561066f575f9061067a575b6040517fae68676c000000000000000000000000000000000000000000000000000000008152600481019190915273ffffffffffffffffffffffffffffffffffffffff918216602482015292166044830152506020818060648101038173ffffffffffffffffffffffffffffffffffffffff7f0000000000000000000000000000000000000000000000000000000000000000165afa90811561066f575f91610640575090565b90506020813d602011610667575b8161065b6020938361043d565b810103126100df575190565b3d915061064e565b6040513d5f823e3d90fd5b506020823d6020116106a5575b816106946020938361043d565b810103126100df5760209151610599565b3d9150610687565b6040517fae68676c000000000000000000000000000000000000000000000000000000008152600481019190915273ffffffffffffffffffffffffffffffffffffffff92831660248201527f0000000000000000000000000000000000000000000000000000000000000000928316604482015290916020828060648101038173ffffffffffffffffffffffffffffffffffffffff7f0000000000000000000000000000000000000000000000000000000000000000165afa801561066f575f9061081a575b6040517fae68676c000000000000000000000000000000000000000000000000000000008152600481019190915273ffffffffffffffffffffffffffffffffffffffff918216602482015292166044830152506020818060648101038173ffffffffffffffffffffffffffffffffffffffff7f0000000000000000000000000000000000000000000000000000000000000000165afa90811561066f575f91610640575090565b506020823d602011610845575b816108346020938361043d565b810103126100df5760209151610773565b3d9150610827565b9073ffffffffffffffffffffffffffffffffffffffff80919493941691169181831480610912575b61090a5773ffffffffffffffffffffffffffffffffffffffff16821490816108ea575b506108e35773ffffffffffffffffffffffffffffffffffffffff92507f4ca22af0000000000000000000000000000000000000000000000000000000005f526004521660245260445ffd5b5050600190565b905073ffffffffffffffffffffffffffffffffffffffff8316145f610898565b505050505f90565b5073ffffffffffffffffffffffffffffffffffffffff811673ffffffffffffffffffffffffffffffffffffffff85161461087556fea2646970667358221220a546e07024cd7d8b159036cf9710b1ffe243c447e0df131cf55fc48c42c524f264736f6c634300081c00330000000000000000000000009d39a5de30e57443bff2a8307a4256c8797a34970000000000000000000000000000000000000000000000000000000000000348000000000000000000000000a0b86991c6218b36c1d19d4a2e9eb0ce3606eb48000000000000000000000000d4ff9d4e0a3e5995a0e040632f34271b2e9c8a420000000000000000000000006213f24332d35519039f2afa7e3bffe105a37d3f",
        "nonce": "0x150",
        "chainId": "0x1"
      },
      "additionalContracts": [],
      "isFixedGasLimit": false
    },
    {
      "hash": "0x3213d245910fcc8790f4db51250d51d4e6e3ec26d2e620e3dd1e03016c2582ac",
      "transactionType": "CALL",
      "contractName": "EulerRouter",
      "contractAddress": "0x41761684acf90bbf7e58e3a7a14d48f778cbb9d5",
      "function": "govSetConfig(address,address,address)",
      "arguments": [
        "0x9D39A5DE30e57443BfF2A8307A4256c8797A3497",
        "0xA0b86991c6218b36c1d19D4a2e9Eb0cE3606eB48",
        "0x77Ab13B31d2B3Aa01438fB3532dE800191d14220"
      ],
      "transaction": {
        "from": "0x0562f16415fcf6fb5acaf433e4796f8f328b7c7d",
        "to": "0x41761684acf90bbf7e58e3a7a14d48f778cbb9d5",
        "gas": "0x109cb",
        "value": "0x0",
        "input": "0x06c570c10000000000000000000000009d39a5de30e57443bff2a8307a4256c8797a3497000000000000000000000000a0b86991c6218b36c1d19d4a2e9eb0ce3606eb4800000000000000000000000077ab13b31d2b3aa01438fb3532de800191d14220",
        "nonce": "0x151",
        "chainId": "0x1"
      },
      "additionalContracts": [],
      "isFixedGasLimit": false
    },
    {
      "hash": "0x8c8ea7f7b87fdc821b25d91e266e292d664a24fc9e22eb8ac2aecedfab5e0027",
      "transactionType": "CALL",
      "contractName": "EulerRouter",
      "contractAddress": "0x41761684acf90bbf7e58e3a7a14d48f778cbb9d5",
      "function": "govSetResolvedVault(address,bool)",
      "arguments": [
        "0x1202F5C7b4B9E47a1A484E8B270be34dbbC75055",
        "true"
      ],
      "transaction": {
        "from": "0x0562f16415fcf6fb5acaf433e4796f8f328b7c7d",
        "to": "0x41761684acf90bbf7e58e3a7a14d48f778cbb9d5",
        "gas": "0x13a52",
        "value": "0x0",
        "input": "0xd6c029260000000000000000000000001202f5c7b4b9e47a1a484e8b270be34dbbc750550000000000000000000000000000000000000000000000000000000000000001",
        "nonce": "0x152",
        "chainId": "0x1"
      },
      "additionalContracts": [],
      "isFixedGasLimit": false
    },
    {
      "hash": "0x7cb21727a4eeeba23e17a9116719881626315092a06ebf08ba67ed47151ebae2",
      "transactionType": "CREATE",
      "contractName": "ChainlinkOracle",
      "contractAddress": "0xb7060a8485307eee17ebbaeeb1bf74b5b8935e71",
      "function": null,
      "arguments": [
        "0x66a1E37c9b0eAddca17d3662D6c05F4DECf3e110",
        "0x0000000000000000000000000000000000000348",
        "0x34ad75691e25A8E9b681AAA85dbeB7ef6561B42c",
        "129600"
      ],
      "transaction": {
        "from": "0x0562f16415fcf6fb5acaf433e4796f8f328b7c7d",
        "gas": "0xaa7d3",
        "value": "0x0",
        "input": "0x61012080604052346101ed57608081610b5d803803809161002082856101f1565b8339810103126101ed5761003381610228565b61003f60208301610228565b91606061004e60408301610228565b91015190603c821080156101e1575b6101d25761007f938360805260a05260c05260e05260018060a01b0316610255565b60a051600490610097906001600160a01b0316610255565b60c05160405163313ce56760e01b81529193919260209184919082906001600160a01b03165afa9182156101c7575f92610191575b5060ff80911691160160ff811161017d57602660ff8316118015610170575b610161576100fb61010491610304565b60801b91610304565b17610100526040516108479081610316823960805181818161019b01526103f0015260a05181818160d501526103ce015260c0518181816102090152610459015260e05181818161012e015261049f015261010051816104cf0152f35b6302950f9560e51b5f5260045ffd5b50602660ff8216116100eb565b634e487b7160e01b5f52601160045260245ffd5b60ff9192506101b8829160203d6020116101c0575b6101b081836101f1565b81019061023c565b9291506100cc565b503d6101a6565b6040513d5f823e3d90fd5b6301a4c16560e21b5f5260045ffd5b506203f480821161005d565b5f80fd5b601f909101601f19168101906001600160401b0382119082101761021457604052565b634e487b7160e01b5f52604160045260245ffd5b51906001600160a01b03821682036101ed57565b908160209103126101ed575160ff811681036101ed5790565b63ffffffff6001600160a01b03821611156102eb575f8091604051602081019063313ce56760e01b82526004815261028e6024826101f1565b51915afa3d156102fc573d906001600160401b03821161021457604051916102c0601f8201601f1916602001846101f1565b82523d5f602084013e5b806102f1575b156102eb57806020806102e89351830101910161023c565b90565b50601290565b5060208151146102d0565b6060906102ca565b60ff16604d811161017d57600a0a9056fe60806040526004361015610011575f80fd5b5f3560e01c80630579e61f1461031c57806306fdde031461022d57806337a7b7d8146101bf5780635001f3b51461015157806387cf4696146100f9578063999b93af1461008b5763ae68676c14610066575f80fd5b3461008757602061007f6100793661033c565b916103c5565b604051908152f35b5f80fd5b34610087575f7ffffffffffffffffffffffffffffffffffffffffffffffffffffffffffffffffc36011261008757602060405173ffffffffffffffffffffffffffffffffffffffff7f0000000000000000000000000000000000000000000000000000000000000000168152f35b34610087575f7ffffffffffffffffffffffffffffffffffffffffffffffffffffffffffffffffc3601126100875760206040517f00000000000000000000000000000000000000000000000000000000000000008152f35b34610087575f7ffffffffffffffffffffffffffffffffffffffffffffffffffffffffffffffffc36011261008757602060405173ffffffffffffffffffffffffffffffffffffffff7f0000000000000000000000000000000000000000000000000000000000000000168152f35b34610087575f7ffffffffffffffffffffffffffffffffffffffffffffffffffffffffffffffffc36011261008757602060405173ffffffffffffffffffffffffffffffffffffffff7f0000000000000000000000000000000000000000000000000000000000000000168152f35b34610087575f7ffffffffffffffffffffffffffffffffffffffffffffffffffffffffffffffffc360112610087576040516040810181811067ffffffffffffffff8211176102ef57604052600f8152604060208201917f436861696e6c696e6b4f7261636c65000000000000000000000000000000000083527fffffffffffffffffffffffffffffffffffffffffffffffffffffffffffffffe0601f8351948593602085525180918160208701528686015e5f85828601015201168101030190f35b7f4e487b71000000000000000000000000000000000000000000000000000000005f52604160045260245ffd5b3461008757604061032f6100793661033c565b8151908082526020820152f35b7ffffffffffffffffffffffffffffffffffffffffffffffffffffffffffffffffc6060910112610087576004359060243573ffffffffffffffffffffffffffffffffffffffff81168103610087579060443573ffffffffffffffffffffffffffffffffffffffff811681036100875790565b519069ffffffffffffffffffff8216820361008757565b929190610415917f0000000000000000000000000000000000000000000000000000000000000000917f00000000000000000000000000000000000000000000000000000000000000009061060f565b604051927ffeaf968c00000000000000000000000000000000000000000000000000000000845260a08460048173ffffffffffffffffffffffffffffffffffffffff7f0000000000000000000000000000000000000000000000000000000000000000165afa8015610604575f945f9161057c575b505f85131561055457420393428511610527577f0000000000000000000000000000000000000000000000000000000000000000948581116104f757506104f49394507f00000000000000000000000000000000000000000000000000000000000000009161071c565b90565b85907fa6e68d63000000000000000000000000000000000000000000000000000000005f5260045260245260445ffd5b7f4e487b71000000000000000000000000000000000000000000000000000000005f52601160045260245ffd5b7fd743df6a000000000000000000000000000000000000000000000000000000005f5260045ffd5b94505060a03d60a0116105fd575b7fffffffffffffffffffffffffffffffffffffffffffffffffffffffffffffffe0601f820116850185811067ffffffffffffffff8211176102ef5760a091869160405281010312610087576105de846103ae565b5060208401516105f56080606087015196016103ae565b50935f61048a565b503d61058a565b6040513d5f823e3d90fd5b9073ffffffffffffffffffffffffffffffffffffffff809194939416911691818314806106d4575b6106cc5773ffffffffffffffffffffffffffffffffffffffff16821490816106ac575b506106a55773ffffffffffffffffffffffffffffffffffffffff92507f4ca22af0000000000000000000000000000000000000000000000000000000005f526004521660245260445ffd5b5050600190565b905073ffffffffffffffffffffffffffffffffffffffff8316145f61065a565b505050505f90565b5073ffffffffffffffffffffffffffffffffffffffff811673ffffffffffffffffffffffffffffffffffffffff851614610637565b8181029291811591840414171561052757565b92608083901c926fffffffffffffffffffffffffffffffff169015610750576104f493929161074a91610709565b91610760565b6104f4939161075e91610709565b905b9190808302927fffffffffffffffffffffffffffffffffffffffffffffffffffffffffffffffff828209918483108501808403931461080357828411156107f65783910990825f03831680930480600302600218808202600203028082026002030280820260020302808202600203028082026002030280910260020302936001848483030494805f0304019211900302170290565b63ae47f7025f526004601cfd5b5050509081156107f657049056fea2646970667358221220d188dc5e9c079fcd51831c68f8387de4157fc6598d71fbc99559d1b0e52a97f464736f6c634300081c003300000000000000000000000066a1e37c9b0eaddca17d3662d6c05f4decf3e110000000000000000000000000000000000000000000000000000000000000034800000000000000000000000034ad75691e25a8e9b681aaa85dbeb7ef6561b42c000000000000000000000000000000000000000000000000000000000001fa40",
        "nonce": "0x153",
        "chainId": "0x1"
      },
      "additionalContracts": [],
      "isFixedGasLimit": false
    },
    {
      "hash": "0x9368d05ce6ce5a14a7c64a7521682984e2bf234578b43a1f4d6c7cea2bbb3332",
      "transactionType": "CALL",
      "contractName": "EulerRouter",
      "contractAddress": "0x41761684acf90bbf7e58e3a7a14d48f778cbb9d5",
      "function": "govSetConfig(address,address,address)",
      "arguments": [
        "0x66a1E37c9b0eAddca17d3662D6c05F4DECf3e110",
        "0x0000000000000000000000000000000000000348",
        "0xB7060A8485307Eee17EBbaEeb1bf74B5B8935e71"
      ],
      "transaction": {
        "from": "0x0562f16415fcf6fb5acaf433e4796f8f328b7c7d",
        "to": "0x41761684acf90bbf7e58e3a7a14d48f778cbb9d5",
        "gas": "0x11841",
        "value": "0x0",
        "input": "0x06c570c100000000000000000000000066a1e37c9b0eaddca17d3662d6c05f4decf3e1100000000000000000000000000000000000000000000000000000000000000348000000000000000000000000b7060a8485307eee17ebbaeeb1bf74b5b8935e71",
        "nonce": "0x154",
        "chainId": "0x1"
      },
      "additionalContracts": [],
      "isFixedGasLimit": false
    },
    {
      "hash": "0x63966bb1596afe5716a24853d1f7c8da7325d13fc2fdffff542bb41d948d9754",
      "transactionType": "CREATE",
      "contractName": "CrossAdapter",
      "contractAddress": "0x007274f6e5615c1131c860d376309f2a663ff43d",
      "function": null,
      "arguments": [
        "0x1202F5C7b4B9E47a1A484E8B270be34dbbC75055",
        "0x66a1E37c9b0eAddca17d3662D6c05F4DECf3e110",
        "0x0000000000000000000000000000000000000348",
        "0x41761684ACf90bbF7e58e3A7A14d48f778CBB9D5",
        "0xB7060A8485307Eee17EBbaEeb1bf74B5B8935e71"
      ],
      "transaction": {
        "from": "0x0562f16415fcf6fb5acaf433e4796f8f328b7c7d",
        "gas": "0xb76da",
        "value": "0x0",
        "input": "0x610120346100ff57601f610aa938819003918201601f19168301916001600160401b038311848410176101035780849260a0946040528339810103126100ff5761004881610117565b9061005560208201610117565b61006160408301610117565b9061007a608061007360608601610117565b9401610117565b9360805260a05260c05260e0526101005260405161097d908161012c82396080518181816102980152610480015260a05181818161012d0152818161052101526106fa015260c0518181816101bc01526104a2015260e05181818160bb0152818161060d015261074401526101005181818161022a0152818161056a01526107e70152f35b5f80fd5b634e487b7160e01b5f52604160045260245ffd5b51906001600160a01b03821682036100ff5756fe60806040526004361015610011575f80fd5b5f3560e01c80630579e61f146103ab57806306fdde03146102bc5780635001f3b51461024e5780636f612f9a146101e0578063999b93af14610172578063ae68676c14610151578063fa074d03146100e35763fd88670014610071575f80fd5b346100df575f7ffffffffffffffffffffffffffffffffffffffffffffffffffffffffffffffffc3601126100df57602060405173ffffffffffffffffffffffffffffffffffffffff7f0000000000000000000000000000000000000000000000000000000000000000168152f35b5f80fd5b346100df575f7ffffffffffffffffffffffffffffffffffffffffffffffffffffffffffffffffc3601126100df57602060405173ffffffffffffffffffffffffffffffffffffffff7f0000000000000000000000000000000000000000000000000000000000000000168152f35b346100df57602061016a610164366103cb565b9161047e565b604051908152f35b346100df575f7ffffffffffffffffffffffffffffffffffffffffffffffffffffffffffffffffc3601126100df57602060405173ffffffffffffffffffffffffffffffffffffffff7f0000000000000000000000000000000000000000000000000000000000000000168152f35b346100df575f7ffffffffffffffffffffffffffffffffffffffffffffffffffffffffffffffffc3601126100df57602060405173ffffffffffffffffffffffffffffffffffffffff7f0000000000000000000000000000000000000000000000000000000000000000168152f35b346100df575f7ffffffffffffffffffffffffffffffffffffffffffffffffffffffffffffffffc3601126100df57602060405173ffffffffffffffffffffffffffffffffffffffff7f0000000000000000000000000000000000000000000000000000000000000000168152f35b346100df575f7ffffffffffffffffffffffffffffffffffffffffffffffffffffffffffffffffc3601126100df576040516040810181811067ffffffffffffffff82111761037e57604052600c8152604060208201917f43726f737341646170746572000000000000000000000000000000000000000083527fffffffffffffffffffffffffffffffffffffffffffffffffffffffffffffffe0601f8351948593602085525180918160208701528686015e5f85828601015201168101030190f35b7f4e487b71000000000000000000000000000000000000000000000000000000005f52604160045260245ffd5b346100df5760406103be610164366103cb565b8151908082526020820152f35b7ffffffffffffffffffffffffffffffffffffffffffffffffffffffffffffffffc60609101126100df576004359060243573ffffffffffffffffffffffffffffffffffffffff811681036100df579060443573ffffffffffffffffffffffffffffffffffffffff811681036100df5790565b90601f7fffffffffffffffffffffffffffffffffffffffffffffffffffffffffffffffe0910116810190811067ffffffffffffffff82111761037e57604052565b7f0000000000000000000000000000000000000000000000000000000000000000927f0000000000000000000000000000000000000000000000000000000000000000926104cf918491869061084d565b156106ad576040517fae68676c000000000000000000000000000000000000000000000000000000008152600481019190915273ffffffffffffffffffffffffffffffffffffffff91821660248201527f00000000000000000000000000000000000000000000000000000000000000009182166044820152906020828060648101038173ffffffffffffffffffffffffffffffffffffffff7f0000000000000000000000000000000000000000000000000000000000000000165afa801561066f575f9061067a575b6040517fae68676c000000000000000000000000000000000000000000000000000000008152600481019190915273ffffffffffffffffffffffffffffffffffffffff918216602482015292166044830152506020818060648101038173ffffffffffffffffffffffffffffffffffffffff7f0000000000000000000000000000000000000000000000000000000000000000165afa90811561066f575f91610640575090565b90506020813d602011610667575b8161065b6020938361043d565b810103126100df575190565b3d915061064e565b6040513d5f823e3d90fd5b506020823d6020116106a5575b816106946020938361043d565b810103126100df5760209151610599565b3d9150610687565b6040517fae68676c000000000000000000000000000000000000000000000000000000008152600481019190915273ffffffffffffffffffffffffffffffffffffffff92831660248201527f0000000000000000000000000000000000000000000000000000000000000000928316604482015290916020828060648101038173ffffffffffffffffffffffffffffffffffffffff7f0000000000000000000000000000000000000000000000000000000000000000165afa801561066f575f9061081a575b6040517fae68676c000000000000000000000000000000000000000000000000000000008152600481019190915273ffffffffffffffffffffffffffffffffffffffff918216602482015292166044830152506020818060648101038173ffffffffffffffffffffffffffffffffffffffff7f0000000000000000000000000000000000000000000000000000000000000000165afa90811561066f575f91610640575090565b506020823d602011610845575b816108346020938361043d565b810103126100df5760209151610773565b3d9150610827565b9073ffffffffffffffffffffffffffffffffffffffff80919493941691169181831480610912575b61090a5773ffffffffffffffffffffffffffffffffffffffff16821490816108ea575b506108e35773ffffffffffffffffffffffffffffffffffffffff92507f4ca22af0000000000000000000000000000000000000000000000000000000005f526004521660245260445ffd5b5050600190565b905073ffffffffffffffffffffffffffffffffffffffff8316145f610898565b505050505f90565b5073ffffffffffffffffffffffffffffffffffffffff811673ffffffffffffffffffffffffffffffffffffffff85161461087556fea2646970667358221220a546e07024cd7d8b159036cf9710b1ffe243c447e0df131cf55fc48c42c524f264736f6c634300081c00330000000000000000000000001202f5c7b4b9e47a1a484e8b270be34dbbc7505500000000000000000000000066a1e37c9b0eaddca17d3662d6c05f4decf3e110000000000000000000000000000000000000000000000000000000000000034800000000000000000000000041761684acf90bbf7e58e3a7a14d48f778cbb9d5000000000000000000000000b7060a8485307eee17ebbaeeb1bf74b5b8935e71",
        "nonce": "0x155",
        "chainId": "0x1"
      },
      "additionalContracts": [],
      "isFixedGasLimit": false
    },
    {
      "hash": "0xc0dd107da2a162e3d930417a852e46ddf45106e9fea5feb636671bb029c7af6a",
      "transactionType": "CALL",
      "contractName": "EulerRouter",
      "contractAddress": "0x41761684acf90bbf7e58e3a7a14d48f778cbb9d5",
      "function": "govSetConfig(address,address,address)",
      "arguments": [
        "0x1202F5C7b4B9E47a1A484E8B270be34dbbC75055",
        "0x0000000000000000000000000000000000000348",
        "0x007274F6E5615C1131C860D376309f2a663Ff43d"
      ],
      "transaction": {
        "from": "0x0562f16415fcf6fb5acaf433e4796f8f328b7c7d",
        "to": "0x41761684acf90bbf7e58e3a7a14d48f778cbb9d5",
        "gas": "0x1089f",
        "value": "0x0",
        "input": "0x06c570c10000000000000000000000001202f5c7b4b9e47a1a484e8b270be34dbbc750550000000000000000000000000000000000000000000000000000000000000348000000000000000000000000007274f6e5615c1131c860d376309f2a663ff43d",
        "nonce": "0x156",
        "chainId": "0x1"
      },
      "additionalContracts": [],
      "isFixedGasLimit": false
    },
    {
      "hash": "0x5060549f4e677db7bdaaa1be53f920ac181c3ce9b1b1eeed682b1bdae8f0cba8",
      "transactionType": "CREATE",
      "contractName": "CrossAdapter",
      "contractAddress": "0xbc3bf0cf1f81f0870636f45af1e9023e9223d6b1",
      "function": null,
      "arguments": [
        "0x1202F5C7b4B9E47a1A484E8B270be34dbbC75055",
        "0x0000000000000000000000000000000000000348",
        "0xA0b86991c6218b36c1d19D4a2e9Eb0cE3606eB48",
        "0x007274F6E5615C1131C860D376309f2a663Ff43d",
        "0x6213f24332D35519039f2afa7e3BffE105a37d3F"
      ],
      "transaction": {
        "from": "0x0562f16415fcf6fb5acaf433e4796f8f328b7c7d",
        "gas": "0xb76ca",
        "value": "0x0",
        "input": "0x610120346100ff57601f610aa938819003918201601f19168301916001600160401b038311848410176101035780849260a0946040528339810103126100ff5761004881610117565b9061005560208201610117565b61006160408301610117565b9061007a608061007360608601610117565b9401610117565b9360805260a05260c05260e0526101005260405161097d908161012c82396080518181816102980152610480015260a05181818161012d0152818161052101526106fa015260c0518181816101bc01526104a2015260e05181818160bb0152818161060d015261074401526101005181818161022a0152818161056a01526107e70152f35b5f80fd5b634e487b7160e01b5f52604160045260245ffd5b51906001600160a01b03821682036100ff5756fe60806040526004361015610011575f80fd5b5f3560e01c80630579e61f146103ab57806306fdde03146102bc5780635001f3b51461024e5780636f612f9a146101e0578063999b93af14610172578063ae68676c14610151578063fa074d03146100e35763fd88670014610071575f80fd5b346100df575f7ffffffffffffffffffffffffffffffffffffffffffffffffffffffffffffffffc3601126100df57602060405173ffffffffffffffffffffffffffffffffffffffff7f0000000000000000000000000000000000000000000000000000000000000000168152f35b5f80fd5b346100df575f7ffffffffffffffffffffffffffffffffffffffffffffffffffffffffffffffffc3601126100df57602060405173ffffffffffffffffffffffffffffffffffffffff7f0000000000000000000000000000000000000000000000000000000000000000168152f35b346100df57602061016a610164366103cb565b9161047e565b604051908152f35b346100df575f7ffffffffffffffffffffffffffffffffffffffffffffffffffffffffffffffffc3601126100df57602060405173ffffffffffffffffffffffffffffffffffffffff7f0000000000000000000000000000000000000000000000000000000000000000168152f35b346100df575f7ffffffffffffffffffffffffffffffffffffffffffffffffffffffffffffffffc3601126100df57602060405173ffffffffffffffffffffffffffffffffffffffff7f0000000000000000000000000000000000000000000000000000000000000000168152f35b346100df575f7ffffffffffffffffffffffffffffffffffffffffffffffffffffffffffffffffc3601126100df57602060405173ffffffffffffffffffffffffffffffffffffffff7f0000000000000000000000000000000000000000000000000000000000000000168152f35b346100df575f7ffffffffffffffffffffffffffffffffffffffffffffffffffffffffffffffffc3601126100df576040516040810181811067ffffffffffffffff82111761037e57604052600c8152604060208201917f43726f737341646170746572000000000000000000000000000000000000000083527fffffffffffffffffffffffffffffffffffffffffffffffffffffffffffffffe0601f8351948593602085525180918160208701528686015e5f85828601015201168101030190f35b7f4e487b71000000000000000000000000000000000000000000000000000000005f52604160045260245ffd5b346100df5760406103be610164366103cb565b8151908082526020820152f35b7ffffffffffffffffffffffffffffffffffffffffffffffffffffffffffffffffc60609101126100df576004359060243573ffffffffffffffffffffffffffffffffffffffff811681036100df579060443573ffffffffffffffffffffffffffffffffffffffff811681036100df5790565b90601f7fffffffffffffffffffffffffffffffffffffffffffffffffffffffffffffffe0910116810190811067ffffffffffffffff82111761037e57604052565b7f0000000000000000000000000000000000000000000000000000000000000000927f0000000000000000000000000000000000000000000000000000000000000000926104cf918491869061084d565b156106ad576040517fae68676c000000000000000000000000000000000000000000000000000000008152600481019190915273ffffffffffffffffffffffffffffffffffffffff91821660248201527f00000000000000000000000000000000000000000000000000000000000000009182166044820152906020828060648101038173ffffffffffffffffffffffffffffffffffffffff7f0000000000000000000000000000000000000000000000000000000000000000165afa801561066f575f9061067a575b6040517fae68676c000000000000000000000000000000000000000000000000000000008152600481019190915273ffffffffffffffffffffffffffffffffffffffff918216602482015292166044830152506020818060648101038173ffffffffffffffffffffffffffffffffffffffff7f0000000000000000000000000000000000000000000000000000000000000000165afa90811561066f575f91610640575090565b90506020813d602011610667575b8161065b6020938361043d565b810103126100df575190565b3d915061064e565b6040513d5f823e3d90fd5b506020823d6020116106a5575b816106946020938361043d565b810103126100df5760209151610599565b3d9150610687565b6040517fae68676c000000000000000000000000000000000000000000000000000000008152600481019190915273ffffffffffffffffffffffffffffffffffffffff92831660248201527f0000000000000000000000000000000000000000000000000000000000000000928316604482015290916020828060648101038173ffffffffffffffffffffffffffffffffffffffff7f0000000000000000000000000000000000000000000000000000000000000000165afa801561066f575f9061081a575b6040517fae68676c000000000000000000000000000000000000000000000000000000008152600481019190915273ffffffffffffffffffffffffffffffffffffffff918216602482015292166044830152506020818060648101038173ffffffffffffffffffffffffffffffffffffffff7f0000000000000000000000000000000000000000000000000000000000000000165afa90811561066f575f91610640575090565b506020823d602011610845575b816108346020938361043d565b810103126100df5760209151610773565b3d9150610827565b9073ffffffffffffffffffffffffffffffffffffffff80919493941691169181831480610912575b61090a5773ffffffffffffffffffffffffffffffffffffffff16821490816108ea575b506108e35773ffffffffffffffffffffffffffffffffffffffff92507f4ca22af0000000000000000000000000000000000000000000000000000000005f526004521660245260445ffd5b5050600190565b905073ffffffffffffffffffffffffffffffffffffffff8316145f610898565b505050505f90565b5073ffffffffffffffffffffffffffffffffffffffff811673ffffffffffffffffffffffffffffffffffffffff85161461087556fea2646970667358221220a546e07024cd7d8b159036cf9710b1ffe243c447e0df131cf55fc48c42c524f264736f6c634300081c00330000000000000000000000001202f5c7b4b9e47a1a484e8b270be34dbbc750550000000000000000000000000000000000000000000000000000000000000348000000000000000000000000a0b86991c6218b36c1d19d4a2e9eb0ce3606eb48000000000000000000000000007274f6e5615c1131c860d376309f2a663ff43d0000000000000000000000006213f24332d35519039f2afa7e3bffe105a37d3f",
        "nonce": "0x157",
        "chainId": "0x1"
      },
      "additionalContracts": [],
      "isFixedGasLimit": false
    },
    {
      "hash": "0x605784cedb1c7b44397ee58f76a332bb9e29056845a1e229ccb187e304b7c250",
      "transactionType": "CALL",
      "contractName": "EulerRouter",
      "contractAddress": "0x41761684acf90bbf7e58e3a7a14d48f778cbb9d5",
      "function": "govSetConfig(address,address,address)",
      "arguments": [
        "0x1202F5C7b4B9E47a1A484E8B270be34dbbC75055",
        "0xA0b86991c6218b36c1d19D4a2e9Eb0cE3606eB48",
        "0xbC3bf0CF1F81f0870636f45Af1E9023E9223D6b1"
      ],
      "transaction": {
        "from": "0x0562f16415fcf6fb5acaf433e4796f8f328b7c7d",
        "to": "0x41761684acf90bbf7e58e3a7a14d48f778cbb9d5",
        "gas": "0x109cb",
        "value": "0x0",
        "input": "0x06c570c10000000000000000000000001202f5c7b4b9e47a1a484e8b270be34dbbc75055000000000000000000000000a0b86991c6218b36c1d19d4a2e9eb0ce3606eb48000000000000000000000000bc3bf0cf1f81f0870636f45af1e9023e9223d6b1",
        "nonce": "0x158",
        "chainId": "0x1"
      },
      "additionalContracts": [],
      "isFixedGasLimit": false
    },
    {
      "hash": "0x8b32c7b7b23611c78d02564533d193002278ede9ba737b3ed01ae739019651f2",
      "transactionType": "CREATE",
      "contractName": "CrossAdapter",
      "contractAddress": "0x0c27d5ea733dcd95ab3c5294621a0d9b2bd4a29f",
      "function": null,
      "arguments": [
        "0x7f39C581F595B53c5cb19bD0b3f8dA6c935E2Ca0",
        "0xC02aaA39b223FE8D0A0e5C4F27eAD9083C756Cc2",
        "0xA0b86991c6218b36c1d19D4a2e9Eb0cE3606eB48",
        "0x7c37aB8Cd76Ee8888ad7F19C1F8a3A6D1622e9B8",
        "0x2eA2b307cD934a6e705eAcFCb6B806d018Cd62CF"
      ],
      "transaction": {
        "from": "0x0562f16415fcf6fb5acaf433e4796f8f328b7c7d",
        "gas": "0xb77f2",
        "value": "0x0",
        "input": "0x610120346100ff57601f610aa938819003918201601f19168301916001600160401b038311848410176101035780849260a0946040528339810103126100ff5761004881610117565b9061005560208201610117565b61006160408301610117565b9061007a608061007360608601610117565b9401610117565b9360805260a05260c05260e0526101005260405161097d908161012c82396080518181816102980152610480015260a05181818161012d0152818161052101526106fa015260c0518181816101bc01526104a2015260e05181818160bb0152818161060d015261074401526101005181818161022a0152818161056a01526107e70152f35b5f80fd5b634e487b7160e01b5f52604160045260245ffd5b51906001600160a01b03821682036100ff5756fe60806040526004361015610011575f80fd5b5f3560e01c80630579e61f146103ab57806306fdde03146102bc5780635001f3b51461024e5780636f612f9a146101e0578063999b93af14610172578063ae68676c14610151578063fa074d03146100e35763fd88670014610071575f80fd5b346100df575f7ffffffffffffffffffffffffffffffffffffffffffffffffffffffffffffffffc3601126100df57602060405173ffffffffffffffffffffffffffffffffffffffff7f0000000000000000000000000000000000000000000000000000000000000000168152f35b5f80fd5b346100df575f7ffffffffffffffffffffffffffffffffffffffffffffffffffffffffffffffffc3601126100df57602060405173ffffffffffffffffffffffffffffffffffffffff7f0000000000000000000000000000000000000000000000000000000000000000168152f35b346100df57602061016a610164366103cb565b9161047e565b604051908152f35b346100df575f7ffffffffffffffffffffffffffffffffffffffffffffffffffffffffffffffffc3601126100df57602060405173ffffffffffffffffffffffffffffffffffffffff7f0000000000000000000000000000000000000000000000000000000000000000168152f35b346100df575f7ffffffffffffffffffffffffffffffffffffffffffffffffffffffffffffffffc3601126100df57602060405173ffffffffffffffffffffffffffffffffffffffff7f0000000000000000000000000000000000000000000000000000000000000000168152f35b346100df575f7ffffffffffffffffffffffffffffffffffffffffffffffffffffffffffffffffc3601126100df57602060405173ffffffffffffffffffffffffffffffffffffffff7f0000000000000000000000000000000000000000000000000000000000000000168152f35b346100df575f7ffffffffffffffffffffffffffffffffffffffffffffffffffffffffffffffffc3601126100df576040516040810181811067ffffffffffffffff82111761037e57604052600c8152604060208201917f43726f737341646170746572000000000000000000000000000000000000000083527fffffffffffffffffffffffffffffffffffffffffffffffffffffffffffffffe0601f8351948593602085525180918160208701528686015e5f85828601015201168101030190f35b7f4e487b71000000000000000000000000000000000000000000000000000000005f52604160045260245ffd5b346100df5760406103be610164366103cb565b8151908082526020820152f35b7ffffffffffffffffffffffffffffffffffffffffffffffffffffffffffffffffc60609101126100df576004359060243573ffffffffffffffffffffffffffffffffffffffff811681036100df579060443573ffffffffffffffffffffffffffffffffffffffff811681036100df5790565b90601f7fffffffffffffffffffffffffffffffffffffffffffffffffffffffffffffffe0910116810190811067ffffffffffffffff82111761037e57604052565b7f0000000000000000000000000000000000000000000000000000000000000000927f0000000000000000000000000000000000000000000000000000000000000000926104cf918491869061084d565b156106ad576040517fae68676c000000000000000000000000000000000000000000000000000000008152600481019190915273ffffffffffffffffffffffffffffffffffffffff91821660248201527f00000000000000000000000000000000000000000000000000000000000000009182166044820152906020828060648101038173ffffffffffffffffffffffffffffffffffffffff7f0000000000000000000000000000000000000000000000000000000000000000165afa801561066f575f9061067a575b6040517fae68676c000000000000000000000000000000000000000000000000000000008152600481019190915273ffffffffffffffffffffffffffffffffffffffff918216602482015292166044830152506020818060648101038173ffffffffffffffffffffffffffffffffffffffff7f0000000000000000000000000000000000000000000000000000000000000000165afa90811561066f575f91610640575090565b90506020813d602011610667575b8161065b6020938361043d565b810103126100df575190565b3d915061064e565b6040513d5f823e3d90fd5b506020823d6020116106a5575b816106946020938361043d565b810103126100df5760209151610599565b3d9150610687565b6040517fae68676c000000000000000000000000000000000000000000000000000000008152600481019190915273ffffffffffffffffffffffffffffffffffffffff92831660248201527f0000000000000000000000000000000000000000000000000000000000000000928316604482015290916020828060648101038173ffffffffffffffffffffffffffffffffffffffff7f0000000000000000000000000000000000000000000000000000000000000000165afa801561066f575f9061081a575b6040517fae68676c000000000000000000000000000000000000000000000000000000008152600481019190915273ffffffffffffffffffffffffffffffffffffffff918216602482015292166044830152506020818060648101038173ffffffffffffffffffffffffffffffffffffffff7f0000000000000000000000000000000000000000000000000000000000000000165afa90811561066f575f91610640575090565b506020823d602011610845575b816108346020938361043d565b810103126100df5760209151610773565b3d9150610827565b9073ffffffffffffffffffffffffffffffffffffffff80919493941691169181831480610912575b61090a5773ffffffffffffffffffffffffffffffffffffffff16821490816108ea575b506108e35773ffffffffffffffffffffffffffffffffffffffff92507f4ca22af0000000000000000000000000000000000000000000000000000000005f526004521660245260445ffd5b5050600190565b905073ffffffffffffffffffffffffffffffffffffffff8316145f610898565b505050505f90565b5073ffffffffffffffffffffffffffffffffffffffff811673ffffffffffffffffffffffffffffffffffffffff85161461087556fea2646970667358221220a546e07024cd7d8b159036cf9710b1ffe243c447e0df131cf55fc48c42c524f264736f6c634300081c00330000000000000000000000007f39c581f595b53c5cb19bd0b3f8da6c935e2ca0000000000000000000000000c02aaa39b223fe8d0a0e5c4f27ead9083c756cc2000000000000000000000000a0b86991c6218b36c1d19d4a2e9eb0ce3606eb480000000000000000000000007c37ab8cd76ee8888ad7f19c1f8a3a6d1622e9b80000000000000000000000002ea2b307cd934a6e705eacfcb6b806d018cd62cf",
        "nonce": "0x159",
        "chainId": "0x1"
      },
      "additionalContracts": [],
      "isFixedGasLimit": false
    },
    {
      "hash": "0xc610826552ee2de8936fa3a7177cbc47fc13eaca2ebfe926a5b741bc5cc3113b",
      "transactionType": "CALL",
      "contractName": "EulerRouter",
      "contractAddress": "0x41761684acf90bbf7e58e3a7a14d48f778cbb9d5",
      "function": "govSetConfig(address,address,address)",
      "arguments": [
        "0x7f39C581F595B53c5cb19bD0b3f8dA6c935E2Ca0",
        "0xA0b86991c6218b36c1d19D4a2e9Eb0cE3606eB48",
        "0x0c27d5Ea733Dcd95AB3c5294621A0D9B2bD4A29f"
      ],
      "transaction": {
        "from": "0x0562f16415fcf6fb5acaf433e4796f8f328b7c7d",
        "to": "0x41761684acf90bbf7e58e3a7a14d48f778cbb9d5",
        "gas": "0x109cb",
        "value": "0x0",
        "input": "0x06c570c10000000000000000000000007f39c581f595b53c5cb19bd0b3f8da6c935e2ca0000000000000000000000000a0b86991c6218b36c1d19d4a2e9eb0ce3606eb480000000000000000000000000c27d5ea733dcd95ab3c5294621a0d9b2bd4a29f",
        "nonce": "0x15a",
        "chainId": "0x1"
      },
      "additionalContracts": [],
      "isFixedGasLimit": false
    },
    {
      "hash": "0xd119ac03e3e07d429abf95a71043e2078d8cb4cf360d51890710afafe29cc149",
      "transactionType": "CREATE",
      "contractName": "CrossAdapter",
      "contractAddress": "0xd3e5effb567b5cfecf89406b7773bbdfb5326c84",
      "function": null,
      "arguments": [
        "0x657e8C867D8B37dCC18fA4Caead9C45EB088C642",
        "0x0000000000000000000000000000000000000348",
        "0xA0b86991c6218b36c1d19D4a2e9Eb0cE3606eB48",
        "0x26bDa7a7A660a5e9Ac70f64b69f56EF1e2275a07",
        "0x6213f24332D35519039f2afa7e3BffE105a37d3F"
      ],
      "transaction": {
        "from": "0x0562f16415fcf6fb5acaf433e4796f8f328b7c7d",
        "gas": "0xb76da",
        "value": "0x0",
        "input": "0x610120346100ff57601f610aa938819003918201601f19168301916001600160401b038311848410176101035780849260a0946040528339810103126100ff5761004881610117565b9061005560208201610117565b61006160408301610117565b9061007a608061007360608601610117565b9401610117565b9360805260a05260c05260e0526101005260405161097d908161012c82396080518181816102980152610480015260a05181818161012d0152818161052101526106fa015260c0518181816101bc01526104a2015260e05181818160bb0152818161060d015261074401526101005181818161022a0152818161056a01526107e70152f35b5f80fd5b634e487b7160e01b5f52604160045260245ffd5b51906001600160a01b03821682036100ff5756fe60806040526004361015610011575f80fd5b5f3560e01c80630579e61f146103ab57806306fdde03146102bc5780635001f3b51461024e5780636f612f9a146101e0578063999b93af14610172578063ae68676c14610151578063fa074d03146100e35763fd88670014610071575f80fd5b346100df575f7ffffffffffffffffffffffffffffffffffffffffffffffffffffffffffffffffc3601126100df57602060405173ffffffffffffffffffffffffffffffffffffffff7f0000000000000000000000000000000000000000000000000000000000000000168152f35b5f80fd5b346100df575f7ffffffffffffffffffffffffffffffffffffffffffffffffffffffffffffffffc3601126100df57602060405173ffffffffffffffffffffffffffffffffffffffff7f0000000000000000000000000000000000000000000000000000000000000000168152f35b346100df57602061016a610164366103cb565b9161047e565b604051908152f35b346100df575f7ffffffffffffffffffffffffffffffffffffffffffffffffffffffffffffffffc3601126100df57602060405173ffffffffffffffffffffffffffffffffffffffff7f0000000000000000000000000000000000000000000000000000000000000000168152f35b346100df575f7ffffffffffffffffffffffffffffffffffffffffffffffffffffffffffffffffc3601126100df57602060405173ffffffffffffffffffffffffffffffffffffffff7f0000000000000000000000000000000000000000000000000000000000000000168152f35b346100df575f7ffffffffffffffffffffffffffffffffffffffffffffffffffffffffffffffffc3601126100df57602060405173ffffffffffffffffffffffffffffffffffffffff7f0000000000000000000000000000000000000000000000000000000000000000168152f35b346100df575f7ffffffffffffffffffffffffffffffffffffffffffffffffffffffffffffffffc3601126100df576040516040810181811067ffffffffffffffff82111761037e57604052600c8152604060208201917f43726f737341646170746572000000000000000000000000000000000000000083527fffffffffffffffffffffffffffffffffffffffffffffffffffffffffffffffe0601f8351948593602085525180918160208701528686015e5f85828601015201168101030190f35b7f4e487b71000000000000000000000000000000000000000000000000000000005f52604160045260245ffd5b346100df5760406103be610164366103cb565b8151908082526020820152f35b7ffffffffffffffffffffffffffffffffffffffffffffffffffffffffffffffffc60609101126100df576004359060243573ffffffffffffffffffffffffffffffffffffffff811681036100df579060443573ffffffffffffffffffffffffffffffffffffffff811681036100df5790565b90601f7fffffffffffffffffffffffffffffffffffffffffffffffffffffffffffffffe0910116810190811067ffffffffffffffff82111761037e57604052565b7f0000000000000000000000000000000000000000000000000000000000000000927f0000000000000000000000000000000000000000000000000000000000000000926104cf918491869061084d565b156106ad576040517fae68676c000000000000000000000000000000000000000000000000000000008152600481019190915273ffffffffffffffffffffffffffffffffffffffff91821660248201527f00000000000000000000000000000000000000000000000000000000000000009182166044820152906020828060648101038173ffffffffffffffffffffffffffffffffffffffff7f0000000000000000000000000000000000000000000000000000000000000000165afa801561066f575f9061067a575b6040517fae68676c000000000000000000000000000000000000000000000000000000008152600481019190915273ffffffffffffffffffffffffffffffffffffffff918216602482015292166044830152506020818060648101038173ffffffffffffffffffffffffffffffffffffffff7f0000000000000000000000000000000000000000000000000000000000000000165afa90811561066f575f91610640575090565b90506020813d602011610667575b8161065b6020938361043d565b810103126100df575190565b3d915061064e565b6040513d5f823e3d90fd5b506020823d6020116106a5575b816106946020938361043d565b810103126100df5760209151610599565b3d9150610687565b6040517fae68676c000000000000000000000000000000000000000000000000000000008152600481019190915273ffffffffffffffffffffffffffffffffffffffff92831660248201527f0000000000000000000000000000000000000000000000000000000000000000928316604482015290916020828060648101038173ffffffffffffffffffffffffffffffffffffffff7f0000000000000000000000000000000000000000000000000000000000000000165afa801561066f575f9061081a575b6040517fae68676c000000000000000000000000000000000000000000000000000000008152600481019190915273ffffffffffffffffffffffffffffffffffffffff918216602482015292166044830152506020818060648101038173ffffffffffffffffffffffffffffffffffffffff7f0000000000000000000000000000000000000000000000000000000000000000165afa90811561066f575f91610640575090565b506020823d602011610845575b816108346020938361043d565b810103126100df5760209151610773565b3d9150610827565b9073ffffffffffffffffffffffffffffffffffffffff80919493941691169181831480610912575b61090a5773ffffffffffffffffffffffffffffffffffffffff16821490816108ea575b506108e35773ffffffffffffffffffffffffffffffffffffffff92507f4ca22af0000000000000000000000000000000000000000000000000000000005f526004521660245260445ffd5b5050600190565b905073ffffffffffffffffffffffffffffffffffffffff8316145f610898565b505050505f90565b5073ffffffffffffffffffffffffffffffffffffffff811673ffffffffffffffffffffffffffffffffffffffff85161461087556fea2646970667358221220a546e07024cd7d8b159036cf9710b1ffe243c447e0df131cf55fc48c42c524f264736f6c634300081c0033000000000000000000000000657e8c867d8b37dcc18fa4caead9c45eb088c6420000000000000000000000000000000000000000000000000000000000000348000000000000000000000000a0b86991c6218b36c1d19d4a2e9eb0ce3606eb4800000000000000000000000026bda7a7a660a5e9ac70f64b69f56ef1e2275a070000000000000000000000006213f24332d35519039f2afa7e3bffe105a37d3f",
        "nonce": "0x15b",
        "chainId": "0x1"
      },
      "additionalContracts": [],
      "isFixedGasLimit": false
    },
    {
      "hash": "0x2dd5e8bd5ba0d00c65e71f08374649393e6eb53aec8ec775fae23832fb2ff3aa",
      "transactionType": "CALL",
      "contractName": "EulerRouter",
      "contractAddress": "0x41761684acf90bbf7e58e3a7a14d48f778cbb9d5",
      "function": "govSetConfig(address,address,address)",
      "arguments": [
        "0x657e8C867D8B37dCC18fA4Caead9C45EB088C642",
        "0xA0b86991c6218b36c1d19D4a2e9Eb0cE3606eB48",
        "0xd3E5EfFb567b5CFecf89406B7773bbdFb5326C84"
      ],
      "transaction": {
        "from": "0x0562f16415fcf6fb5acaf433e4796f8f328b7c7d",
        "to": "0x41761684acf90bbf7e58e3a7a14d48f778cbb9d5",
        "gas": "0x109cb",
        "value": "0x0",
        "input": "0x06c570c1000000000000000000000000657e8c867d8b37dcc18fa4caead9c45eb088c642000000000000000000000000a0b86991c6218b36c1d19d4a2e9eb0ce3606eb48000000000000000000000000d3e5effb567b5cfecf89406b7773bbdfb5326c84",
        "nonce": "0x15c",
        "chainId": "0x1"
      },
      "additionalContracts": [],
      "isFixedGasLimit": false
    }
  ],
  "receipts": [
    {
      "status": "0x1",
      "cumulativeGasUsed": "0x1116675",
      "logs": [],
      "logsBloom": "0x00000000000000000000000000000000000000000000000000000000000000000000000000000000000000000000000000000000000000000000000000000000000000000000000000000000000000000000000000000000000000000000000000000000000000000000000000000000000000000000000000000000000000000000000000000000000000000000000000000000000000000000000000000000000000000000000000000000000000000000000000000000000000000000000000000000000000000000000000000000000000000000000000000000000000000000000000000000000000000000000000000000000000000000000000000000",
      "type": "0x2",
      "transactionHash": "0xb007b651bf3d5ab71e9b56383c570ec2c8338584916b9d43997616abb6267bb0",
      "transactionIndex": "0xc4",
      "blockHash": "0x29c2e39d51cdbffec4060687c18937a127430805db5a5c9cc9336784f9ccb11f",
      "blockNumber": "0x15f3446",
      "gasUsed": "0x6885b",
      "effectiveGasPrice": "0x145cd6cc",
      "from": "0x0562f16415fcf6fb5acaf433e4796f8f328b7c7d",
      "to": null,
      "contractAddress": "0x242ed4bfc5c2fdfc0b38f634f49b5e9fafa0f9b0"
    },
    {
      "status": "0x1",
      "cumulativeGasUsed": "0x11226e4",
      "logs": [
        {
          "address": "0x41761684acf90bbf7e58e3a7a14d48f778cbb9d5",
          "topics": [
            "0x4ac83f39568b63f952374c82351889b07aff4f7e261232a20ba5a2a6d82b9ce0",
            "0x00000000000000000000000098c23e9d8f34fefb1b7bd6a91b7ff122f4e16f5c",
            "0x000000000000000000000000a0b86991c6218b36c1d19d4a2e9eb0ce3606eb48",
            "0x000000000000000000000000242ed4bfc5c2fdfc0b38f634f49b5e9fafa0f9b0"
          ],
          "data": "0x",
          "blockHash": "0x29c2e39d51cdbffec4060687c18937a127430805db5a5c9cc9336784f9ccb11f",
          "blockNumber": "0x15f3446",
          "blockTimestamp": "0x6887379b",
          "transactionHash": "0xb0f581e8fefd962793aac5f205a8e3bc3026d0ead390fc066da1eb17f6e8d4e3",
          "transactionIndex": "0xc5",
          "logIndex": "0x1d1",
          "removed": false
        }
      ],
      "logsBloom": "0x00000000000020000000000000002400000000000008000000000000000000000000001000000000000002000000000000000000000000000000000000000000000010000000001000000000000000000000000000000000000000000000000000000000000000000000000008000000000000000000000000000000000000080000100000000000000000000000000200000000000000000000000000000000000000000000000000000000000000000000000000000000000000000000000000000000000000000000000000000000000000000000000000000000000000000000000000000000000000000000000004000000000082000000000000000000",
      "type": "0x2",
      "transactionHash": "0xb0f581e8fefd962793aac5f205a8e3bc3026d0ead390fc066da1eb17f6e8d4e3",
      "transactionIndex": "0xc5",
      "blockHash": "0x29c2e39d51cdbffec4060687c18937a127430805db5a5c9cc9336784f9ccb11f",
      "blockNumber": "0x15f3446",
      "gasUsed": "0xc06f",
      "effectiveGasPrice": "0x145cd6cc",
      "from": "0x0562f16415fcf6fb5acaf433e4796f8f328b7c7d",
      "to": "0x41761684acf90bbf7e58e3a7a14d48f778cbb9d5",
      "contractAddress": null
    },
    {
      "status": "0x1",
      "cumulativeGasUsed": "0x11af878",
      "logs": [],
      "logsBloom": "0x00000000000000000000000000000000000000000000000000000000000000000000000000000000000000000000000000000000000000000000000000000000000000000000000000000000000000000000000000000000000000000000000000000000000000000000000000000000000000000000000000000000000000000000000000000000000000000000000000000000000000000000000000000000000000000000000000000000000000000000000000000000000000000000000000000000000000000000000000000000000000000000000000000000000000000000000000000000000000000000000000000000000000000000000000000000",
      "type": "0x2",
      "transactionHash": "0xb3ca833fbd6a96646c4f0ac9f0c678c9682d44cece490ff8aa814e077817969b",
      "transactionIndex": "0xc6",
      "blockHash": "0x29c2e39d51cdbffec4060687c18937a127430805db5a5c9cc9336784f9ccb11f",
      "blockNumber": "0x15f3446",
      "gasUsed": "0x8d194",
      "effectiveGasPrice": "0x145cd6cc",
      "from": "0x0562f16415fcf6fb5acaf433e4796f8f328b7c7d",
      "to": null,
      "contractAddress": "0x77ab13b31d2b3aa01438fb3532de800191d14220"
    },
    {
      "status": "0x1",
      "cumulativeGasUsed": "0x11bb8e7",
      "logs": [
        {
          "address": "0x41761684acf90bbf7e58e3a7a14d48f778cbb9d5",
          "topics": [
            "0x4ac83f39568b63f952374c82351889b07aff4f7e261232a20ba5a2a6d82b9ce0",
            "0x0000000000000000000000009d39a5de30e57443bff2a8307a4256c8797a3497",
            "0x000000000000000000000000a0b86991c6218b36c1d19d4a2e9eb0ce3606eb48",
            "0x00000000000000000000000077ab13b31d2b3aa01438fb3532de800191d14220"
          ],
          "data": "0x",
          "blockHash": "0x29c2e39d51cdbffec4060687c18937a127430805db5a5c9cc9336784f9ccb11f",
          "blockNumber": "0x15f3446",
          "blockTimestamp": "0x6887379b",
          "transactionHash": "0x3213d245910fcc8790f4db51250d51d4e6e3ec26d2e620e3dd1e03016c2582ac",
          "transactionIndex": "0xc7",
          "logIndex": "0x1d2",
          "removed": false
        }
      ],
      "logsBloom": "0x00000000000020000000000000002400000000000208000000000000000000000010000000000000000002000000000000000000000000000000000000000000000010000000000000000004000000000000000000000000000000000000000000000000000000000000000000000000000000000000000000000000000000000100000000000000000000000000001200000000000000000000000000000000000000000000000000000400000000000000000000000000000000000000000000000000000000000000000000000000000000000000000000000000000000000000000000000000000000000000000004000000000002000000000000000000",
      "type": "0x2",
      "transactionHash": "0x3213d245910fcc8790f4db51250d51d4e6e3ec26d2e620e3dd1e03016c2582ac",
      "transactionIndex": "0xc7",
      "blockHash": "0x29c2e39d51cdbffec4060687c18937a127430805db5a5c9cc9336784f9ccb11f",
      "blockNumber": "0x15f3446",
      "gasUsed": "0xc06f",
      "effectiveGasPrice": "0x145cd6cc",
      "from": "0x0562f16415fcf6fb5acaf433e4796f8f328b7c7d",
      "to": "0x41761684acf90bbf7e58e3a7a14d48f778cbb9d5",
      "contractAddress": null
    },
    {
      "status": "0x1",
      "cumulativeGasUsed": "0x11c9c77",
      "logs": [
        {
          "address": "0x41761684acf90bbf7e58e3a7a14d48f778cbb9d5",
          "topics": [
            "0x15beaec71c94ee69b5a824e905ca6d1260da10196b715c38b565b80180f630ce",
            "0x0000000000000000000000001202f5c7b4b9e47a1a484e8b270be34dbbc75055",
            "0x00000000000000000000000066a1e37c9b0eaddca17d3662d6c05f4decf3e110"
          ],
          "data": "0x",
          "blockHash": "0x29c2e39d51cdbffec4060687c18937a127430805db5a5c9cc9336784f9ccb11f",
          "blockNumber": "0x15f3446",
          "blockTimestamp": "0x6887379b",
          "transactionHash": "0x8c8ea7f7b87fdc821b25d91e266e292d664a24fc9e22eb8ac2aecedfab5e0027",
          "transactionIndex": "0xc8",
          "logIndex": "0x1d3",
          "removed": false
        }
      ],
      "logsBloom": "0x00000000000020000000000000000000000000000000000004000000000000000000000000000000000000000004000000000000000000000000000000000000000010000000000000000000000000000000000000000000000000000000000000000000000000000000000000000000000000000000000000000000000100000000000000000000000000000000000000000000000000000000000000002000000000000000000000000000000800000000000000000000000000000000000000000000000000000000000000000000000400000000000000000000000000000000000400000000000000000000000000020000000002000000000000004000",
      "type": "0x2",
      "transactionHash": "0x8c8ea7f7b87fdc821b25d91e266e292d664a24fc9e22eb8ac2aecedfab5e0027",
      "transactionIndex": "0xc8",
      "blockHash": "0x29c2e39d51cdbffec4060687c18937a127430805db5a5c9cc9336784f9ccb11f",
      "blockNumber": "0x15f3446",
      "gasUsed": "0xe390",
      "effectiveGasPrice": "0x145cd6cc",
      "from": "0x0562f16415fcf6fb5acaf433e4796f8f328b7c7d",
      "to": "0x41761684acf90bbf7e58e3a7a14d48f778cbb9d5",
      "contractAddress": null
    },
    {
      "status": "0x1",
      "cumulativeGasUsed": "0x124cecb",
      "logs": [],
      "logsBloom": "0x00000000000000000000000000000000000000000000000000000000000000000000000000000000000000000000000000000000000000000000000000000000000000000000000000000000000000000000000000000000000000000000000000000000000000000000000000000000000000000000000000000000000000000000000000000000000000000000000000000000000000000000000000000000000000000000000000000000000000000000000000000000000000000000000000000000000000000000000000000000000000000000000000000000000000000000000000000000000000000000000000000000000000000000000000000000",
      "type": "0x2",
      "transactionHash": "0x7cb21727a4eeeba23e17a9116719881626315092a06ebf08ba67ed47151ebae2",
      "transactionIndex": "0xc9",
      "blockHash": "0x29c2e39d51cdbffec4060687c18937a127430805db5a5c9cc9336784f9ccb11f",
      "blockNumber": "0x15f3446",
      "gasUsed": "0x83254",
      "effectiveGasPrice": "0x145cd6cc",
      "from": "0x0562f16415fcf6fb5acaf433e4796f8f328b7c7d",
      "to": null,
      "contractAddress": "0xb7060a8485307eee17ebbaeeb1bf74b5b8935e71"
    },
    {
      "status": "0x1",
      "cumulativeGasUsed": "0x1258e6c",
      "logs": [
        {
          "address": "0x41761684acf90bbf7e58e3a7a14d48f778cbb9d5",
          "topics": [
            "0x4ac83f39568b63f952374c82351889b07aff4f7e261232a20ba5a2a6d82b9ce0",
            "0x0000000000000000000000000000000000000000000000000000000000000348",
            "0x00000000000000000000000066a1e37c9b0eaddca17d3662d6c05f4decf3e110",
            "0x000000000000000000000000b7060a8485307eee17ebbaeeb1bf74b5b8935e71"
          ],
          "data": "0x",
          "blockHash": "0x29c2e39d51cdbffec4060687c18937a127430805db5a5c9cc9336784f9ccb11f",
          "blockNumber": "0x15f3446",
          "blockTimestamp": "0x6887379b",
          "transactionHash": "0x9368d05ce6ce5a14a7c64a7521682984e2bf234578b43a1f4d6c7cea2bbb3332",
          "transactionIndex": "0xca",
          "logIndex": "0x1d4",
          "removed": false
        }
      ],
      "logsBloom": "0x00000000000020000000040000002400000000000008000000000000000000000000000000000000000000000000000000000000000000000000000000000040000010000000000000000000000000000000000000000000000000000000000000000000000000000000000000000000000000000000000000000000000100000000000000000000000000000000000000000000008000000000000000000000000000000000000000000800000800000000000000000000000000000000000000000000000000000000000000000000000000000000000000000020000000000000000100000000000000000000000000020000000002000000000000000000",
      "type": "0x2",
      "transactionHash": "0x9368d05ce6ce5a14a7c64a7521682984e2bf234578b43a1f4d6c7cea2bbb3332",
      "transactionIndex": "0xca",
      "blockHash": "0x29c2e39d51cdbffec4060687c18937a127430805db5a5c9cc9336784f9ccb11f",
      "blockNumber": "0x15f3446",
      "gasUsed": "0xbfa1",
      "effectiveGasPrice": "0x145cd6cc",
      "from": "0x0562f16415fcf6fb5acaf433e4796f8f328b7c7d",
      "to": "0x41761684acf90bbf7e58e3a7a14d48f778cbb9d5",
      "contractAddress": null
    },
    {
      "status": "0x1",
      "cumulativeGasUsed": "0x12e6000",
      "logs": [],
      "logsBloom": "0x00000000000000000000000000000000000000000000000000000000000000000000000000000000000000000000000000000000000000000000000000000000000000000000000000000000000000000000000000000000000000000000000000000000000000000000000000000000000000000000000000000000000000000000000000000000000000000000000000000000000000000000000000000000000000000000000000000000000000000000000000000000000000000000000000000000000000000000000000000000000000000000000000000000000000000000000000000000000000000000000000000000000000000000000000000000",
      "type": "0x2",
      "transactionHash": "0x63966bb1596afe5716a24853d1f7c8da7325d13fc2fdffff542bb41d948d9754",
      "transactionIndex": "0xcb",
      "blockHash": "0x29c2e39d51cdbffec4060687c18937a127430805db5a5c9cc9336784f9ccb11f",
      "blockNumber": "0x15f3446",
      "gasUsed": "0x8d194",
      "effectiveGasPrice": "0x145cd6cc",
      "from": "0x0562f16415fcf6fb5acaf433e4796f8f328b7c7d",
      "to": null,
      "contractAddress": "0x007274f6e5615c1131c860d376309f2a663ff43d"
    },
    {
      "status": "0x1",
      "cumulativeGasUsed": "0x12f1f95",
      "logs": [
        {
          "address": "0x41761684acf90bbf7e58e3a7a14d48f778cbb9d5",
          "topics": [
            "0x4ac83f39568b63f952374c82351889b07aff4f7e261232a20ba5a2a6d82b9ce0",
            "0x0000000000000000000000000000000000000000000000000000000000000348",
            "0x0000000000000000000000001202f5c7b4b9e47a1a484e8b270be34dbbc75055",
            "0x000000000000000000000000007274f6e5615c1131c860d376309f2a663ff43d"
          ],
          "data": "0x",
          "blockHash": "0x29c2e39d51cdbffec4060687c18937a127430805db5a5c9cc9336784f9ccb11f",
          "blockNumber": "0x15f3446",
          "blockTimestamp": "0x6887379b",
          "transactionHash": "0xc0dd107da2a162e3d930417a852e46ddf45106e9fea5feb636671bb029c7af6a",
          "transactionIndex": "0xcc",
          "logIndex": "0x1d5",
          "removed": false
        }
      ],
      "logsBloom": "0x00000000000020000000000000002400000000004008000000000000000000000000000000000000000000000000000000000000000000000000000000000000000010000000000000000000000000000000000000000000000000000000000000000000080000000000000000000000000000000000000000000000000000000000000000000000000000000000000000000000008000000000000000002000000000000000000000000000000000008000000000000000000000000000000000000000000000000000000000000000000400000000000000000020000000000000000500000000000000000000000000000000000002000000000000000000",
      "type": "0x2",
      "transactionHash": "0xc0dd107da2a162e3d930417a852e46ddf45106e9fea5feb636671bb029c7af6a",
      "transactionIndex": "0xcc",
      "blockHash": "0x29c2e39d51cdbffec4060687c18937a127430805db5a5c9cc9336784f9ccb11f",
      "blockNumber": "0x15f3446",
      "gasUsed": "0xbf95",
      "effectiveGasPrice": "0x145cd6cc",
      "from": "0x0562f16415fcf6fb5acaf433e4796f8f328b7c7d",
      "to": "0x41761684acf90bbf7e58e3a7a14d48f778cbb9d5",
      "contractAddress": null
    },
    {
      "status": "0x1",
      "cumulativeGasUsed": "0x137f11d",
      "logs": [],
      "logsBloom": "0x00000000000000000000000000000000000000000000000000000000000000000000000000000000000000000000000000000000000000000000000000000000000000000000000000000000000000000000000000000000000000000000000000000000000000000000000000000000000000000000000000000000000000000000000000000000000000000000000000000000000000000000000000000000000000000000000000000000000000000000000000000000000000000000000000000000000000000000000000000000000000000000000000000000000000000000000000000000000000000000000000000000000000000000000000000000",
      "type": "0x2",
      "transactionHash": "0x5060549f4e677db7bdaaa1be53f920ac181c3ce9b1b1eeed682b1bdae8f0cba8",
      "transactionIndex": "0xcd",
      "blockHash": "0x29c2e39d51cdbffec4060687c18937a127430805db5a5c9cc9336784f9ccb11f",
      "blockNumber": "0x15f3446",
      "gasUsed": "0x8d188",
      "effectiveGasPrice": "0x145cd6cc",
      "from": "0x0562f16415fcf6fb5acaf433e4796f8f328b7c7d",
      "to": null,
      "contractAddress": "0xbc3bf0cf1f81f0870636f45af1e9023e9223d6b1"
    },
    {
      "status": "0x1",
      "cumulativeGasUsed": "0x138b18c",
      "logs": [
        {
          "address": "0x41761684acf90bbf7e58e3a7a14d48f778cbb9d5",
          "topics": [
            "0x4ac83f39568b63f952374c82351889b07aff4f7e261232a20ba5a2a6d82b9ce0",
            "0x0000000000000000000000001202f5c7b4b9e47a1a484e8b270be34dbbc75055",
            "0x000000000000000000000000a0b86991c6218b36c1d19d4a2e9eb0ce3606eb48",
            "0x000000000000000000000000bc3bf0cf1f81f0870636f45af1e9023e9223d6b1"
          ],
          "data": "0x",
          "blockHash": "0x29c2e39d51cdbffec4060687c18937a127430805db5a5c9cc9336784f9ccb11f",
          "blockNumber": "0x15f3446",
          "blockTimestamp": "0x6887379b",
          "transactionHash": "0x605784cedb1c7b44397ee58f76a332bb9e29056845a1e229ccb187e304b7c250",
          "transactionIndex": "0xce",
          "logIndex": "0x1d6",
          "removed": false
        }
      ],
      "logsBloom": "0x00000000000020000000000000002400000000000008000000000000000000000000000000000000000002000000000000000000000000000000000000000000000010000000000000000000000000000000000000000000000000000000000000000000000000001000000000000000000000000000000000000000000000000000000000000000000000000000000200000000000000000000000000002000000000000000000000000000000000000000000000000000000000000000000000000000004000000000000000000000000400000000000010000000000000000000000400000000000000000000000004000000000002000000000000000000",
      "type": "0x2",
      "transactionHash": "0x605784cedb1c7b44397ee58f76a332bb9e29056845a1e229ccb187e304b7c250",
      "transactionIndex": "0xce",
      "blockHash": "0x29c2e39d51cdbffec4060687c18937a127430805db5a5c9cc9336784f9ccb11f",
      "blockNumber": "0x15f3446",
      "gasUsed": "0xc06f",
      "effectiveGasPrice": "0x145cd6cc",
      "from": "0x0562f16415fcf6fb5acaf433e4796f8f328b7c7d",
      "to": "0x41761684acf90bbf7e58e3a7a14d48f778cbb9d5",
      "contractAddress": null
    },
    {
      "status": "0x1",
      "cumulativeGasUsed": "0x14183f8",
      "logs": [],
      "logsBloom": "0x00000000000000000000000000000000000000000000000000000000000000000000000000000000000000000000000000000000000000000000000000000000000000000000000000000000000000000000000000000000000000000000000000000000000000000000000000000000000000000000000000000000000000000000000000000000000000000000000000000000000000000000000000000000000000000000000000000000000000000000000000000000000000000000000000000000000000000000000000000000000000000000000000000000000000000000000000000000000000000000000000000000000000000000000000000000",
      "type": "0x2",
      "transactionHash": "0x8b32c7b7b23611c78d02564533d193002278ede9ba737b3ed01ae739019651f2",
      "transactionIndex": "0xcf",
      "blockHash": "0x29c2e39d51cdbffec4060687c18937a127430805db5a5c9cc9336784f9ccb11f",
      "blockNumber": "0x15f3446",
      "gasUsed": "0x8d26c",
      "effectiveGasPrice": "0x145cd6cc",
      "from": "0x0562f16415fcf6fb5acaf433e4796f8f328b7c7d",
      "to": null,
      "contractAddress": "0x0c27d5ea733dcd95ab3c5294621a0d9b2bd4a29f"
    },
    {
      "status": "0x1",
      "cumulativeGasUsed": "0x1424467",
      "logs": [
        {
          "address": "0x41761684acf90bbf7e58e3a7a14d48f778cbb9d5",
          "topics": [
            "0x4ac83f39568b63f952374c82351889b07aff4f7e261232a20ba5a2a6d82b9ce0",
            "0x0000000000000000000000007f39c581f595b53c5cb19bd0b3f8da6c935e2ca0",
            "0x000000000000000000000000a0b86991c6218b36c1d19d4a2e9eb0ce3606eb48",
            "0x0000000000000000000000000c27d5ea733dcd95ab3c5294621a0d9b2bd4a29f"
          ],
          "data": "0x",
          "blockHash": "0x29c2e39d51cdbffec4060687c18937a127430805db5a5c9cc9336784f9ccb11f",
          "blockNumber": "0x15f3446",
          "blockTimestamp": "0x6887379b",
          "transactionHash": "0xc610826552ee2de8936fa3a7177cbc47fc13eaca2ebfe926a5b741bc5cc3113b",
          "transactionIndex": "0xd0",
          "logIndex": "0x1d7",
          "removed": false
        }
      ],
      "logsBloom": "0x00000000000020000000000000002400000004000008000000000000000000000000000000000000000002000000000000000000000000000000000000000000000010000000000000000000000000000000000000000000000000000000000000000000000000000000000000000000000000000000000000000000000000000000000000000000000000000000000200000000000000000000000000002000000000000000000000000000000000000000000000000000000000000000000000000000000000000000000000000080000000000000000000000000000000000000000000000000000000000000000004000100004002000000000000000000",
      "type": "0x2",
      "transactionHash": "0xc610826552ee2de8936fa3a7177cbc47fc13eaca2ebfe926a5b741bc5cc3113b",
      "transactionIndex": "0xd0",
      "blockHash": "0x29c2e39d51cdbffec4060687c18937a127430805db5a5c9cc9336784f9ccb11f",
      "blockNumber": "0x15f3446",
      "gasUsed": "0xc06f",
      "effectiveGasPrice": "0x145cd6cc",
      "from": "0x0562f16415fcf6fb5acaf433e4796f8f328b7c7d",
      "to": "0x41761684acf90bbf7e58e3a7a14d48f778cbb9d5",
      "contractAddress": null
    },
    {
      "status": "0x1",
      "cumulativeGasUsed": "0x14b15fb",
      "logs": [],
      "logsBloom": "0x00000000000000000000000000000000000000000000000000000000000000000000000000000000000000000000000000000000000000000000000000000000000000000000000000000000000000000000000000000000000000000000000000000000000000000000000000000000000000000000000000000000000000000000000000000000000000000000000000000000000000000000000000000000000000000000000000000000000000000000000000000000000000000000000000000000000000000000000000000000000000000000000000000000000000000000000000000000000000000000000000000000000000000000000000000000",
      "type": "0x2",
      "transactionHash": "0xd119ac03e3e07d429abf95a71043e2078d8cb4cf360d51890710afafe29cc149",
      "transactionIndex": "0xd1",
      "blockHash": "0x29c2e39d51cdbffec4060687c18937a127430805db5a5c9cc9336784f9ccb11f",
      "blockNumber": "0x15f3446",
      "gasUsed": "0x8d194",
      "effectiveGasPrice": "0x145cd6cc",
      "from": "0x0562f16415fcf6fb5acaf433e4796f8f328b7c7d",
      "to": null,
      "contractAddress": "0xd3e5effb567b5cfecf89406b7773bbdfb5326c84"
    },
    {
      "status": "0x1",
      "cumulativeGasUsed": "0x14bd66a",
      "logs": [
        {
          "address": "0x41761684acf90bbf7e58e3a7a14d48f778cbb9d5",
          "topics": [
            "0x4ac83f39568b63f952374c82351889b07aff4f7e261232a20ba5a2a6d82b9ce0",
            "0x000000000000000000000000657e8c867d8b37dcc18fa4caead9c45eb088c642",
            "0x000000000000000000000000a0b86991c6218b36c1d19d4a2e9eb0ce3606eb48",
            "0x000000000000000000000000d3e5effb567b5cfecf89406b7773bbdfb5326c84"
          ],
          "data": "0x",
          "blockHash": "0x29c2e39d51cdbffec4060687c18937a127430805db5a5c9cc9336784f9ccb11f",
          "blockNumber": "0x15f3446",
          "blockTimestamp": "0x6887379b",
          "transactionHash": "0x2dd5e8bd5ba0d00c65e71f08374649393e6eb53aec8ec775fae23832fb2ff3aa",
          "transactionIndex": "0xd2",
          "logIndex": "0x1d8",
          "removed": false
        }
      ],
      "logsBloom": "0x00000000000020000000000000003400000000000008000000000000000000000000000000000000000002000000000000020000000000000000000000000000000110000000000000000000000000000000000000000000000000000000000000000000000000000000000000000000000000000000000000000000000000000000000000000000000200000000000200000000000000000000000000020000000000000000000000000000000000000000000000000000000000000000000000000000000000000000000000000000000000000000000000000000000000000000000000000000000000000000000004000000000002000080000000000000",
      "type": "0x2",
      "transactionHash": "0x2dd5e8bd5ba0d00c65e71f08374649393e6eb53aec8ec775fae23832fb2ff3aa",
      "transactionIndex": "0xd2",
      "blockHash": "0x29c2e39d51cdbffec4060687c18937a127430805db5a5c9cc9336784f9ccb11f",
      "blockNumber": "0x15f3446",
      "gasUsed": "0xc06f",
      "effectiveGasPrice": "0x145cd6cc",
      "from": "0x0562f16415fcf6fb5acaf433e4796f8f328b7c7d",
      "to": "0x41761684acf90bbf7e58e3a7a14d48f778cbb9d5",
      "contractAddress": null
    }
  ],
  "libraries": [],
  "pending": [],
  "returns": {},
  "timestamp": 1753692181,
  "chain": 1,
  "commit": "d89ad61"
}