{
  "transactions": [
    {
      "hash": "0x29d27fc8f2bc575efa83b885cd275a937202ac4c7cc7aaca0530b63a5ca66335",
      "transactionType": "CALL",
      "contractName": null,
      "contractAddress": "0x8506934ed8c1154da93610012524b07a972bacca",
      "function": "deployVault(address,string,string,string,string,address,address)",
      "arguments": [
        "0xaf88d065e77c8cC2239327C5EDb3A432268e5831",
        "Ultra Safe Levva Vault USDC",
        "LEVVA-ARB-USDC",
        "Ultra Safe Levva Vault Arb USDC Withdrawal Queue",
        "LEVVA-ARB-USDC-WITHDRAWAL-QUEUE",
        "0xAD70a0ab951780fF3397882fc5372db83dEb0606",
        "0x9931D4850a10Cc9BcCF44A16CFdaF657CCBbc5a1"
      ],
      "transaction": {
        "from": "0xad70a0ab951780ff3397882fc5372db83deb0606",
        "to": "0x8506934ed8c1154da93610012524b07a972bacca",
        "gas": "0xfda77",
        "value": "0x0",
        "input": "0x7d2a3e7b000000000000000000000000af88d065e77c8cc2239327c5edb3a432268e583100000000000000000000000000000000000000000000000000000000000000e00000000000000000000000000000000000000000000000000000000000000120000000000000000000000000000000000000000000000000000000000000016000000000000000000000000000000000000000000000000000000000000001c0000000000000000000000000ad70a0ab951780ff3397882fc5372db83deb06060000000000000000000000009931d4850a10cc9bccf44a16cfdaf657ccbbc5a1000000000000000000000000000000000000000000000000000000000000001b556c7472612053616665204c65767661205661756c7420555344430000000000000000000000000000000000000000000000000000000000000000000000000e4c455656412d4152422d555344430000000000000000000000000000000000000000000000000000000000000000000000000000000000000000000000000030556c7472612053616665204c65767661205661756c74204172622055534443205769746864726177616c20517565756500000000000000000000000000000000000000000000000000000000000000000000000000000000000000000000001f4c455656412d4152422d555344432d5749544844524157414c2d515545554500",
        "nonce": "0x136",
        "chainId": "0xa4b1"
      },
      "additionalContracts": [
        {
          "transactionType": "CREATE",
          "address": "0x9172c0c316cab74486efc9bf77c39a6358e39ff0",
          "initCode": "0x60a08060405261050d80380380916100178285610292565b833981016040828203126101eb5761002e826102c9565b602083015190926001600160401b0382116101eb57019080601f830112156101eb57815161005b816102dd565b926100696040519485610292565b8184526020840192602083830101116101eb57815f926020809301855e84010152823b15610274577fa3f0ad74e5423aebfd80d3ef4346578335a9a72aeaee59ff6cb3582b35133d5080546001600160a01b0319166001600160a01b038516908117909155604051635c60da1b60e01b8152909190602081600481865afa9081156101f7575f9161023a575b50803b1561021a5750817f1cf3b03a6cf19fa2baba4df148e9dcabedea7f8a5c07840e207e5c089be95d3e5f80a282511561020257602060049260405193848092635c60da1b60e01b82525afa9182156101f7575f926101ae575b505f809161018a945190845af43d156101a6573d9161016e836102dd565b9261017c6040519485610292565b83523d5f602085013e6102f8565b505b6080526040516101b6908161035782396080518160460152f35b6060916102f8565b9291506020833d6020116101ef575b816101ca60209383610292565b810103126101eb575f80916101e161018a956102c9565b9394509150610150565b5f80fd5b3d91506101bd565b6040513d5f823e3d90fd5b505050341561018c5763b398979f60e01b5f5260045ffd5b634c9c8ce360e01b5f9081526001600160a01b0391909116600452602490fd5b90506020813d60201161026c575b8161025560209383610292565b810103126101eb57610266906102c9565b5f6100f5565b3d9150610248565b631933b43b60e21b5f9081526001600160a01b038416600452602490fd5b601f909101601f19168101906001600160401b038211908210176102b557604052565b634e487b7160e01b5f52604160045260245ffd5b51906001600160a01b03821682036101eb57565b6001600160401b0381116102b557601f01601f191660200190565b9061031c575080511561030d57602081519101fd5b63d6bda27560e01b5f5260045ffd5b8151158061034d575b61032d575090565b639996b31560e01b5f9081526001600160a01b0391909116600452602490fd5b50803b1561032556fe60806040527f5c60da1b000000000000000000000000000000000000000000000000000000006080526020608060048173ffffffffffffffffffffffffffffffffffffffff7f0000000000000000000000000000000000000000000000000000000000000000165afa8015610107575f9015610163575060203d602011610100575b7fffffffffffffffffffffffffffffffffffffffffffffffffffffffffffffffe0601f820116608001906080821067ffffffffffffffff8311176100d3576100ce91604052608001610112565b610163565b7f4e487b71000000000000000000000000000000000000000000000000000000005f52604160045260245ffd5b503d610081565b6040513d5f823e3d90fd5b7fffffffffffffffffffffffffffffffffffffffffffffffffffffffffffffff80602091011261015f5760805173ffffffffffffffffffffffffffffffffffffffff8116810361015f5790565b5f80fd5b5f8091368280378136915af43d5f803e1561017c573d5ff35b3d5ffdfea26469706673582212209f25140d40d87fdc1683bb681952a61925d296a39cc4d260a504db9a00fb4acf64736f6c634300081c0033000000000000000000000000a6e361538c7bf31e152ed6eedf1c0b628d140c2b00000000000000000000000000000000000000000000000000000000000000400000000000000000000000000000000000000000000000000000000000000000"
        },
        {
          "transactionType": "CREATE",
          "address": "0x59a95196896137aee4261ec9bfb113a5b93f4a28",
          "initCode": "0x60a08060405261050d80380380916100178285610292565b833981016040828203126101eb5761002e826102c9565b602083015190926001600160401b0382116101eb57019080601f830112156101eb57815161005b816102dd565b926100696040519485610292565b8184526020840192602083830101116101eb57815f926020809301855e84010152823b15610274577fa3f0ad74e5423aebfd80d3ef4346578335a9a72aeaee59ff6cb3582b35133d5080546001600160a01b0319166001600160a01b038516908117909155604051635c60da1b60e01b8152909190602081600481865afa9081156101f7575f9161023a575b50803b1561021a5750817f1cf3b03a6cf19fa2baba4df148e9dcabedea7f8a5c07840e207e5c089be95d3e5f80a282511561020257602060049260405193848092635c60da1b60e01b82525afa9182156101f7575f926101ae575b505f809161018a945190845af43d156101a6573d9161016e836102dd565b9261017c6040519485610292565b83523d5f602085013e6102f8565b505b6080526040516101b6908161035782396080518160460152f35b6060916102f8565b9291506020833d6020116101ef575b816101ca60209383610292565b810103126101eb575f80916101e161018a956102c9565b9394509150610150565b5f80fd5b3d91506101bd565b6040513d5f823e3d90fd5b505050341561018c5763b398979f60e01b5f5260045ffd5b634c9c8ce360e01b5f9081526001600160a01b0391909116600452602490fd5b90506020813d60201161026c575b8161025560209383610292565b810103126101eb57610266906102c9565b5f6100f5565b3d9150610248565b631933b43b60e21b5f9081526001600160a01b038416600452602490fd5b601f909101601f19168101906001600160401b038211908210176102b557604052565b634e487b7160e01b5f52604160045260245ffd5b51906001600160a01b03821682036101eb57565b6001600160401b0381116102b557601f01601f191660200190565b9061031c575080511561030d57602081519101fd5b63d6bda27560e01b5f5260045ffd5b8151158061034d575b61032d575090565b639996b31560e01b5f9081526001600160a01b0391909116600452602490fd5b50803b1561032556fe60806040527f5c60da1b000000000000000000000000000000000000000000000000000000006080526020608060048173ffffffffffffffffffffffffffffffffffffffff7f0000000000000000000000000000000000000000000000000000000000000000165afa8015610107575f9015610163575060203d602011610100575b7fffffffffffffffffffffffffffffffffffffffffffffffffffffffffffffffe0601f820116608001906080821067ffffffffffffffff8311176100d3576100ce91604052608001610112565b610163565b7f4e487b71000000000000000000000000000000000000000000000000000000005f52604160045260245ffd5b503d610081565b6040513d5f823e3d90fd5b7fffffffffffffffffffffffffffffffffffffffffffffffffffffffffffffff80602091011261015f5760805173ffffffffffffffffffffffffffffffffffffffff8116810361015f5790565b5f80fd5b5f8091368280378136915af43d5f803e1561017c573d5ff35b3d5ffdfea26469706673582212209f25140d40d87fdc1683bb681952a61925d296a39cc4d260a504db9a00fb4acf64736f6c634300081c003300000000000000000000000076eed0fdc77d62c7a8118678437eeea4091dae5d000000000000000000000000000000000000000000000000000000000000004000000000000000000000000000000000000000000000000000000000000001242016a0d2000000000000000000000000ad70a0ab951780ff3397882fc5372db83deb06060000000000000000000000009172c0c316cab74486efc9bf77c39a6358e39ff0000000000000000000000000000000000000000000000000000000000000008000000000000000000000000000000000000000000000000000000000000000e00000000000000000000000000000000000000000000000000000000000000030556c7472612053616665204c65767661205661756c74204172622055534443205769746864726177616c20517565756500000000000000000000000000000000000000000000000000000000000000000000000000000000000000000000001f4c455656412d4152422d555344432d5749544844524157414c2d51554555450000000000000000000000000000000000000000000000000000000000"
        }
      ],
      "isFixedGasLimit": false
    },
    {
      "hash": "0x99e5d9268ecf2b0d0222d0234c5d1989aa37b99b06f1e4e49d86669918db8a7f",
      "transactionType": "CALL",
      "contractName": "BeaconProxy",
      "contractAddress": "0x9172c0c316cab74486efc9bf77c39a6358e39ff0",
      "function": null,
      "arguments": null,
      "transaction": {
        "from": "0xad70a0ab951780ff3397882fc5372db83deb0606",
        "to": "0x9172c0c316cab74486efc9bf77c39a6358e39ff0",
        "gas": "0x7c8a",
        "value": "0x0",
        "input": "0x04f5d1e2000000000000000000000000ad70a0ab951780ff3397882fc5372db83deb06060000000000000000000000000000000000000000000000000000000000000001",
        "nonce": "0x137",
        "chainId": "0xa4b1"
      },
      "additionalContracts": [],
      "isFixedGasLimit": false
    },
    {
      "hash": "0x1a2b22c257d43f049e9b527a8ad46d001b32dde74c923164b2e00be4b939a212",
      "transactionType": "CALL",
      "contractName": "BeaconProxy",
      "contractAddress": "0x9172c0c316cab74486efc9bf77c39a6358e39ff0",
      "function": null,
      "arguments": null,
      "transaction": {
        "from": "0xad70a0ab951780ff3397882fc5372db83deb0606",
        "to": "0x9172c0c316cab74486efc9bf77c39a6358e39ff0",
        "gas": "0x788c",
        "value": "0x0",
        "input": "0x4e380ab40000000000000000000000000000000000000000000000000000000000000000",
        "nonce": "0x138",
        "chainId": "0xa4b1"
      },
      "additionalContracts": [],
      "isFixedGasLimit": false
    },
    {
      "hash": "0x21ea2500cb989883c34a0ad56878b2afa9bdb9bf59731ed67b135a82de422f59",
      "transactionType": "CALL",
      "contractName": "BeaconProxy",
      "contractAddress": "0x9172c0c316cab74486efc9bf77c39a6358e39ff0",
      "function": null,
      "arguments": null,
      "transaction": {
        "from": "0xad70a0ab951780ff3397882fc5372db83deb0606",
        "to": "0x9172c0c316cab74486efc9bf77c39a6358e39ff0",
        "gas": "0x7897",
        "value": "0x0",
        "input": "0x0f650923000000000000000000000000000000000000000000000000000000000000000f",
        "nonce": "0x139",
        "chainId": "0xa4b1"
      },
      "additionalContracts": [],
      "isFixedGasLimit": false
    },
    {
      "hash": "0x14917a1d14a0290ca2f33da903dba75a6b42e747fd39a04e983d7f56d511cfbc",
      "transactionType": "CALL",
      "contractName": "BeaconProxy",
      "contractAddress": "0x9172c0c316cab74486efc9bf77c39a6358e39ff0",
      "function": null,
      "arguments": null,
      "transaction": {
        "from": "0xad70a0ab951780ff3397882fc5372db83deb0606",
        "to": "0x9172c0c316cab74486efc9bf77c39a6358e39ff0",
        "gas": "0x7894",
        "value": "0x0",
        "input": "0x33e75d48000000000000000000000000000000000000000000000000000000000000000f",
        "nonce": "0x13a",
        "chainId": "0xa4b1"
      },
      "additionalContracts": [],
      "isFixedGasLimit": false
    },
    {
      "hash": "0xafacd2e087dff462222f352fb543f1a84f423d1757daf1869e80c5d61640a82c",
      "transactionType": "CALL",
      "contractName": "BeaconProxy",
      "contractAddress": "0x9172c0c316cab74486efc9bf77c39a6358e39ff0",
      "function": null,
      "arguments": null,
      "transaction": {
        "from": "0xad70a0ab951780ff3397882fc5372db83deb0606",
        "to": "0x9172c0c316cab74486efc9bf77c39a6358e39ff0",
        "gas": "0x78a4",
        "value": "0x0",
        "input": "0x85a192f60000000000000000000000000000000000000000000000000000000000002710",
        "nonce": "0x13b",
        "chainId": "0xa4b1"
      },
      "additionalContracts": [],
      "isFixedGasLimit": false
    },
    {
      "hash": "0x21cb06ec7894c660937a62cf92ee5dcfbc94ece2b71e564e41a00dde7d9ab00e",
      "transactionType": "CALL",
      "contractName": "BeaconProxy",
      "contractAddress": "0x9172c0c316cab74486efc9bf77c39a6358e39ff0",
      "function": null,
      "arguments": null,
      "transaction": {
        "from": "0xad70a0ab951780ff3397882fc5372db83deb0606",
        "to": "0x9172c0c316cab74486efc9bf77c39a6358e39ff0",
        "gas": "0x789e",
        "value": "0x0",
        "input": "0x89c126f30000000000000000000000000000000000000000000000000000000000002710",
        "nonce": "0x13c",
        "chainId": "0xa4b1"
      },
      "additionalContracts": [],
      "isFixedGasLimit": false
    },
    {
      "hash": "0xfe448ada9aa49be656d07507712e2f0bda8b149f2559c72516fc3d7f9a03d588",
      "transactionType": "CALL",
      "contractName": "BeaconProxy",
      "contractAddress": "0x59a95196896137aee4261ec9bfb113a5b93f4a28",
      "function": null,
      "arguments": null,
      "transaction": {
        "from": "0xad70a0ab951780ff3397882fc5372db83deb0606",
        "to": "0x59a95196896137aee4261ec9bfb113a5b93f4a28",
        "gas": "0x7c94",
        "value": "0x0",
        "input": "0x514d7761000000000000000000000000ad70a0ab951780ff3397882fc5372db83deb06060000000000000000000000000000000000000000000000000000000000000001",
        "nonce": "0x13d",
        "chainId": "0xa4b1"
      },
      "additionalContracts": [],
      "isFixedGasLimit": false
    },
    {
      "hash": "0x40aed07e4f1a0ffb1b3f7b221b1396fd4c125a13f0abaed5622da5ff42fde6e7",
      "transactionType": "CALL",
      "contractName": "BeaconProxy",
      "contractAddress": "0x9172c0c316cab74486efc9bf77c39a6358e39ff0",
      "function": null,
      "arguments": null,
      "transaction": {
        "from": "0xad70a0ab951780ff3397882fc5372db83deb0606",
        "to": "0x9172c0c316cab74486efc9bf77c39a6358e39ff0",
        "gas": "0x79d1",
        "value": "0x0",
        "input": "0x4ef0762e00000000000000000000000082af49447d8a07e3bd95bd0d56f35241523fbab1",
        "nonce": "0x13e",
        "chainId": "0xa4b1"
      },
      "additionalContracts": [],
      "isFixedGasLimit": false
    },
    {
      "hash": "0x97eae0abd0ed0bb8f12ca3b1a8a8f49fdc303d5569f2e36888eb112f16d370d7",
      "transactionType": "CALL",
      "contractName": "BeaconProxy",
      "contractAddress": "0x9172c0c316cab74486efc9bf77c39a6358e39ff0",
      "function": null,
      "arguments": null,
      "transaction": {
        "from": "0xad70a0ab951780ff3397882fc5372db83deb0606",
        "to": "0x9172c0c316cab74486efc9bf77c39a6358e39ff0",
        "gas": "0x79d0",
        "value": "0x0",
        "input": "0x4ef0762e0000000000000000000000002f2a2543b76a4166549f7aab2e75bef0aefc5b0f",
        "nonce": "0x13f",
        "chainId": "0xa4b1"
      },
      "additionalContracts": [],
      "isFixedGasLimit": false
    },
    {
      "hash": "0xd5267f461a4335a6fbbcdf29c21158517185f97a9157030e8cfdc35d81191d1c",
      "transactionType": "CALL",
      "contractName": "BeaconProxy",
      "contractAddress": "0x9172c0c316cab74486efc9bf77c39a6358e39ff0",
      "function": null,
      "arguments": null,
      "transaction": {
        "from": "0xad70a0ab951780ff3397882fc5372db83deb0606",
        "to": "0x9172c0c316cab74486efc9bf77c39a6358e39ff0",
        "gas": "0x79d0",
        "value": "0x0",
        "input": "0x60d54d4100000000000000000000000055991bf0bc93811c51fdcd4a62ad9125fa96f3a2",
        "nonce": "0x140",
        "chainId": "0xa4b1"
      },
      "additionalContracts": [],
      "isFixedGasLimit": false
    },
    {
      "hash": "0xa4bf25093586c424d9dbc2f9344baaddce4f2cf7c365a12ca95fedbf99c26b4a",
      "transactionType": "CALL",
      "contractName": "BeaconProxy",
      "contractAddress": "0x9172c0c316cab74486efc9bf77c39a6358e39ff0",
      "function": null,
      "arguments": null,
      "transaction": {
        "from": "0xad70a0ab951780ff3397882fc5372db83deb0606",
        "to": "0x9172c0c316cab74486efc9bf77c39a6358e39ff0",
        "gas": "0x79cd",
        "value": "0x0",
        "input": "0x60d54d41000000000000000000000000b528a3d9abe7d775fc21091f0e3e3d11b47852e3",
        "nonce": "0x141",
        "chainId": "0xa4b1"
      },
      "additionalContracts": [],
      "isFixedGasLimit": false
    },
    {
      "hash": "0x86e526fcc4a897979d550da8000dcb0f79cfe909ef7f6b4626e230116e4a275e",
      "transactionType": "CALL",
      "contractName": "BeaconProxy",
      "contractAddress": "0x9172c0c316cab74486efc9bf77c39a6358e39ff0",
      "function": null,
      "arguments": null,
      "transaction": {
        "from": "0xad70a0ab951780ff3397882fc5372db83deb0606",
        "to": "0x9172c0c316cab74486efc9bf77c39a6358e39ff0",
        "gas": "0x79cc",
        "value": "0x0",
        "input": "0x60d54d410000000000000000000000006aedb1fcbef33885c1ac6149c3464854f7aa1f01",
        "nonce": "0x142",
        "chainId": "0xa4b1"
      },
      "additionalContracts": [],
      "isFixedGasLimit": false
    },
    {
      "hash": "0x329d4695601724d81007ac48006bf3284703310d2d880ea581ad497f649b9ecf",
      "transactionType": "CALL",
      "contractName": "BeaconProxy",
      "contractAddress": "0x9172c0c316cab74486efc9bf77c39a6358e39ff0",
      "function": null,
      "arguments": null,
      "transaction": {
        "from": "0xad70a0ab951780ff3397882fc5372db83deb0606",
        "to": "0x9172c0c316cab74486efc9bf77c39a6358e39ff0",
        "gas": "0x79cc",
        "value": "0x0",
        "input": "0x60d54d410000000000000000000000003905f3fa1c85a92eb599e121417072d50aa14d1b",
        "nonce": "0x143",
        "chainId": "0xa4b1"
      },
      "additionalContracts": [],
      "isFixedGasLimit": false
    },
    {
      "hash": "0xeb3a0ad5590f0f6fe23a39e9e2144be307491e3f9c0006aa13b2c4e56ba2283c",
      "transactionType": "CALL",
      "contractName": "BeaconProxy",
      "contractAddress": "0x9172c0c316cab74486efc9bf77c39a6358e39ff0",
      "function": null,
      "arguments": null,
      "transaction": {
        "from": "0xad70a0ab951780ff3397882fc5372db83deb0606",
        "to": "0x9172c0c316cab74486efc9bf77c39a6358e39ff0",
        "gas": "0x79cc",
        "value": "0x0",
        "input": "0x60d54d410000000000000000000000003d8074fddc5bad58dd953408ef3e8c7933811c5c",
        "nonce": "0x144",
        "chainId": "0xa4b1"
      },
      "additionalContracts": [],
      "isFixedGasLimit": false
    }
  ],
  "receipts": [
    {
      "status": "0x1",
      "cumulativeGasUsed": "0xd6c86",
      "logs": [
        {
          "address": "0x9172c0c316cab74486efc9bf77c39a6358e39ff0",
          "topics": [
            "0x1cf3b03a6cf19fa2baba4df148e9dcabedea7f8a5c07840e207e5c089be95d3e",
            "0x000000000000000000000000a6e361538c7bf31e152ed6eedf1c0b628d140c2b"
          ],
          "data": "0x",
          "blockHash": "0xbf1d0d67351e8da995122b17cea8619ad7803e52f0285a39a927f8af377341fa",
          "blockNumber": "0x157b548b",
          "transactionHash": "0x29d27fc8f2bc575efa83b885cd275a937202ac4c7cc7aaca0530b63a5ca66335",
          "transactionIndex": "0x2",
          "logIndex": "0x2",
          "removed": false
        },
        {
          "address": "0x59a95196896137aee4261ec9bfb113a5b93f4a28",
          "topics": [
            "0x1cf3b03a6cf19fa2baba4df148e9dcabedea7f8a5c07840e207e5c089be95d3e",
            "0x00000000000000000000000076eed0fdc77d62c7a8118678437eeea4091dae5d"
          ],
          "data": "0x",
          "blockHash": "0xbf1d0d67351e8da995122b17cea8619ad7803e52f0285a39a927f8af377341fa",
          "blockNumber": "0x157b548b",
          "transactionHash": "0x29d27fc8f2bc575efa83b885cd275a937202ac4c7cc7aaca0530b63a5ca66335",
          "transactionIndex": "0x2",
          "logIndex": "0x3",
          "removed": false
        },
        {
          "address": "0x59a95196896137aee4261ec9bfb113a5b93f4a28",
          "topics": [
            "0x8be0079c531659141344cd1fd0a4f28419497f9722a3daafe3b4186f6b6457e0",
            "0x0000000000000000000000000000000000000000000000000000000000000000",
            "0x000000000000000000000000ad70a0ab951780ff3397882fc5372db83deb0606"
          ],
          "data": "0x",
          "blockHash": "0xbf1d0d67351e8da995122b17cea8619ad7803e52f0285a39a927f8af377341fa",
          "blockNumber": "0x157b548b",
          "transactionHash": "0x29d27fc8f2bc575efa83b885cd275a937202ac4c7cc7aaca0530b63a5ca66335",
          "transactionIndex": "0x2",
          "logIndex": "0x4",
          "removed": false
        },
        {
          "address": "0x59a95196896137aee4261ec9bfb113a5b93f4a28",
          "topics": [
            "0xc7f505b2f371ae2175ee4913f4499e1f2633a7b5936321eed1cdaeb6115181d2"
          ],
          "data": "0x0000000000000000000000000000000000000000000000000000000000000001",
          "blockHash": "0xbf1d0d67351e8da995122b17cea8619ad7803e52f0285a39a927f8af377341fa",
          "blockNumber": "0x157b548b",
          "transactionHash": "0x29d27fc8f2bc575efa83b885cd275a937202ac4c7cc7aaca0530b63a5ca66335",
          "transactionIndex": "0x2",
          "logIndex": "0x5",
          "removed": false
        },
        {
          "address": "0x9172c0c316cab74486efc9bf77c39a6358e39ff0",
          "topics": [
            "0x8be0079c531659141344cd1fd0a4f28419497f9722a3daafe3b4186f6b6457e0",
            "0x0000000000000000000000000000000000000000000000000000000000000000",
            "0x000000000000000000000000ad70a0ab951780ff3397882fc5372db83deb0606"
          ],
          "data": "0x",
          "blockHash": "0xbf1d0d67351e8da995122b17cea8619ad7803e52f0285a39a927f8af377341fa",
          "blockNumber": "0x157b548b",
          "transactionHash": "0x29d27fc8f2bc575efa83b885cd275a937202ac4c7cc7aaca0530b63a5ca66335",
          "transactionIndex": "0x2",
          "logIndex": "0x6",
          "removed": false
        },
        {
          "address": "0x9172c0c316cab74486efc9bf77c39a6358e39ff0",
          "topics": [
            "0x3f32684a32a11dabdbb8c0177de80aa3ae36a004d75210335b49e544e48cd0aa",
            "0x0000000000000000000000009931d4850a10cc9bccf44a16cfdaf657ccbbc5a1"
          ],
          "data": "0x",
          "blockHash": "0xbf1d0d67351e8da995122b17cea8619ad7803e52f0285a39a927f8af377341fa",
          "blockNumber": "0x157b548b",
          "transactionHash": "0x29d27fc8f2bc575efa83b885cd275a937202ac4c7cc7aaca0530b63a5ca66335",
          "transactionIndex": "0x2",
          "logIndex": "0x7",
          "removed": false
        },
        {
          "address": "0x9172c0c316cab74486efc9bf77c39a6358e39ff0",
          "topics": [
            "0xc7f505b2f371ae2175ee4913f4499e1f2633a7b5936321eed1cdaeb6115181d2"
          ],
          "data": "0x0000000000000000000000000000000000000000000000000000000000000001",
          "blockHash": "0xbf1d0d67351e8da995122b17cea8619ad7803e52f0285a39a927f8af377341fa",
          "blockNumber": "0x157b548b",
          "transactionHash": "0x29d27fc8f2bc575efa83b885cd275a937202ac4c7cc7aaca0530b63a5ca66335",
          "transactionIndex": "0x2",
          "logIndex": "0x8",
          "removed": false
        },
        {
          "address": "0x8506934ed8c1154da93610012524b07a972bacca",
          "topics": [
            "0x4488076962388d304d43074c5fd17937d482d4af629cf108b76d54c51c537f27",
            "0x0000000000000000000000009172c0c316cab74486efc9bf77c39a6358e39ff0",
            "0x00000000000000000000000059a95196896137aee4261ec9bfb113a5b93f4a28"
          ],
          "data": "0x000000000000000000000000af88d065e77c8cc2239327c5edb3a432268e58310000000000000000000000000000000000000000000000000000000000000040000000000000000000000000000000000000000000000000000000000000001b556c7472612053616665204c65767661205661756c7420555344430000000000",
          "blockHash": "0xbf1d0d67351e8da995122b17cea8619ad7803e52f0285a39a927f8af377341fa",
          "blockNumber": "0x157b548b",
          "transactionHash": "0x29d27fc8f2bc575efa83b885cd275a937202ac4c7cc7aaca0530b63a5ca66335",
          "transactionIndex": "0x2",
          "logIndex": "0x9",
          "removed": false
        }
      ],
      "logsBloom": "0x00000000000000000000000002000000000000002200000000800000000000000000000100000000000000000000100000100000000000000000000000002000002200000000000000000000001000000081010000000000000000000000000000000000022000000000000080000800088000000000000000000000000000402000000000000000000800000000080000810000100080000000000000000000000000800000000100000000000000000000080000000000000000000000000000000000001000000000400000440000000000000006000000800000000020000000480000000000000004000000000000000100000000400000000000000000",
      "type": "0x2",
      "transactionHash": "0x29d27fc8f2bc575efa83b885cd275a937202ac4c7cc7aaca0530b63a5ca66335",
      "transactionIndex": "0x2",
      "blockHash": "0xbf1d0d67351e8da995122b17cea8619ad7803e52f0285a39a927f8af377341fa",
      "blockNumber": "0x157b548b",
      "gasUsed": "0xbf273",
      "effectiveGasPrice": "0x40b5eb0",
      "from": "0xad70a0ab951780ff3397882fc5372db83deb0606",
      "to": "0x8506934ed8c1154da93610012524b07a972bacca",
      "contractAddress": null,
      "gasUsedForL1": "0x10c9",
      "l1BlockNumber": "0x15e9324",
      "timeboosted": false
    },
    {
      "status": "0x1",
      "cumulativeGasUsed": "0xe019",
      "logs": [
        {
          "address": "0x9172c0c316cab74486efc9bf77c39a6358e39ff0",
          "topics": [
            "0x409f6c907ebb200fe684297d20d647dad13c254f95ed78ad8178bd4b122bda96",
            "0x000000000000000000000000ad70a0ab951780ff3397882fc5372db83deb0606"
          ],
          "data": "0x0000000000000000000000000000000000000000000000000000000000000001",
          "blockHash": "0xc83034f3e64cb1288f5a85659ce9d39b112d4a738022c09c963523edbfabde54",
          "blockNumber": "0x157b5491",
          "transactionHash": "0x99e5d9268ecf2b0d0222d0234c5d1989aa37b99b06f1e4e49d86669918db8a7f",
          "transactionIndex": "0x1",
          "logIndex": "0x0",
          "removed": false
        }
      ],
      "logsBloom": "0x00000000000000000000000000008000000000000000000000000000000000000000000000000028000000000000000000100000000000000000000000000000000000000000000000000000000000000080000000000000000000000000000000000000000000000000000080000000080000000000000000000000000000000000000000000000000000000000000000000000000000000000000000000000000000000000000000000000000000000000000000000000000000000000000000000000000000000000000000000000000000000000000000000000000000000000080000000000000000000000000000000000000000400000000000000000",
      "type": "0x2",
      "transactionHash": "0x99e5d9268ecf2b0d0222d0234c5d1989aa37b99b06f1e4e49d86669918db8a7f",
      "transactionIndex": "0x1",
      "blockHash": "0xc83034f3e64cb1288f5a85659ce9d39b112d4a738022c09c963523edbfabde54",
      "blockNumber": "0x157b5491",
      "gasUsed": "0xe019",
      "effectiveGasPrice": "0x4052cc0",
      "from": "0xad70a0ab951780ff3397882fc5372db83deb0606",
      "to": "0x9172c0c316cab74486efc9bf77c39a6358e39ff0",
      "contractAddress": null,
      "gasUsedForL1": "0x760",
      "l1BlockNumber": "0x15e9324",
      "timeboosted": false
    },
    {
      "status": "0x1",
      "cumulativeGasUsed": "0x22991",
      "logs": [
        {
          "address": "0x9172c0c316cab74486efc9bf77c39a6358e39ff0",
          "topics": [
            "0xdd57d8d1fbee36c2d6d46d5cdcc7b90ad51be63639fe4142d11c12a0170241a8"
          ],
          "data": "0x0000000000000000000000000000000000000000000000000000000000000000",
          "blockHash": "0x6c32a542d7699146947aca8328faf9aac7791f469f89bcb161a8d3063cc682c4",
          "blockNumber": "0x157b5496",
          "transactionHash": "0x1a2b22c257d43f049e9b527a8ad46d001b32dde74c923164b2e00be4b939a212",
          "transactionIndex": "0x2",
          "logIndex": "0x2",
          "removed": false
        }
      ],
      "logsBloom": "0x00000000000000000000000000000000000001000000000000000000000000000000000000000000000000000000000000100000000000000000000000000800000000000000000000000000000000000000000000000000000000000000000000000000000000000000000080000000080000000000000000000000000000000000000000000000000000000000000000000000000000000000000000000000000000000000000000000000000000000000000000000000000000000000000000000000000000000000000000000000000000000000000000000000000000000000000000000000000000000000000000000000000000080000000000000000",
      "type": "0x2",
      "transactionHash": "0x1a2b22c257d43f049e9b527a8ad46d001b32dde74c923164b2e00be4b939a212",
      "transactionIndex": "0x2",
      "blockHash": "0x6c32a542d7699146947aca8328faf9aac7791f469f89bcb161a8d3063cc682c4",
      "blockNumber": "0x157b5496",
      "gasUsed": "0x8eeb",
      "effectiveGasPrice": "0x4076af8",
      "from": "0xad70a0ab951780ff3397882fc5372db83deb0606",
      "to": "0x9172c0c316cab74486efc9bf77c39a6358e39ff0",
      "contractAddress": null,
      "gasUsedForL1": "0x5fe",
      "l1BlockNumber": "0x15e9324",
      "timeboosted": false
    },
    {
      "status": "0x1",
      "cumulativeGasUsed": "0x1ef95",
      "logs": [
        {
          "address": "0x9172c0c316cab74486efc9bf77c39a6358e39ff0",
          "topics": [
            "0xea634c1888ae5fc72ebb3ce6846187a750d44cb4be5fa2fca07ae941bc051ca4"
          ],
          "data": "0x000000000000000000000000000000000000000000000000000000000000000f",
          "blockHash": "0x92042aedbb2102d8b0f8ca4f04da37d41e97d680981a9354f2e4fa2cb91195ae",
          "blockNumber": "0x157b549b",
          "transactionHash": "0x21ea2500cb989883c34a0ad56878b2afa9bdb9bf59731ed67b135a82de422f59",
          "transactionIndex": "0x3",
          "logIndex": "0x2",
          "removed": false
        }
      ],
      "logsBloom": "0x00000000000000000000000000000000000000000000000000000000000000000000000000000000000000000000000000100000000000000000000000000000000000000000000000000000000000000000000000000000000000000000000000000000000000000000000080000000080000000000000000000000000000000000000000000000000000000000000000000000000000000000000000000000000000000000000000000000000000000000000000000000000000000000000000000000000000020000000000000000000000000000000000002000000000000000000000000000000000000000000000000000000000000000000000000800",
      "type": "0x2",
      "transactionHash": "0x21ea2500cb989883c34a0ad56878b2afa9bdb9bf59731ed67b135a82de422f59",
      "transactionIndex": "0x3",
      "blockHash": "0x92042aedbb2102d8b0f8ca4f04da37d41e97d680981a9354f2e4fa2cb91195ae",
      "blockNumber": "0x157b549b",
      "gasUsed": "0xe3d1",
      "effectiveGasPrice": "0x4066928",
      "from": "0xad70a0ab951780ff3397882fc5372db83deb0606",
      "to": "0x9172c0c316cab74486efc9bf77c39a6358e39ff0",
      "contractAddress": null,
      "gasUsedForL1": "0x60a",
      "l1BlockNumber": "0x15e9324",
      "timeboosted": false
    },
    {
      "status": "0x1",
      "cumulativeGasUsed": "0x534f2",
      "logs": [
        {
          "address": "0x9172c0c316cab74486efc9bf77c39a6358e39ff0",
          "topics": [
            "0x4d4bb3f72d59781210091ea60a18a0701d933b8eb618f1665620326ee8638018"
          ],
          "data": "0x000000000000000000000000000000000000000000000000000000000000000f",
          "blockHash": "0xe66b19b2b4b0ec298d7135bf9575172089e328542070c411ed711e9d546299d1",
          "blockNumber": "0x157b54a0",
          "transactionHash": "0x14917a1d14a0290ca2f33da903dba75a6b42e747fd39a04e983d7f56d511cfbc",
          "transactionIndex": "0x5",
          "logIndex": "0x6",
          "removed": false
        }
      ],
      "logsBloom": "0x00000000000000000000000000000000000000000000000000000000000000000000000000000000000000000000000000100000000000000000000000000000000000000000000000000000000000000000000000000800000000000000000000000000000000000000000080000000080000000000000000000000000000000000000000000000000000000000000000000000000000000000000000000000000000000000000000000000000000000000000000000000002000000000000000000000000000000000000000000000000000000000000000000000000000008000000000000000000000000000000000000000000000000000000000000000",
      "type": "0x2",
      "transactionHash": "0x14917a1d14a0290ca2f33da903dba75a6b42e747fd39a04e983d7f56d511cfbc",
      "transactionIndex": "0x5",
      "blockHash": "0xe66b19b2b4b0ec298d7135bf9575172089e328542070c411ed711e9d546299d1",
      "blockNumber": "0x157b54a0",
      "gasUsed": "0xe481",
      "effectiveGasPrice": "0x3f853b0",
      "from": "0xad70a0ab951780ff3397882fc5372db83deb0606",
      "to": "0x9172c0c316cab74486efc9bf77c39a6358e39ff0",
      "contractAddress": null,
      "gasUsedForL1": "0x61f",
      "l1BlockNumber": "0x15e9325",
      "timeboosted": false
    },
    {
      "status": "0x1",
      "cumulativeGasUsed": "0x68f73",
      "logs": [
        {
          "address": "0x9172c0c316cab74486efc9bf77c39a6358e39ff0",
          "topics": [
            "0x68de06997c052c95ccca214435923150597a969801ccc58914eeecae80ebc12d"
          ],
          "data": "0x0000000000000000000000000000000000000000000000000000000000002710",
          "blockHash": "0xeaf564deb3134eed1dead8b5b812fba1ab9aa80625525e739e6e8a6201aa5c38",
          "blockNumber": "0x157b54a7",
          "transactionHash": "0xafacd2e087dff462222f352fb543f1a84f423d1757daf1869e80c5d61640a82c",
          "transactionIndex": "0x4",
          "logIndex": "0xa",
          "removed": false
        }
      ],
      "logsBloom": "0x00000000000000000000000000000000000000001000000000000000000000000000000000000000000000000000000000100000000000000000000000000000000000000000000000000000080000000000000000000000000000000000000000000000000000000000000080000000080000000000000000000000000000000000000000000000000000000000000000000000000000000000000000000000000000000000000000000000000000000000000000000000000000000000000000000000000000000000000080000000000000000000000000000000000000000000000000000000000000000000000000000000000000000000000000000000",
      "type": "0x2",
      "transactionHash": "0xafacd2e087dff462222f352fb543f1a84f423d1757daf1869e80c5d61640a82c",
      "transactionIndex": "0x4",
      "blockHash": "0xeaf564deb3134eed1dead8b5b812fba1ab9aa80625525e739e6e8a6201aa5c38",
      "blockNumber": "0x157b54a7",
      "gasUsed": "0x9b77",
      "effectiveGasPrice": "0x3f4d528",
      "from": "0xad70a0ab951780ff3397882fc5372db83deb0606",
      "to": "0x9172c0c316cab74486efc9bf77c39a6358e39ff0",
      "contractAddress": null,
      "gasUsedForL1": "0x61a",
      "l1BlockNumber": "0x15e9325",
      "timeboosted": false
    },
    {
      "status": "0x1",
      "cumulativeGasUsed": "0x9b95",
      "logs": [
        {
          "address": "0x9172c0c316cab74486efc9bf77c39a6358e39ff0",
          "topics": [
            "0x8a36e6dcd5d1e60971629c7d720514641a81e1f8931541d03f44fd6f82291492"
          ],
          "data": "0x0000000000000000000000000000000000000000000000000000000000002710",
          "blockHash": "0x21903bb17d7f50cfc9861013dd01e879177c85c273aac7b60fb0da83a428c025",
          "blockNumber": "0x157b54af",
          "transactionHash": "0x21cb06ec7894c660937a62cf92ee5dcfbc94ece2b71e564e41a00dde7d9ab00e",
          "transactionIndex": "0x1",
          "logIndex": "0x0",
          "removed": false
        }
      ],
      "logsBloom": "0x00000000000000000000000000000000000000000000000000000000200000000000000000000000000000000000000000100000000000000000000000000000000000000000000000000000000000000000000000000000000000000000000000000000000000000000000080000000080000000000000000000000000000000000000000000000000000000000000000000000000000000000000000000000000000000000000000000000000000000000000000000200000000000000000000000000100000000000000000000000000000000000000000000000000000000000000000000000000000000000000000000000000000000000000000000000",
      "type": "0x2",
      "transactionHash": "0x21cb06ec7894c660937a62cf92ee5dcfbc94ece2b71e564e41a00dde7d9ab00e",
      "transactionIndex": "0x1",
      "blockHash": "0x21903bb17d7f50cfc9861013dd01e879177c85c273aac7b60fb0da83a428c025",
      "blockNumber": "0x157b54af",
      "gasUsed": "0x9b95",
      "effectiveGasPrice": "0x3ebd478",
      "from": "0xad70a0ab951780ff3397882fc5372db83deb0606",
      "to": "0x9172c0c316cab74486efc9bf77c39a6358e39ff0",
      "contractAddress": null,
      "gasUsedForL1": "0x628",
      "l1BlockNumber": "0x15e9325",
      "timeboosted": false
    },
    {
      "status": "0x1",
      "cumulativeGasUsed": "0x8c63e",
      "logs": [
        {
          "address": "0x59a95196896137aee4261ec9bfb113a5b93f4a28",
          "topics": [
            "0xa9559b884080a9e19fd09db8dc653833caa2fd9557ab70057ef64a51fef7d878",
            "0x000000000000000000000000ad70a0ab951780ff3397882fc5372db83deb0606"
          ],
          "data": "0x0000000000000000000000000000000000000000000000000000000000000001",
          "blockHash": "0x5a2caee97b6b3d4abfa32a4399f6f0bd08a1281ab1da96ea1d15838f6f6b5edd",
          "blockNumber": "0x157b54b6",
          "transactionHash": "0xfe448ada9aa49be656d07507712e2f0bda8b149f2559c72516fc3d7f9a03d588",
          "transactionIndex": "0x4",
          "logIndex": "0x12",
          "removed": false
        }
      ],
      "logsBloom": "0x00000000000000000000000002000000000000000000000000000000000000000000002000000000000000000000000000000000000000000000000000000000000000000000000000000000000000000080000000000000000000000000000000000002000000000000000000000000000000000000000000000000000000000000000000000000000000000000000000010000000000000000000000000000000000000000000000000000000000000000000000000000000000000000000000000000000000000000000000000000000000000002000000000000000000000000080000000000008000000000000000000000000000400000000000000000",
      "type": "0x2",
      "transactionHash": "0xfe448ada9aa49be656d07507712e2f0bda8b149f2559c72516fc3d7f9a03d588",
      "transactionIndex": "0x4",
      "blockHash": "0x5a2caee97b6b3d4abfa32a4399f6f0bd08a1281ab1da96ea1d15838f6f6b5edd",
      "blockNumber": "0x157b54b6",
      "gasUsed": "0xe14a",
      "effectiveGasPrice": "0x3e52588",
      "from": "0xad70a0ab951780ff3397882fc5372db83deb0606",
      "to": "0x59a95196896137aee4261ec9bfb113a5b93f4a28",
      "contractAddress": null,
      "gasUsedForL1": "0x79d",
      "l1BlockNumber": "0x15e9325",
      "timeboosted": false
    },
    {
      "status": "0x1",
      "cumulativeGasUsed": "0x9fea8",
      "logs": [
        {
          "address": "0x9172c0c316cab74486efc9bf77c39a6358e39ff0",
          "topics": [
            "0x5bf90512032b31face99172fdd0ff713670f739af77c985910b93039bf3839fb",
            "0x00000000000000000000000082af49447d8a07e3bd95bd0d56f35241523fbab1",
            "0x0000000000000000000000000000000000000000000000000000000000000001"
          ],
          "data": "0x",
          "blockHash": "0xf2c46df88c816bfed97f60502e33813a14252ebaa607221620f454f59c994154",
          "blockNumber": "0x157b54c0",
          "transactionHash": "0x40aed07e4f1a0ffb1b3f7b221b1396fd4c125a13f0abaed5622da5ff42fde6e7",
          "transactionIndex": "0x4",
          "logIndex": "0x8",
          "removed": false
        }
      ],
      "logsBloom": "0x00000000000000000000000000000000000000000000000000000000000000000000000800000000000000000000000000100000000000000000000000040000000000000000000000000000000000010000000000040000000000000000000000000000000000000000000080000000080000000000000000000000000000200000000000000000000000000000000000000000000000000000000000000000000000000000000000000000000000000000100000000000000000000000000000000000000000000000000000000000000000000000000000000000000040000000000000000000020000000000000000000000000000800000000000000000",
      "type": "0x2",
      "transactionHash": "0x40aed07e4f1a0ffb1b3f7b221b1396fd4c125a13f0abaed5622da5ff42fde6e7",
      "transactionIndex": "0x4",
      "blockHash": "0xf2c46df88c816bfed97f60502e33813a14252ebaa607221620f454f59c994154",
      "blockNumber": "0x157b54c0",
      "gasUsed": "0x2aec3",
      "effectiveGasPrice": "0x3d53f38",
      "from": "0xad70a0ab951780ff3397882fc5372db83deb0606",
      "to": "0x9172c0c316cab74486efc9bf77c39a6358e39ff0",
      "contractAddress": null,
      "gasUsedForL1": "0x657",
      "l1BlockNumber": "0x15e9325",
      "timeboosted": false
    },
    {
      "status": "0x1",
      "cumulativeGasUsed": "0x459ea",
      "logs": [
        {
          "address": "0x9172c0c316cab74486efc9bf77c39a6358e39ff0",
          "topics": [
            "0x5bf90512032b31face99172fdd0ff713670f739af77c985910b93039bf3839fb",
            "0x0000000000000000000000002f2a2543b76a4166549f7aab2e75bef0aefc5b0f",
            "0x0000000000000000000000000000000000000000000000000000000000000002"
          ],
          "data": "0x",
          "blockHash": "0x1b5c6fb2cf8528628100c06103dfd248b87aff4a8af21468f8820aeb9b6ec7f2",
          "blockNumber": "0x157b54c7",
          "transactionHash": "0x97eae0abd0ed0bb8f12ca3b1a8a8f49fdc303d5569f2e36888eb112f16d370d7",
          "transactionIndex": "0x2",
          "logIndex": "0x5",
          "removed": false
        }
      ],
      "logsBloom": "0x04000000000000000000000000000000000000000100000000000000000000000000000800000001000000000000000000100000000000000000000000000000000000000000000000000000000000000000000000000000000008000000000000000000000000000000000080000000080000000000000000000000000000200000000000000000000000000000000000000000000000000000000000000000000000000000000000000100000000000000100000000000000000000000000000000000000000000000000000000000000000000000000000000000000000000000000000000000000000000000000000000000008000000000000000000000",
      "type": "0x2",
      "transactionHash": "0x97eae0abd0ed0bb8f12ca3b1a8a8f49fdc303d5569f2e36888eb112f16d370d7",
      "transactionIndex": "0x2",
      "blockHash": "0x1b5c6fb2cf8528628100c06103dfd248b87aff4a8af21468f8820aeb9b6ec7f2",
      "blockNumber": "0x157b54c7",
      "gasUsed": "0x27fb9",
      "effectiveGasPrice": "0x3d61228",
      "from": "0xad70a0ab951780ff3397882fc5372db83deb0606",
      "to": "0x9172c0c316cab74486efc9bf77c39a6358e39ff0",
      "contractAddress": null,
      "gasUsedForL1": "0x656",
      "l1BlockNumber": "0x15e9325",
      "timeboosted": false
    },
    {
      "status": "0x1",
      "cumulativeGasUsed": "0x3410e",
      "logs": [
        {
          "address": "0x9172c0c316cab74486efc9bf77c39a6358e39ff0",
          "topics": [
            "0xe010d4607c87be74896018a7c6ba230e02532b986ba2ee27c1c2174653d68bf0",
            "0xb8d79aff00000000000000000000000000000000000000000000000000000000",
            "0x00000000000000000000000055991bf0bc93811c51fdcd4a62ad9125fa96f3a2"
          ],
          "data": "0x",
          "blockHash": "0xb500aceedd2717af509992bd93ffd619492f53ac910005d354ebd3ebe2582840",
          "blockNumber": "0x157b54cd",
          "transactionHash": "0xd5267f461a4335a6fbbcdf29c21158517185f97a9157030e8cfdc35d81191d1c",
          "transactionIndex": "0x2",
          "logIndex": "0x2",
          "removed": false
        }
      ],
      "logsBloom": "0x00000000000000000000000000000000000000000000000000000000000000000000000000000000000000000000000000100040000000000000000000000000000001000000000000000000000000000000000000000000000000000000000000000000000000000000000080000000080000000000080000000000000000000000000000000000000000000000000000100000000000000000000000000000000000000000000000000000000000000000000000000010000000000000000000000000000000008000001000000000000000000000000000000000000000000040000000000000000000000000000000000000000000008000000000000000",
      "type": "0x2",
      "transactionHash": "0xd5267f461a4335a6fbbcdf29c21158517185f97a9157030e8cfdc35d81191d1c",
      "transactionIndex": "0x2",
      "blockHash": "0xb500aceedd2717af509992bd93ffd619492f53ac910005d354ebd3ebe2582840",
      "blockNumber": "0x157b54cd",
      "gasUsed": "0xf300",
      "effectiveGasPrice": "0x3ca8908",
      "from": "0xad70a0ab951780ff3397882fc5372db83deb0606",
      "to": "0x9172c0c316cab74486efc9bf77c39a6358e39ff0",
      "contractAddress": null,
      "gasUsedForL1": "0x669",
      "l1BlockNumber": "0x15e9325",
      "timeboosted": false
    },
    {
      "status": "0x1",
      "cumulativeGasUsed": "0x9afac",
      "logs": [
        {
          "address": "0x9172c0c316cab74486efc9bf77c39a6358e39ff0",
          "topics": [
            "0xe010d4607c87be74896018a7c6ba230e02532b986ba2ee27c1c2174653d68bf0",
            "0xdff36b2700000000000000000000000000000000000000000000000000000000",
            "0x000000000000000000000000b528a3d9abe7d775fc21091f0e3e3d11b47852e3"
          ],
          "data": "0x",
          "blockHash": "0x6dad2423344d8c5f0814f23bf71d091c3c1e5877c50d65ef423950da0df3c1d0",
          "blockNumber": "0x157b54d2",
          "transactionHash": "0xa4bf25093586c424d9dbc2f9344baaddce4f2cf7c365a12ca95fedbf99c26b4a",
          "transactionIndex": "0x7",
          "logIndex": "0x9",
          "removed": false
        }
      ],
      "logsBloom": "0x00000000000000000000000000000000000000000000000000000000000000000000000000000000000000000020000000100800000000000000000000000000000001000000000000000000000000000000000000000020000000000000000000000000000000000000000080000000080000000000080000000000000000000000000000000000000000000000000000000000000000000000000000000000400000000000000000000000000000000000000000000000000000000000000000000000000000000000000000000000000000002000000000000000000000000040000000000000000000000000000000000000000000000008000000000000",
      "type": "0x2",
      "transactionHash": "0xa4bf25093586c424d9dbc2f9344baaddce4f2cf7c365a12ca95fedbf99c26b4a",
      "transactionIndex": "0x7",
      "blockHash": "0x6dad2423344d8c5f0814f23bf71d091c3c1e5877c50d65ef423950da0df3c1d0",
      "blockNumber": "0x157b54d2",
      "gasUsed": "0xf2f1",
      "effectiveGasPrice": "0x3c61c38",
      "from": "0xad70a0ab951780ff3397882fc5372db83deb0606",
      "to": "0x9172c0c316cab74486efc9bf77c39a6358e39ff0",
      "contractAddress": null,
      "gasUsedForL1": "0x670",
      "l1BlockNumber": "0x15e9325",
      "timeboosted": false
    },
    {
      "status": "0x1",
      "cumulativeGasUsed": "0x31639",
      "logs": [
        {
          "address": "0x9172c0c316cab74486efc9bf77c39a6358e39ff0",
          "topics": [
            "0xe010d4607c87be74896018a7c6ba230e02532b986ba2ee27c1c2174653d68bf0",
            "0x3dc5b39a00000000000000000000000000000000000000000000000000000000",
            "0x0000000000000000000000006aedb1fcbef33885c1ac6149c3464854f7aa1f01"
          ],
          "data": "0x",
          "blockHash": "0x4b10e9f1a95096cdb80cb87c89bba42c1e01378c0d7d0ea7fcec327de97818a3",
          "blockNumber": "0x157b54d8",
          "transactionHash": "0x86e526fcc4a897979d550da8000dcb0f79cfe909ef7f6b4626e230116e4a275e",
          "transactionIndex": "0x4",
          "logIndex": "0x3",
          "removed": false
        }
      ],
      "logsBloom": "0x00000000000000000000000000000000000000000000000000000000000000000000000000000000000000000000000000100000000000000000800000000000000001000000000000000100000000000000400000000000000000000000000000000000000000000000000080000000080000000000080000004000000000000000000000000000000010000000000000000000000000000000000000000000000000000000000000000000000000000000000000000004000000000000000000000000000000000000000000000000000000000000000000000000000000000040000000000000000000000000000000000000000000000000000000000000",
      "type": "0x2",
      "transactionHash": "0x86e526fcc4a897979d550da8000dcb0f79cfe909ef7f6b4626e230116e4a275e",
      "transactionIndex": "0x4",
      "blockHash": "0x4b10e9f1a95096cdb80cb87c89bba42c1e01378c0d7d0ea7fcec327de97818a3",
      "blockNumber": "0x157b54d8",
      "gasUsed": "0xf331",
      "effectiveGasPrice": "0x3baaa88",
      "from": "0xad70a0ab951780ff3397882fc5372db83deb0606",
      "to": "0x9172c0c316cab74486efc9bf77c39a6358e39ff0",
      "contractAddress": null,
      "gasUsedForL1": "0x684",
      "l1BlockNumber": "0x15e9325",
      "timeboosted": false
    },
    {
      "status": "0x1",
      "cumulativeGasUsed": "0xf38e",
      "logs": [
        {
          "address": "0x9172c0c316cab74486efc9bf77c39a6358e39ff0",
          "topics": [
            "0xe010d4607c87be74896018a7c6ba230e02532b986ba2ee27c1c2174653d68bf0",
            "0x94dfa9d400000000000000000000000000000000000000000000000000000000",
            "0x0000000000000000000000003905f3fa1c85a92eb599e121417072d50aa14d1b"
          ],
          "data": "0x",
          "blockHash": "0xba35e06b5a6bcee4e5f75c55120f2015b2e3a806f453bfc704e869e32cff69f9",
          "blockNumber": "0x157b54de",
          "transactionHash": "0x329d4695601724d81007ac48006bf3284703310d2d880ea581ad497f649b9ecf",
          "transactionIndex": "0x1",
          "logIndex": "0x0",
          "removed": false
        }
      ],
      "logsBloom": "0x00000000000000000000000000000000000000000000000000200000000000000000000000000000000000000010000000100000000000000000000000000000000001000000000000000000000000000000000000000000000000000002000000000000000000000000080080000400080000200000080000000000000000000000000000000000000000000000000000000000000000000000000000000000000000000000000000000000000000000000000000000000000000000000000000000000000000000000000000000000000000000000000000000000000000000040000000000000000000000000000000000000000000000000000000000000",
      "type": "0x2",
      "transactionHash": "0x329d4695601724d81007ac48006bf3284703310d2d880ea581ad497f649b9ecf",
      "transactionIndex": "0x1",
      "blockHash": "0xba35e06b5a6bcee4e5f75c55120f2015b2e3a806f453bfc704e869e32cff69f9",
      "blockNumber": "0x157b54de",
      "gasUsed": "0xf38e",
      "effectiveGasPrice": "0x3b7f720",
      "from": "0xad70a0ab951780ff3397882fc5372db83deb0606",
      "to": "0x9172c0c316cab74486efc9bf77c39a6358e39ff0",
      "contractAddress": null,
      "gasUsedForL1": "0x689",
      "l1BlockNumber": "0x15e9327",
      "timeboosted": false
    },
    {
      "status": "0x1",
      "cumulativeGasUsed": "0x3370b",
      "logs": [
        {
          "address": "0x9172c0c316cab74486efc9bf77c39a6358e39ff0",
          "topics": [
            "0xe010d4607c87be74896018a7c6ba230e02532b986ba2ee27c1c2174653d68bf0",
            "0xa2ed350f00000000000000000000000000000000000000000000000000000000",
            "0x0000000000000000000000003d8074fddc5bad58dd953408ef3e8c7933811c5c"
          ],
          "data": "0x",
          "blockHash": "0x68c6910ade15a3d91e61baa6abce67a298b7ca8112d9b8c0a7a128cee7cbf55f",
          "blockNumber": "0x157b54e4",
          "transactionHash": "0xeb3a0ad5590f0f6fe23a39e9e2144be307491e3f9c0006aa13b2c4e56ba2283c",
          "transactionIndex": "0x4",
          "logIndex": "0x3",
          "removed": false
        }
      ],
      "logsBloom": "0x00000000000000000000000000000000000000000000000000000000000000000000000000000000000000000000000000100000000000000000000000000000000001000000000000000000000000000000000000000001000000000000000000000000002000000000000080000000080000000000080000000000000000000000000000000000000000000000000000000000000000000000000000000000000000000000000000000000000000000000200000000000000000000000000000000000000000100000000000000000000000000000000000000000000000000040000000000000000000000000100000000000000000000000000000000000",
      "type": "0x2",
      "transactionHash": "0xeb3a0ad5590f0f6fe23a39e9e2144be307491e3f9c0006aa13b2c4e56ba2283c",
      "transactionIndex": "0x4",
      "blockHash": "0x68c6910ade15a3d91e61baa6abce67a298b7ca8112d9b8c0a7a128cee7cbf55f",
      "blockNumber": "0x157b54e4",
      "gasUsed": "0xf33a",
      "effectiveGasPrice": "0x3ab4520",
      "from": "0xad70a0ab951780ff3397882fc5372db83deb0606",
      "to": "0x9172c0c316cab74486efc9bf77c39a6358e39ff0",
      "contractAddress": null,
      "gasUsedForL1": "0x6a0",
      "l1BlockNumber": "0x15e9327",
      "timeboosted": false
    }
  ],
  "libraries": [],
  "pending": [],
  "returns": {},
  "timestamp": 1753194030,
  "chain": 42161,
  "commit": "fb4dfe5"
}